:020000040800F2
:10000000E8040020010100087515000869140008C3
:10001000711500084901000841190008000000009E
:10002000000000000000000000000000D5150008DE
:10003000D901000800000000A515000809160008F5
:100040001B0100081B0100081B0100081B01000820
:100050001B0100081B0100081B0100081B01000810
:100060001B0100081B0100081B0100081B01000800
:100070001B0100081B0100081B0100081B010008F0
:100080001B0100081B0100081B0100081B010008E0
:10009000351900084D0100081B0100081B0100086C
:1000A0001B0100081B0100081B0100081B010008C0
:1000B0001B0100081B0100081B0100081B010008B0
:1000C0001B0100081B0100081B0100081B010008A0
:1000D0001B0100081B0100081B0100081B01000890
:1000E0001B0100081B0100081B010008DFF80CD0F1
:1000F00000F018F80048004799190008E8040020AB
:100100000648804706480047FEE7FEE7FEE7FEE7B1
:10011000FEE7FEE7FEE7FEE7FEE7FEE7551600080E
:10012000ED000008064C074D06E0E06840F00103D2
:1001300094E8070098471034AC42F6D3FFF7DAFF93
:10014000041A0008241A0008FEE7000040F25C00D0
:10015000C2F2000000F0ACB940F23401C2F200017A
:1001600000220120C1E90022C1E90222C1E90422E2
:10017000C1E90620086240F25C00C2F200004A6257
:1001800000F092B8B0B582B01E2040F2C80140F233
:100190005C0440F2C4058DF80700C2F2000140F291
:1001A0004A6000220123C2F20004C2F20005C1E944
:1001B0000002C1E902220B610A750DF10702204617
:1001C0002B4600F01FF800BF2968204600F00AFB0C
:1001D0000028F9D102B0B0BD7047000090F820208F
:1001E000013A012A04D8006800F11402002004E05A
:1001F00000F1240201204FF480211368194311609B
:100200007047000010B590F820E0D0F800C0AEF1C3
:10021000010EBEF1010FDCF808E00DD81EF0E05F22
:1002200010D0CEF3016EBEF1030F11D100F1240105
:1002300001204FF4000233E000F1240101204FF4CB
:1002400080222DE000F1240101204FF4001227E06C
:10025000012000FA0EF01860886818B14B6840EA77
:10026000C30001E008684005D1E9033403430CEB07
:100270000E10C0F88031C0F88441097D012905D1F4
:1002800000F5C2710B6843F480730B605168C0F8CD
:100290008C11126800F5C071C0F88821002001227D
:1002A0000B681A430A6010BDB0B5026890F82030A0
:1002B000013B012B27D8D2F80002012340F00100B6
:1002C000C2F80002D1F814E0CC690EF01F0003FA66
:1002D00000F0D2F81C326FEA000C8343012CC2F804
:1002E0001C3216D064BBD2F80C3203EA0C03C2F8FD
:1002F0000C32CB688C8844EA034302EBCE04C4F88A
:1003000040320B4614E0416A41F4802141620120F1
:10031000B0BDD2F80C320343C2F80C320B688C88A3
:1003200044EA034302EBCE04C4F8403201F10C036B
:100330008C681B8843EA044302EBCE04C4F84432C1
:10034000D2F804328D6943EA0004D1F810E0096A5A
:10035000002D08BF03EA0C04C2F80442D2F814329C
:10036000BEF1000F43EA000408BF03EA0C040129B0
:10037000C2F8144204D1D2F81C120843C2F81C027D
:10038000D2F8000220F00100C2F800020020B0BD47
:100390007047000010B590F82040013C012C0CD8AB
:1003A000D0F800C079B1DCF81040A4070FD100F1FB
:1003B000240101204FF400126FE000F1240101201C
:1003C0004FF4802269E0DCF80C40A40769D00CEB04
:1003D000011CDCF8B0410CF5D87E14F004049460E4
:1003E000DCF8B04119BFE4085460640D1460DEF815
:1003F0000040002904F00204D460DCF8B44104F0A9
:100400000F041461DCF8B441C4F307249461DCF8F0
:10041000B4414FEA14445461DCF8B8211A70026800
:1004200002EB0112D2F8B8214FEA12225A70026888
:1004300002EB0112D2F8B8214FEA12429A70026818
:1004400002EB0112D2F8B8214FEA1262DA700268A8
:1004500002EB0112D2F8BC211A71026802EB011200
:10046000D2F8BC214FEA12225A71026802EB011243
:10047000D2F8BC214FEA12429A71026802EB0112D3
:10048000D2F8BC214FEA1262DA71006814BF00F1A1
:10049000100100F10C01002020220B681A430A60B1
:1004A00010BD00F1240101204FF40012F5E7000017
:1004B0002DE9F04F81B0044600684669D0F80490F9
:1004C0008768D0F80CB0D0F810A0D0F81880F107E9
:1004D00003D10025300740D447E0F9070ED00121B1
:1004E000BA07816007D4780721D4380729D4204679
:1004F00000F024FA02E0204600F022FA0025F80578
:1005000026D520684FF48071BA05816009D478053A
:1005100012D438051AD4204600F014FAF8031AD57C
:1005200098E0204600F010FAF80314D592E04FF45A
:100530000065F805E5D40BE005F50055F8030AD58C
:1005400088E04FF48055F805DBD401E005F58045DF
:10055000F80300F17F80300707D51BF0100004D0AE
:10056000206845F400751021C160700708D51BF0A4
:10057000080005D020680821C160204600F092F9EB
:10058000B00706D52068C068800702D0204600F07A
:100590008BF9700607D51AF0100004D0206845F4D6
:1005A000806510210161B00608D51AF0080005D059
:1005B000206808210161204600F08CF9F00606D57C
:1005C00020680069800702D0204600F085F9B0035A
:1005D00008D519F0100005D0206810214160204690
:1005E00000F07CF9F00308D519F0080005D0206868
:1005F00008214160204600F0ADF9300464D55FEA7F
:1006000049705ED506F4807008EA102028435FEA3E
:100610008871014648BF41F00201B20558BF01464A
:100620005FEA48700D4648BF45F00405700558BFA5
:100630000D46300545D518F0700042D0103800093D
:10064000052839D8DFE800F0032A2D30333645F08D
:10065000080531E020684FF48031BA0381600AD484
:1006600078030FD4380313D4204600F06FF9300715
:100670003FF573AF79E7204600F06AF930073FF5A0
:100680006CAF72E705F5004530073FF566AF6CE7E4
:1006900005F5803530073FF560AF66E745F010059A
:1006A0000AE045F0200507E045F0400504E045F08C
:1006B000800501E045F480752068816921F07001B2
:1006C00081612068042141604DB1606A40EA050102
:1006D0002046616201B0BDE8F04FFFF759BE01B09E
:1006E000BDE8F08FB0B5C8B1044690F8200010B94D
:1006F000204600F087F82068016821F002010160BF
:1007000000F038FA054600BF20684168890707D520
:1007100000F030FA401B0B28F6D312E00120B0BDE8
:10072000016841F00101016000F024FA054600BFB4
:1007300020684168C9070DD100F01CFA401B0B2846
:10074000F6D3606A052140F400306062012084F82D
:100750002010B0BD217E0268012922F0800308BF6D
:1007600042F080030360617E0268012922F04003A9
:1007700008BF42F040030360A17E0268012922F015
:10078000200308BF42F020030360E17E02680129D4
:1007900042F0100308BF22F010030360217F0268BB
:1007A000012922F0080308BF42F008030360617FBB
:1007B0000268012922F0040308BF42F00403036029
:1007C000D4E901C2D4E9033561691A432A431143CC
:1007D000ACF101021143C16100200121606284F883
:1007E0002010B0BD90F82020013A012A84BF0020DB
:1007F00070470068806800EA8160B0EB816018BFD4
:1008000001207047B0B586B0002140F60004059184
:10081000CDE90311C4F201040068A4F5244290421A
:10082000029101D006B0B0BD41F21800C4F202003E
:10083000426802AD42F000724260426802F000720B
:100840000192019A026842F004020260006800F01E
:100850000400019001984FF40060CDE90201049179
:100860002046294600F078F84FF48050029002208C
:100870000390032005902046294600F06DF81420CF
:100880000021002200F0B4F9142000F0AFF9152087
:100890000021002200F0ACF9152000F0A7F906B005
:1008A000B0BD00007047000010B540F2100440F2E7
:1008B0001802C2F20004C2F2000200212346FFF730
:1008C00069FD40F28401C2F20001207809684863A2
:1008D00010BD000070470000704700007047000026
:1008E000B0B5044690F8200001281DD1022084F8FC
:1008F00020002068016821F00101016000F03AF950
:10090000054600BF20684068C00713D000F032F9E8
:10091000401B0B28F6D3606A40F40030606205206B
:1009200084F820000120B0BD606A40F400206062BD
:100930000120B0BD00206062B0BD00007047000023
:1009400070470000704700007047000070470000CB
:1009500070470000704700002DE9F04F84B00E682A
:100960000290002E00F0038140F2004741F2004265
:1009700002984FF6FF7EC4F20107C4F2010204237D
:1009800000240125C1F2100E4FF0000A4FF00009BB
:10099000904208BF032300930AE000BF01250E68C0
:1009A0000AF1010A36FA0AF204F1040400F0DF80C9
:1009B00005FA0AFB16EA0B08F1D04A68724511DC09
:1009C000122A54D80298DFE802F0350A43475353FD
:1009D00053535353535353535353534A4E00D1F825
:1009E0000C9045E04FF6FF73C1F221039A4210DCF0
:1009F0000023C1F2110302989A421BD00023C1F2D6
:100A000012039A4216D00023C1F221039A4211D058
:100A10002EE00023C1F2220302989A420AD000235A
:100A2000C1F231039A4205D00023C1F232039A4247
:100A30001ED100BF8A6842B1012A14BFC0F814B0A9
:100A4000C0F810B04FF0080912E04FF004090FE0B1
:100A5000CA6802F108090BE04FF0000908E0CA6813
:100A600002F1040904E0CA6802F10C0900E00298EE
:100A700022460346B8F5807F24BF203A04331D6820
:100A80004FF00F0C0CFA02F6B54309FA02F22A43B2
:100A90001A60CA79D2067FF581AF41F21802CDF80B
:100AA0000490C4F2020213461268F34642F00102B7
:100AB0001A601A684FEA9A0E02F001020392039A32
:100AC000A7F57E72B94652F82E3004F00C0740F6B6
:100AD00000060CFA07F5C4F20106B04223EA050C41
:100AE00010D040F60043C4F2010398420CD041F20A
:100AF0000003C4F201039842009B4FF0010508BFB8
:100B0000022303E0002300E001230125BB4043EA68
:100B10000C0342F82E304E684F46F203D9F80020FD
:100B200054BF22EA080242EA0802DDF804903A6063
:100B30007A68B30354BF22EA080242EA08027A60E4
:100B4000BA68F30254BF22EA080242EA0802BA6015
:100B500040F20C42B302C4F20102DE4613461268B0
:100B600054BF22EA080242EA08021A6017E704B0FA
:100B7000BDE8F08F40F2E000C2F20000006870476C
:100B800040F2040040F2E001C2F20000C2F20001B3
:100B900000780A681044086070470000B0B540F261
:100BA0000402C2F2000240F200011278C2F2000117
:100BB0004FF47A730968B3FBF2F20446B1FBF2F129
:100BC000084600F0B1FA0F2C4FF001050CD858B9C7
:100BD0004FF0FF3021460022002500F009F840F2D6
:100BE0000800C2F2000004602846B0BD00F0AABEB2
:100BF00070B514460D46064600F0B4FE294622465E
:100C000000F0BAFC01463046BDE8704000F0B2BECC
:100C10002DE9F04381B0002800F0AF8042F20008D7
:100C2000C4F202080446D8F800000D4600F00700A0
:100C300088420DD2D8F8000020F007002843C8F8F9
:100C40000000D8F8000000F00700A84240F09580AE
:100C5000206841F204098107C4F2020917D541074F
:100C600005D5D9F8001041F4E061C9F8001001077A
:100C700005D5D9F8001041F46051C9F80010D9F831
:100C80000010A26821F0F0011143C9F80010C0075C
:100C90002DD06068012804D159F8041C89036CD553
:100CA00008E059F8041C022802D1890165D501E049
:100CB000890762D5D9F8001021F003010843C9F86B
:100CC0000000FFF757FF064641F28837D9F80000C9
:100CD000616800F00C00B0EB810F08D0FFF74AFF0D
:100CE000801BB842F2D9032001B0BDE8F083D8F8E8
:100CF000000000F00700A8420CD9D8F8000020F04E
:100D000007002843C8F80000D8F8000000F00700EA
:100D1000A84232D12068410707D5D9F80010E2680F
:100D200021F4E0611143C9F80010000708D5D9F893
:100D30000000216920F4605040EAC100C9F80000B9
:100D400000F020F8D9F8001041F6F412C1F30311B5
:100D5000C0F60002515C40F2000220FA01F140F2BC
:100D60000800C2F200000068C2F200021160FFF742
:100D700015FF002001B0BDE8F083012001B0BDE8FF
:100D8000F083000041F2040CC4F2020CDCF80030E5
:100D900003F00C00082841F20020C0F27A0018BFCE
:100DA0007047C3F383420AA18A5CD90305D440F695
:100DB0000010C0F23D0050437047DCF8001008A35B
:100DC000C1F34041595C5043B0FBF1F0704700BFA4
:100DD00002030405060708090A0B0C0D0E0F10107C
:100DE000010200002DE9F04182B0002800F0CD8022
:100DF0000446007841F20006C007C4F202064CD057
:100E0000706800F00C00042817D0706800F00C0027
:100E1000082802D17068C0030FD4606898B1B0F59B
:100E2000803F06D03168B0F5A02F22D141F4802058
:100E30003060306840F4803021E0306880032CD589
:100E4000606850BBA1E0306820F4803030603068CA
:100E500020F480203060FFF78DFE05463068800367
:100E60001BD5FFF787FE401B64284FF00300F5D920
:100E700056E121F480303060306820F4802030600A
:100E8000FFF778FE054600BF3068800305D4FFF702
:100E900071FE401B6428F7D912E1207880072FD516
:100EA000706810F00C0F07D0706800F00C00082874
:100EB00009D17068C00306D43068800719D520694D
:100EC000012862D115E02069002840F20000C4F238
:100ED000422000F0B68001210160FFF74BFE05467D
:100EE0003068800705D4FFF745FE401B0228F7D97C
:100EF000E6E03068616920F0F80040EAC100306047
:100F00002078000727D5A06988B10020C4F24220CC
:100F10000121C0F88014FFF72DFE0546706A800796
:100F200017D4FFF727FE401B0228F7D9C8E000209E
:100F3000C4F242200021C0F88014FFF71BFE0546D2
:100F4000706A800707D5FFF715FE401B0228F7D906
:100F5000B6E000F029FB207840071AD4E569002D9F
:100F600000F0DD80706800F00C00082848D1012DE9
:100F70000BD07068216A00F480328A4205D1616A20
:100F800000F47010884200F0CA80012002B0BDE871
:100F9000F081F069C0000BD4F0694FF0010840F017
:100FA0008050F061F06900F080500190019801E0FC
:100FB0004FF0000847F20007C4F200073868C00588
:100FC0000FD4386840F480703860FFF7D3FD0546D1
:100FD0003868C00505D4FFF7CDFD401B6428F7D95C
:100FE0006EE0E06800283DD0012805D0316A052870
:100FF00051D141F004003062306A40F0010050E00D
:101000000027C4F2422700203866FFF7B3FD022D07
:1010100005460BD1306880015FD5FFF7ABFD401B63
:1010200002284FF00300F5D97AE000BF3068800154
:1010300075D5FFF79FFD401B02284FF00300F5D93F
:101040006EE000210160FFF795FD054630688007DE
:101050007FF556AFFFF78EFD401B02284FF00300CF
:10106000F4D95DE0306A20F001003062306A20F08F
:1010700004003062FFF77EFD054641F2883700BF6D
:10108000306A800720D5FFF775FD401BB8424FF04E
:101090000300F5D944E021F001003062306A20F00D
:1010A00004003062FFF766FD054641F2883700BF55
:1010B000306A800708D4FFF75DFD401BB842F7D9BE
:1010C000032002B0BDE8F081B8F1000F3FF446AF55
:1010D000F06920F08050F06140E7206AB0F5803F71
:1010E00005D17168A26821F4003111437160716803
:1010F000626A21F47411104308437060012038665D
:10110000FFF738FD044600BF3068800107D4FFF7C1
:1011100031FD001B02284FF00300F5D900E000204C
:1011200002B0BDE8F081000000F056BAB0B590F80A
:101130003C20012A02D102210846B0BD01F1080578
:101140003CCDD1E900CE23F47C5322F470521A43F3
:101150002EF4F0431A432CF4E0431A4324F4C04322
:101160001A432A43C96922F480420368114359642F
:10117000002180F83C100846B0BD000010B590F882
:101180003C20012A4FF0020216D080F83D20026870
:101190005368D2F808C023F0700ED1E900342CF067
:1011A000800143EA0E032143536091600121002234
:1011B00080F83D1080F83C20104610BD002804BF88
:1011C0000120704710B5044690F83D0028B9002072
:1011D00084F83C00204600F00DF8022084F83D0021
:1011E0002068211D00F05EFA012084F83D000020F7
:1011F00010BD000081B0006842F60041C4F2010158
:10120000884201D001B0704741F21800C4F20200D8
:10121000016841F400610160006800F40060009022
:10122000009801B07047000010B5044690F83C00EB
:1012300001284FF0020008BF10BD012284F83C20B5
:1012400084F83D0020684FF6777382689A43826085
:101250000A683F2A14DD5F2A18DD602A28D0B2F51B
:10126000005F2DD0702A40D1D1E9012CCB686146B6
:1012700000F070FA2068816841F07701816034E005
:101280001F2A0FDC92B1102A10D02EE0402A23D062
:10129000502A2AD14B68CA68194600F027FB2068FB
:1012A000502120E0202A01D0302A1ED111461AE018
:1012B0004B68CA68194600F02BFB2068602112E0D9
:1012C000D1E9012CCB68614600F044FA20688168BE
:1012D00041F48041816008E04B68CA68194600F01B
:1012E00005FB2068402100F041FA012084F83D0010
:1012F000002084F83C0010BD80B586B0014640F661
:101300000000C4F20100096800F5105291424FF04C
:101310000001CDE90411CDE9021101D006B080BD74
:1013200041F21801C4F202010A6842F004020A60A4
:10133000096801F00401019101994FF48071029153
:1013400002210391059102A9FFF706FB06B080BDBB
:1013500070B5044690F83C0001284FF0020008BF29
:1013600070BD0D464FEAB2010126032984F83C60A6
:1013700084F83D0036D8DFE801F0020A1222206826
:10138000294600F0FBF9206850F8181F0EE020688D
:10139000294600F021FA206850F8181F16E020684E
:1013A000294600F04BFA206850F81C1F41F0080154
:1013B0000160016821F00401016029690FE02068E3
:1013C000294600F06DFA206850F81C1F41F40061B6
:1013D0000160016821F480610160296909020268E5
:1013E00011430160002084F83D6084F83C0070BD2A
:1013F000002804BF0120704710B5044690F83D0056
:1014000028B9002084F83C00204600F00DF80220A6
:1014100084F83D002068211D00F044F9012084F883
:101420003D00002010BD000070470000B0B504462C
:10143000006842F644450122C4F2010500F078F943
:101440002068A5F14401884203D1296841F4004194
:101450002960816801F00701062903D0016841F085
:10146000010101600020B0BDFEE7000080B540F240
:101470005C0046F20041C2F20000C4F20001042206
:10148000002380E80E0000F10C014FF4602C4FF4B3
:10149000801E81E8085083618383BDE88040FFF7A8
:1014A00021B9000081B041F21800C4F202000168C5
:1014B00041F004010160006800F004000090009811
:1014C00001B07047B0B596B040F2840442F60040D7
:1014D000C2F20004C4F2010000250621F92284E8CA
:1014E000230020461595CDE913550F95CDE90D55EF
:1014F000CDE90B550795CDE90555CDE90355CDE966
:101500000155C4E90325C4E90555FFF757FE4FF41B
:101510008050129012A92046FFF786FE2046FFF762
:1015200067FF10A92046CDE91055FFF727FE602080
:101530000990C720CDE90A0509A920460022CDE976
:101540000C55CDE90E55FFF703FF4FF40050CDE9E0
:101550000155CDE903550595069001A9204608954A
:10156000FFF7E4FD2046FFF7C7FE16B0B0BD000050
:10157000FEE700007047000000F0070080F007035E
:10158000042B28BF04234FF0FF3C03380CFA03F36D
:1015900038BF0020994381400CFA00F022EA000095
:1015A000084370477047000081B040F20000C2F26B
:1015B0000000006844F6D351C1F26201A0FB0101B2
:1015C000480A009000BF0098411E00280091F9D100
:1015D00001B0704770470000B0B501380024B4EB8B
:1015E000106F02D001242046B0BD4EF21005CEF29D
:1015F000000568604FF0FF300F2100F0BBF90720B5
:10160000AC6028602046B0BDFFF7BABAB0B590B064
:10161000002402250120CDE90B44CDE90944CDE9A0
:10162000074406950A9010200B904FF4E010CDE986
:101630000D540F9006A8FFF7D5FB0F20CDE901054B
:1016400001A80121CDE903440594FFF7E1FA10B0A8
:10165000B0BD000041F20000C4F2020001680022A7
:1016600041F0010101604168CFF6FF021140416085
:1016700001684FF6FF72CFF6F66211400160016813
:1016800021F480210160416821F4FE0141604FF4A2
:101690001F0181604EF60850CEF200004FF000614D
:1016A0000160704710B540F2FF7E0368C4F2000E7F
:1016B00042F6004C7045C4F2010C05DCB0F1804FDD
:1016C0000AD040F2004203E0604505D040F6000237
:1016D000C4F20002904203D14A6823F0700313431E
:1016E000704505DCB0F1804F0AD040F2004203E0C3
:1016F000604505D040F60002C4F20002904203D1DA
:10170000CA6823F44073134323F080024B69D1F875
:1017100000E08C681A4360450260C462C0F828E0AB
:1017200002D10969CCF830100121416110BD0000DF
:1017300080B501F01F014FF0010CD0F820E00CFA49
:1017400001F32EEA03030362036A02FA01F119436B
:10175000016280BDD0F808C011432CF47F4C41EAEF
:10176000032141EA0C01816070470000826822F089
:101770007002114341F0070181607047B0B5026A01
:1017800022F001020262046AD0F804E082690B6868
:1017900022F073028D6842EA030C42F6004324F003
:1017A0000202C4F20103984245EA02030CD123F07D
:1017B0000C02CB68D1E9054523F0040313432EF452
:1017C0004072224342EA050EC0F804E0C0F818C097
:1017D000496841630362B0BD70B5026A22F010022D
:1017E0000262046AD0F804E082690B6822F4E642DF
:1017F0008D6842EA032C42F6004324F02002C4F232
:101800000103984242EA05130FD123F0C002CB68CE
:101810006FF04006D1E9054506EA031313432EF4A1
:10182000406242EA840242EA850EC0F804E0C0F851
:1018300018C049688163036270BD000070B5026A18
:1018400022F480720262046AD0F804E0C2690B6874
:1018500022F073028D6842EA030C42F6004324F43E
:101860000072C4F20103984242EA05230FD123F427
:101870004062CB6840F2FF461B02D1E90545B34305
:1018800013432EF4405242EA041242EA051EC0F805
:1018900004E0C0F81CC04968C163036270BD000069
:1018A000B0B5026A22F480520262046AD0F804E001
:1018B000C2690B6822F4E6428D6842EA032C42F6C4
:1018C000004324F40052C4F20103984242EA053373
:1018D00004D14A692EF4804545EA821EC0F804E02E
:1018E000C0F81CC0496801640362B0BDD0F820C0D4
:1018F000036A23F001030362836923F0F00343EAE0
:1019000002122CF00A031943826101627047000041
:10191000036A23F0100303628369D0F820C023F424
:10192000704343EA02322CF0A00343EA01118261C2
:101930000162704740F25C00C2F20000FEF7B8BDE1
:10194000FEE70000002848BF704700F01F01012299
:1019500002FA01F14EF200124009CEF2000242F802
:10196000201070474EF60C50CEF200000068C0F315
:10197000022070474EF6145300F00F02CEF200031F
:1019800009011A4400F16043B0F1FF3FC8BF03F5FD
:101990006442117070470000FFF738FEFFF782FDC8
:1019A000FFF764FDFFF78EFDFEF7D6FB40F25C0407
:1019B000C2F2000420461221FEF710FC2046FEF77A
:1019C0008FFF40F28400C2F200000021FFF72EFDDD
:1019D000FEF7D8FBFCE702E008C8121F08C1002A86
:1019E000FAD170477047002001E001C1121F002AA0
:1019F000FBD170470000000000000000010203045A
:101A000006070809281A000800000020100000003E
:101A1000D6190008381A000810000020D804000069
:101A2000E6190008000000000024F4000100000096
:081A300010000000000000009E
:04000005080000ED02
:00000001FF
