:020000040800F2
:10000000F805002001010008ED270008711C000818
:10001000E9270008A90800088D2900080000000051
:100020000000000000000000000000001D28000883
:10003000AD08000800000000F12700081F28000894
:100040001B0100081B0100081B0100081B01000820
:100050001B0100081B0100081B0100081B01000810
:100060001B0100081B0100081B0100081B01000800
:100070001B0100081B0100081B0100081B010008F0
:100080001B0100081B0100081B0100081B010008E0
:100090001B0100081B0100081B0100081B010008D0
:1000A0001B0100081B0100081B0100081B010008C0
:1000B0001B0100081B0100081B0100081B010008B0
:1000C0001B0100081B0100081B0100081B010008A0
:1000D0001B0100081B0100081B0100081B01000890
:1000E0001B0100081B0100081B010008DFF80CD0F1
:1000F00000F0C8FB004800477D2A0008F8050020F2
:100100000648804706480047FEE7FEE7FEE7FEE7B1
:10011000FEE7FEE7FEE7FEE7FEE7FEE78D280008C4
:10012000ED000008202A04DB203A21FA02F0002129
:10013000704721FA02F3D040C2F1200291400843F7
:1001400019467047D2B201E000F8012B491EFBD2DC
:1001500070470022F6E710B513460A4604461946D2
:10016000FFF7F0FF204610BDF0B480EA0102D40F83
:100170004200B2EB410F02D20246084611464A0045
:1001800042D0C30DDDB2C1F3C752AD1A202D35DA0E
:10019000C1F3160141F4000204B15242C5F1200638
:1001A00002FA06F12A411044B3EBD05F23D0C4B168
:1001B000012DA0EBC35009DCF0BC4FF0004202EA75
:1001C000C352DBB200F5000000F080BA400000F13D
:1001D000807000EBC350A0F1807040EAD1704900FC
:1001E00009E0490841EAC071A0EBC35000F50000E6
:1001F000400800EBC350F0BC00F05FBA614201223E
:1002000002EB4101001BF6E7F0BC704781F00041B2
:10021000AAE780F00040A7E780EA010210B502F0EB
:100220000043400022D04A001FD0010E01EB1261B2
:10023000C0F35600C2F3560240F4000042F400023C
:10024000A0FB022000047F39140400D0401C50EAB7
:10025000124001D44000491EC2B20C0604EBD0107B
:10026000401C4008802A02D003E0002010BD20F08E
:100270000100002900DA0020184310BD30B480EAE4
:10028000010202F0004530F0004221F0004013D09E
:1002900090B1C30DD40DC2F31601C0F31600E41AD9
:1002A00041F4000140F400027D34914201D3641C0A
:1002B00000E04900002C02DA30BC002070474FF407
:1002C00000000023914201D3891A034340084FEAFA
:1002D0004101F7D151B1914202D14FF0004105E007
:1002E00002D24FF0010101E06FF0010103EBC450B5
:1002F000284430BC00F0E1B92DE9FE4F804681EA88
:100300000300C00F0C46009021F0004123F000458F
:10031000B8EB0200A94105D24046214690461C4652
:100320000B46024623F00040104347D0270DC7F389
:100330000A00C3F30A510290401A019040286BDA78
:10034000C3F3130040F4801B0098924620B10023B1
:10035000D2EB030A63EB0B0B01985946C0F1400244
:10036000504600F089F906460D4650465946019A16
:1003700000F091F910EB08006141002487EA115266
:1003800084EAE7731A4340D0009A62B3019A012AC3
:100390004FEA075215DC001B61EB02014FF00042EF
:1003A00002EA0752CDE90042001C41F580113246B5
:1003B0002B4600F0C8F903B0BDE8F08F4046214657
:1003C000F9E7001B61EB0201001C41F580130018E6
:1003D0005B412018A2F5001747EB030140EAD570F6
:1003E000B6196D4111E06D084FEA360645EAC07551
:1003F0004FEA0752001B61EB0201001C41F580111E
:1004000049084FEA30000019514132462B4603B0EB
:10041000BDE8F04F00F088B90098012240000023A9
:10042000D0EB020263EBE073009821464FEAE074E0
:10043000B8EB000061EB0401E9E783F000435BE700
:1004400081F0004158E72DE9FE4F81EA030404F0F2
:10045000004421F0004100944FF0000B23F00043D2
:1004600050EA01045ED052EA03045BD0C3F30A549D
:10047000C1F30A552C44A4F2F3340194A0FB0254B6
:10048000C1F3130141F48011C3F3130343F4801348
:1004900001FB024400FB034E840A970A44EA81549C
:1004A00047EA8357A4FB076802958D0A05FB078579
:1004B0004FEA932C04FB0C542705029D4FEA065883
:1004C00047EA1637B5EB08056EEB070C870E920E60
:1004D00047EA811742EA8312A7FB0201B6EB0B0140
:1004E00064EB00042B0D43EA0C335E1844EB1C5004
:1004F000DA465146E7FB0201C5F313044FEA0B331A
:1005000043EA14534FEA0432019C43EA0603A4F180
:100510000C040294009CCDE900B400F014F903B07F
:10052000BDE8F08F00200146F9E72DE9F04D81EAA2
:10053000030404F0004B21F0004514464FF0000A7C
:1005400023F0004150EA050220D054EA01021DD0F8
:10055000C5F30A570246C5F31303C1F31300C1F3F1
:100560000A5640F4801543F48013A7EB0608101BCD
:10057000D64608F2FD3873EB050002D308F10108F6
:1005800001E092185B41B8F1000F03DA0020014648
:10059000BDE8F08D00204FF48011064684460EE041
:1005A000171B73EB050705D3121B63EB050306430B
:1005B0004CEA010C49084FEA300092185B4150EABE
:1005C0000107EDD152EA030012D082EA040083EA67
:1005D0000501084305D0101BAB4106D201220023C0
:1005E00006E000224FF0004302E06FF001025310DA
:1005F0001AEB06004CEB085110EB0A0041EB0B0123
:10060000BDE8F04D00F090B8C10F80EAE0700844FA
:10061000CA079623002100F059B800F0004230F0DC
:1006200000400AD0C10D01F56071C0F3160042EA26
:100630000151C2084007114370470020014670472E
:1006400001F0004330B421F0004150EA010206D02D
:100650000A0DA2F56072C1F31301002A02DC30BC5E
:1006600000207047440F44EAC104C100E01830BCC8
:1006700000EBC25000F021B8202A04DB203A00FA37
:1006800002F1002070479140C2F1200320FA03F3E9
:10069000194390407047202A06DBCB17203A41FAD5
:1006A00002F043EAE07306E041FA02F3D040C2F1FF
:1006B000200291400843194670470029A8BF70479F
:1006C000401C490008BF20F00100704710B4B0FA88
:1006D00080FC00FA0CF050EA010404BF10BC704723
:1006E00049B1CCF1200421FA04F411FA0CF118BF3D
:1006F000012121430843A3EB0C01CB1D4FEA00610C
:100700004FEA102042BF002010BC704700EBC350DE
:1007100010440029A4BF10BC7047401C490008BF0A
:1007200020F0010010BC704710B5141E73F10004D6
:1007300008DA401C41F1000192185B411A4301D1D3
:1007400020F0010010BD2DE9F04D92469B4611B1FD
:10075000B1FA81F202E0B0FA80F220329046FFF75F
:100760008BFF04460F4640EA0A0041EA0B0153465C
:100770005A46084313D0114653EA010019D0C8F174
:1007800040025046FFF7CEFC05460E4650465946FD
:100790004246FFF771FF084305D0012004E02046E0
:1007A0003946BDE8F08D0020054346EAE0762C434B
:1007B00037430A986305E40AA0EB08000022FD0A0B
:1007C00044EA47540A3002D500200146E9E7010512
:1007D00010196941DDE9084500196941BDE8F04D8E
:1007E000A2E72DE9F04D00231A461B1A8A4103DBCC
:1007F00000200146BDE8F08DC1F30A52C1F3130198
:1008000041F480154FF0000BD10702D100186D4163
:10081000521E0027044640F2FF11384601EB620ADF
:100820003E468046024600204FF48011FFF77AFCD6
:10083000C2197141BB1846EB0100B4EB030C75EB18
:10084000000C04D3E41A65EB000517460E46241984
:1008500008F101006D4180463428E3DDF91946EBCB
:100860000600091BA84103D24FF0FF32134601E0F6
:10087000002213461BEB070046EB0A51BDE8F04D82
:10088000FFF752BF064C074D06E0E06840F0010359
:1008900094E8070098471034AC42F6D3FFF72AFCDF
:1008A000982B0008B82B000800BFFEE7704772B60F
:1008B00000BFFEE72DE9F8470346002294466EE1AB
:1008C0004FF0010808FA02F4D1F8008008EA0400A9
:1008D000A0427DD1DFF8DCA2D1F80480A8EB0A09A0
:1008E000D0453AD014DCB8F1030F50D009DCB8F190
:1008F000000F31D0B8F1010F1CD0B8F1020F49D16F
:1009000020E0B8F1110F18D0B8F1120F42D11EE05B
:10091000B9F5881F25D006DCB9F5803F20D0B9F5A0
:10092000801F37D11AE0B9F5001F18D0B9F5041FA0
:1009300030D117E0D1F80CC02DE0D1F80C8008F1CF
:10094000040C28E0D1F80C8008F1080C23E0D1F861
:100950000C8008F10C0C1EE000BF00BF00BF00BF00
:1009600000BF00BFD1F80880B8F1000F02D14FF0EE
:10097000040C0BE0D1F80880B8F1010F03D14FF05F
:10098000080C1C6102E04FF0080C5C6103E04FF0C2
:10099000000C00E000BF00BFFF2801D8984601E02E
:1009A00003F104084646FF2802D84FEA820803E014
:1009B000A2F108084FEA88084746D6F800804FF0B1
:1009C0000F0909FA07F928EA09080CFA07F900E003
:1009D00088E048EA0908C6F80080D1F8048008F0E9
:1009E0008058B8F1805F7DD100BFDFF8CC81D8F8A6
:1009F000188048F00108DFF8C091C9F81880C8468F
:100A0000D8F8188008F00108CDF8008000BF00BFBA
:100A10004FEAB9384FEA920958F829504FEA8278DC
:100A20004FEA18794FF00F0808FA09F825EA080587
:100A3000DFF88881434502D14FF0000816E0DFF867
:100A40008081434502D14FF001080FE0DFF8748147
:100A5000434502D14FF0020808E0DFF86C814345BE
:100A600002D14FF0030801E04FF004084FEA827909
:100A70004FEA197908FA09F848EA0505DFF84C81C8
:100A80004FEA920948F82950D1F8048008F48038D8
:100A9000B8F5803F0AD1DFF83881D8F8008048EAFD
:100AA0000008DFF82C91C9F8008009E0DFF8208108
:100AB000D8F8008028EA0008DFF81491C9F800800F
:100AC000D1F8048008F40038B8F5003F10D1DFF801
:100AD000008108F10408D8F8008048EA0008DFF82F
:100AE000F09000E05AE009F10409C9F800800DE037
:100AF000DFF8DC8008F10408D8F8008028EA000854
:100B0000DFF8CC9009F10409C9F80080D1F804801D
:100B100008F48018B8F5801F0ED1DFF8B48008F112
:100B20000808D8F8008048EA0008DFF8A49009F126
:100B30000809C9F800800DE0DFF8948008F1080882
:100B4000D8F8008028EA0008DFF8849009F1080945
:100B5000C9F80080D1F8048008F40018B8F5001F27
:100B60000ED1DFF86C8008F10C08D8F8008048EA54
:100B70000008DFF85C9009F10C09C9F800800DE06D
:100B8000DFF84C8008F10C08D8F8008028EA00084B
:100B9000DFF83C9009F10C09C9F80080521CD1F82B
:100BA000008028FA02F8B8F1000F7FF489AEBDE8A2
:100BB000F8870000000011100010024000080140FA
:100BC000000C0140001001400014014008000140E9
:100BD0000004014001480068704700000000002048
:100BE00070B504460CB9012070BD94F83D0028B9D9
:100BF000002084F83C00204600F03EFB242084F8CE
:100C00003D002068006820F001002168086020682D
:100C1000006840F40040216808602068006820F403
:100C200000402168086000F0EFFC05465C49606800
:100C3000884206D85B48854201D2012007E00020A7
:100C400005E05948854201D2012000E0002001283A
:100C500000D1C9E75548B5FBF0F62068406820F0A0
:100C60003F003043216848604D496068884201D8A0
:100C7000701C07E04FF4967070434FF47A71B0FB2C
:100C8000F1F0401C2168096A21F03F010843216806
:100C9000086243496068884214D8681E6168490048
:100CA000B0FBF1F0401CC0F30B00042801D204207B
:100CB0003DE0681E61684900B0FBF1F0401CC0F3E4
:100CC0000B0034E0A06838B9681E616801EB41018F
:100CD000B0FBF1F0401C0AE0681E616801EBC10244
:100CE00002EB0111B0FBF1F0401C40F48040C0F376
:100CF0000B0008B901201AE0A06848B9681E6168B5
:100D000001EB4101B0FBF1F0401CC0F30B000CE023
:100D1000681E616801EBC10202EB0111B0FBF1F04A
:100D2000401CC0F30B0040F4804040F400402168B8
:100D3000C9694CF6FF72914308432168C861D4E940
:100D4000070108432168096821F0C00108432168B0
:100D50000860D4E9031008432168896848F2FF322B
:100D60009143084321688860D4E90501084321685C
:100D7000C96821F0FF0108432168C8602068006845
:100D800040F001002168086000202064202084F8E1
:100D90003D000020206384F83E0000BF24E70000EF
:100DA000A086010080841E0000093D0040420F0023
:100DB0002DE9FE4F04460F4690469946DDE90CABFF
:100DC0000E9E00200290FFF705FF054694F83D00B7
:100DD000202872D119230122CA492046009501F02A
:100DE000B7F810B10220BDE8FE8F00BF94F83C00B8
:100DF000012801D10220F6E7012084F83C0000BF61
:100E00002068006800F0010028B92068006840F000
:100E10000100216808602068006820F400602168F3
:100E20000860222084F83D00402084F83E00002025
:100E30002064C4F824A0A4F82AB0608D2085B248AC
:100E4000E0624B46424639462046CDE9006500F057
:100E500031FF08B10120C6E7208D88B900BF00200E
:100E6000019020684069019020688069019000BF6E
:100E700000BF2068006840F40070216808604BE003
:100E8000208D01281AD12068006820F48060216834
:100E9000086072B600BF0020019020684069019090
:100EA00020688069019000BF00BF2068006840F49E
:100EB00000702168086062B62EE020E1208D0228D3
:100EC00019D12068006840F400602168086072B69B
:100ED00000BF00200190206840690190206880696F
:100EE000019000BF00BF2068006820F48060216886
:100EF000086062B610E02068006840F480602168F5
:100F0000086000BF002001902068406901902068BF
:100F10008069019000BF00BFE2E0208D03287DD8EA
:100F2000208D012815D12A463146204601F0B5F81A
:100F300008B1012057E720680069616A0870606A9B
:100F4000401C6062208D401E2085608D401E6085A3
:100F5000C6E0208D02282CD1334600226B49204662
:100F6000009500F0F5FF08B101203CE772B620685B
:100F7000006840F400702168086020680069616AB8
:100F80000870606A401C6062208D401E2085608D64
:100F9000401E608562B620680069616A0870606AF8
:100FA000401C6062208D401E2085608D401E608543
:100FB00096E03346002255492046009500F0C8FFD0
:100FC00008B101200FE72068006820F480602168E4
:100FD000086072B620680069616A0870606A401C27
:100FE0006062208D401E2085608D401E60854848CF
:100FF00000681921B0FBF1F04FF47A71B0FBF1F009
:10100000C0EBC00000EB8000029000BF0298401EC1
:1010100002900298A8B90020206300E039E0202067
:1010200084F83D00002084F83E00206C40F0200051
:10103000206462B600BF002084F83C0000BF01209D
:10104000D1E620684069C0F380000028DED0206827
:10105000006840F400702168086020680069616AD7
:101060000870606A401C6062208D401E2085608D83
:10107000401E608562B620680069616A0870606A17
:10108000401C6062208D401E2085608D401E608562
:1010900026E02A463146204600F0FFFF08B1012035
:1010A000A1E620680069616A0870606A401C60629D
:1010B000208D401E2085608D401E6085206840691F
:1010C000C0F3800060B120680069616A0870606ADE
:1010D000401C6062208D401E2085608D401E608512
:1010E000208D00287FF419AF202084F83D000020D7
:1010F00084F83E0000BF84F83C0000BF73E6022085
:1011000071E60000020010000000FFFF0400010073
:101110000C0000202DE9FC5F04460F4690469946DE
:10112000DDE90CAB0E9EFFF755FD054694F83D003A
:1011300020287DD1192301224D492046009500F039
:1011400007FF10B10220BDE8FC9F00BF94F83C00EF
:10115000012801D10220F6E7012084F83C0000BFFD
:101160002068006800F0010028B92068006840F09D
:101170000100216808602068006820F40060216890
:101180000860212084F83D00402084F83E000020C3
:101190002064C4F824A0A4F82AB0608D20853548C6
:1011A000E0624B46424639462046CDE9006500F0F4
:1011B00031FE08B10120C6E731E02A46314620461B
:1011C00000F0ABFF50B1206C042805D12068006806
:1011D00040F40070216808600120B4E7606A00787C
:1011E00021680861606A401C6062208D401E208575
:1011F000608D401E608520684069C0F3800070B13A
:10120000208D60B1606A007821680861606A401CC6
:101210006062208D401E2085608D401E6085208D7F
:101220000028CAD12A463146204600F063FE00E07D
:101230001CE050B1206C042805D12068006840F4FF
:1012400000702168086001207DE72068006840F494
:10125000007021680860202084F83D00002084F898
:101260003E0000BF84F83C0000BF6CE702206AE744
:10127000020010000000FFFF10B586B004460020F9
:10128000029003900490059015492068884225D16A
:1012900000BF1448806940F0080012498861084680
:1012A000806900F00800019000BF00BFC0200290DC
:1012B000122003900320059002A90B48FFF7FAFAC9
:1012C00000BF0848C06940F400100649C8610846DC
:1012D000C06900F40010019000BF00BF06B010BD4F
:1012E0000054004000100240000C01400348006818
:1012F000034909780844014908607047000000204C
:101300000800002010B50848006840F010000649A9
:101310000860032000F098F8002000F007F800F0C3
:101320002BF8002010BD00000020024070B50446DC
:101330000E4800784FF47A71B1FBF0F00C4909685F
:10134000B1FBF0F5284600F0FBFB08B1012070BDB1
:10135000102C07D200222146501E00F037F8054815
:10136000046001E00120F2E70020F0E7080000201F
:101370000C0000200400002008B500BF114880695F
:1013800040F001000F4988610846806900F00100C3
:10139000009000BF00BF00BF0846C06940F0805009
:1013A000C8610846C06900F08050009000BF00BFCF
:1013B00000BF0549486820F0E06040F000704860D8
:1013C00000BF08BD00100240000001402DE9F05FA1
:1013D00080460D461646002701F0DAFA07463946E0
:1013E0002A46334601F00700C0F1070ABAF1040F9C
:1013F00002D94FF0040A01E0C0F1070AD14600F11A
:10140000040ABAF1070F02D24FF0000A01E0A0F17E
:10141000030AD4464FF0010A0AFA09FAAAF1010AAE
:101420000AEA020A0AFA0CFA4FF0010B0BFA0CFB5B
:10143000ABF1010B0BEA030B4AEA0B0421464046D1
:1014400001F0AEFABDE8F09F00BF00F00702064BC6
:1014500019684FF6FF031940044B0B4343EA02217E
:10146000014B196000BF70470CED00E00000FA0569
:1014700070B504460D460CB9012070BD5A4800688D
:1014800000F00700A8420ED25748006820F007007D
:101490002843554908600846006800F00700A84244
:1014A00001D00120E9E7207800F0020002281DD1D8
:1014B000207800F00400042805D14C48406840F42E
:1014C000E0604A494860207800F00800082805D10B
:1014D0004648406840F4605044494860434840688A
:1014E00020F0F000A168084340494860207800F0EF
:1014F000010078B36068012806D13C48006800F418
:10150000003090B90120B8E76068022806D137485A
:10151000006800F0007040B90120AEE73348006871
:1015200000F0020008B90120A7E73048406820F029
:101530000300616808432D494860FFF74BFB0646EE
:1015400009E0FFF747FB801B41F28831884202D94E
:10155000032092E707E02548406800F00C0061682E
:10156000B0EB810FEDD12048006800F00700A842E1
:101570000ED91D48006820F0070028431A4908606A
:101580000846006800F00700A84201D0012074E777
:10159000207800F00400042807D11448406820F4A3
:1015A000E060E168084311494860207800F00800D5
:1015B000082808D10D48406820F46050216940EAAD
:1015C000C1000A49486000F03FF808494968C1F382
:1015D0000311074A515CC840064908600648006884
:1015E000FFF7A4FE002048E7002002400010024060
:1015F000802B00080C000020040000200148006837
:10160000704700000C00002000B5FFF7F7FF044909
:101610004968C1F30221034A515CC84000BD000083
:1016200000100240902B000800B5FFF7E7FF0449C7
:101630004968C1F3C221034A515CC84000BD0000A3
:1016400000100240902B0008F0B585B00FF26C0C32
:101650009CE8E01001A8A0E8E0101CA52D6800950A
:1016600000210022002300240020194D696801F0A8
:101670000C05F5B1042D02D0082D19D101E0154853
:1016800019E001ADC1F38346AC5D01F4803555B17D
:101690000F4D6D68C5F340451DF805200D4D6543A0
:1016A000B5FBF2F302E00C4D04FB05F3184602E033
:1016B00000BF084800BF00BF05B0F0BD020304052D
:1016C000060708090A0B0C0D0E0F1010010200008E
:1016D0000010024000127A0000093D00F8B50446EF
:1016E0000CB90120F8BD207800F00100002878D066
:1016F000F848406800F00C0004280CD0F548406819
:1017000000F00C00082811D1F248406800F4803045
:10171000B0F5803F0AD1EF48006800F4003000289F
:101720005FD0606800285CD10120DBE700BF606803
:10173000B0F5803F06D1E748006840F48030E549C5
:10174000086028E0606858B9E248006820F48030FA
:10175000E04908600846006820F4802008601AE02C
:101760006068B0F5A02F0BD1DA48006840F4802003
:10177000D84908600846006840F4803008600AE0F4
:10178000D448006820F48030D249086008460068D8
:1017900020F48020086000BF606888B1FFF71AFA63
:1017A000054606E0FFF716FA401B642801D903201E
:1017B00098E7C848006800F400300028F2D010E034
:1017C000FFF708FA054606E0FFF704FA401B642815
:1017D00001D9032086E7BF48006800F400300028E4
:1017E000F2D1207800F00200022857D1B9484068B1
:1017F00000F00C0050B1B748406800F00C00082819
:1018000018D1B448406800F4803098B9B1480068F5
:1018100000F0020020B12069012801D0012061E719
:10182000AC48006820F0F800616940EAC100A949AD
:10183000086033E02069E8B10120A7490860FFF79C
:10184000C9F9054606E0FFF7C5F9401B022801D992
:10185000032047E79F48006800F002000028F2D00C
:101860009C48006820F0F800616940EAC10099498D
:10187000086013E0002098490860FFF7ABF90546BF
:1018800006E0FFF7A7F9401B022801D9032029E74A
:101890009048006800F002000028F2D1207800F0A3
:1018A000080008282DD1A069B8B101208B49086033
:1018B000FFF790F9054606E0FFF78CF9401B022878
:1018C00001D903200EE78348406A00F00200002897
:1018D000F2D0012000F08EFF13E000207F49086065
:1018E000FFF778F9054606E0FFF774F9401B022878
:1018F00001D90320F6E67748406A00F0020000288C
:10190000F2D1207800F00400042873D10027714838
:10191000C06900F0805070B900BF6E48C06940F0E7
:1019200080506C49C8610846C06900F08050009042
:1019300000BF00BF01276A48006800F48070B0B99A
:101940006748006840F4807065490860FFF742F915
:10195000054606E0FFF73EF9401B642801D9032045
:10196000C0E65F48006800F480700028F2D000BF35
:10197000E068012806D15748006A40F00100554947
:10198000086227E0E06858B95248006A20F0010078
:10199000504908620846006A20F00400086219E015
:1019A000E06805280BD14B48006A40F00400494923
:1019B00008620846006A40F0010008620AE04548F3
:1019C000006A20F00100434908620846006A20F0DE
:1019D0000400086200BFE068A0B1FFF7FBF805460D
:1019E00009E0FFF7F7F8401B41F28831884202D93D
:1019F000032077E622E03748006A00F00200002862
:101A0000EFD012E0FFF7E6F8054608E0FFF7E2F84E
:101A1000401B41F28831884201D9032062E62D48FB
:101A2000006A00F002000028F0D1012F05D12948FA
:101A3000C06920F080502749C86100BFE069C8B381
:101A40002448406800F00C00082860D0E0690228B3
:101A500048D1002020490866FFF7BCF8054606E09B
:101A6000FFF7B8F8401B022801D903203AE61948CD
:101A7000006800F000700028F2D1206AB0F5803FC5
:101A800007D11448406820F40030A1680843114988
:101A90004860D4E9080108430E49496821F47411EB
:101AA00008430C49486001200B490866FFF792F88B
:101AB000054607E03DE0FFF78DF8401B022801D9FD
:101AC00003200FE60348006800F000700028F2D001
:101AD0002FE0000000100240000042428004424219
:101AE00000700040002014490866FFF773F80546AF
:101AF00006E0FFF76FF8401B022801D90320F1E54B
:101B00000E48006800F000700028F2D111E0E06992
:101B1000012800D1E6E50948466806F48031206ACC
:101B2000814204D106F47011606A814201D0012023
:101B3000D8E50020D6E50000000042420010024037
:101B400070B504462546681EB0F1807F01D30120A0
:101B50000FE0681E4FF0E02148610F214FF0FF3089
:101B600000F01EFF00204FF0E0218861072008618F
:101B7000002070BD10B504460CB9012010BDA0694D
:101B800000B100E000BF94F8390028B9002084F8C3
:101B90003800204600F028F8242084F83900206816
:101BA000C06820F400502168C860204600F070FE34
:101BB0002068006920F4904021680861206840692D
:101BC00020F02A00216848612068C06840F4005075
:101BD0002168C8600020E063202084F8390084F880
:101BE0003A000020CAE7000010B586B00446002085
:101BF00002900390049005901A49206888422ED1E3
:101C000000BF1948806940F4804017498861084640
:101C1000806900F48040019000BF00BF00BF08460B
:101C2000806940F0040088610846806900F0040083
:101C3000019000BF00BF48150290022003900320CE
:101C4000059002A90948FEF735FE4FF48060029026
:101C500000200390049002A90448FEF72BFE06B072
:101C600010BD000000380140001002400008014093
:101C700000BFFEE7014608684069C0F38020B0B1AC
:101C80006FF480600A68506100200863202081F8AA
:101C90003D00002081F83E00086C40F0040008641C
:101CA00000BF002081F83C0000BF012070470020E9
:101CB000FCE700002DE9F84304460F461546994617
:101CC000DDE908862068006840F4806021680860CB
:101CD0002068006840F48070216808604346002254
:101CE0004FF001112046009600F032F960B12068F3
:101CF000006800F48070B0F5807F02D14FF400706E
:101D000020640320BDE8F88307F0FE002168086125
:101D1000334642463E49204600F05DF908B10120B5
:101D2000F0E700BF00200090206840690090206824
:101D30008069009000BF00BF32464146204600F057
:101D4000ECF950B1206C042805D12068006840F4FB
:101D50000070216808600120D4E7B9F1010F03D1B8
:101D6000E8B22168086117E0C5F30720216808611F
:101D700032464146204600F0D0F950B1206C04288C
:101D800005D12068006840F40070216808600120D7
:101D9000B8E7E8B22168086132464146204600F0C3
:101DA000BCF950B1206C042805D12068006840F4CB
:101DB0000070216808600120A4E72068006840F4F2
:101DC000807021680860434600224FF001112046D0
:101DD000009600F0BDF858B12068006800F48070EB
:101DE000B0F5807F02D14FF400702064032089E7B2
:101DF000F8B240F0010021680861334642460449C8
:101E0000204600F0E8F808B101207BE7002079E7E0
:101E1000020001002DE9F84304468846154699461C
:101E2000DDE908672068006840F480702168086078
:101E3000334600224FF001112046009700F088F849
:101E400060B12068006800F48070B0F5807F02D136
:101E50004FF4007020640320BDE8F88308F0FE0012
:101E6000216808613B4632462149204600F0B3F81C
:101E700008B10120F0E700BF002000902068406911
:101E8000009020688069009000BF00BF3A4631464C
:101E9000204600F042F950B1206C042805D120689A
:101EA000006840F40070216808600120D4E7B9F1AF
:101EB000010F03D1E8B22168086117E0C5F30720DC
:101EC000216808613A463146204600F026F950B1B3
:101ED000206C042805D12068006840F40070216857
:101EE00008600120B8E7E8B2216808610020B3E784
:101EF0000200010070B504460D46164620E020465B
:101F0000FFF7B8FE08B1012070BD681CC0B1FEF734
:101F100061FE801BA84200D895B9002020632020D4
:101F200084F83D00002084F83E00206C40F0200042
:101F3000206400BF002084F83C0000BF0120E3E7DC
:101F400020684069C0F380000028D8D00020DBE77B
:101F50002DE9F04104460D4617461E46DDF818806F
:101F60001CE0701CD0B1FEF735FEA0EB0800B042BB
:101F700000D89EB900202063202084F83D00002076
:101F800084F83E00206C40F02000206400BF002058
:101F900084F83C0000BF0120BDE8F081C5F3074094
:101FA00001280AD120684069A9B20840A9B2884234
:101FB00001D101200BE0002009E020688069A9B26E
:101FC0000840A9B2884201D1012000E00020B842B7
:101FD000C7D00020E0E72DE9F04104460D46164643
:101FE0001F463DE020684069C0F38020E8B12068CA
:101FF000006840F40070216808606FF48060216818
:10200000486100202063202084F83D00002084F8EF
:102010003E00206C40F00400206400BF002084F8E3
:102020003C0000BF0120BDE8F081701CC0B1FEF78C
:10203000D1FDC01BB04200D896B9002020632020FB
:1020400084F83D00002084F83E00206C40F0200021
:10205000206400BF002084F83C0000BF0120E2E7BC
:10206000C5F3074001280AD120684069A9B2084099
:10207000A9B2884201D101200BE0002009E02068CC
:102080008069A9B20840A9B2884201D1012000E0CC
:1020900000200028A6D00020C5E770B504460D46F4
:1020A000164632E020684069C0F30010A0B16FF01E
:1020B00010002168486100202063202084F83D0042
:1020C000002084F83E00206C206400BF002084F8CB
:1020D0003C0000BF012070BDFEF77CFD801BA842C4
:1020E00000D895B900202063202084F83D0000200E
:1020F00084F83E00206C40F02000206400BF0020E7
:1021000084F83C0000BF0120E5E720684069C0F387
:1021100080100028C6D00020DDE770B504460D46CB
:10212000164620E02046FFF7A5FD08B1012070BD4E
:10213000681CC0B1FEF74EFD801BA84200D895B9BF
:1021400000202063202084F83D00002084F83E0019
:10215000206C40F02000206400BF002084F83C0088
:1021600000BF0120E3E720684069C0F3C0100028E9
:10217000D8D00020DBE700002DE9F04385B006460B
:102180000C4615461F46DDE90C89204600F032FC5E
:1021900090490860284600F045FC8F4908608F4848
:1021A00006604FF0FF30012104AA0B46CDE9002163
:1021B00002907522D02189480068FEF7F9FD9DF84C
:1021C000100071287DD1802004904FF0FF30012154
:1021D00004AA0B46CDE9002102906B22D0217F4852
:1021E0000068FEF797FF00200490401E012104AA1A
:1021F0000B46CDE9002102906B22D0217748006880
:10220000FEF788FF01200490801E012104AA0B46DE
:10221000CDE9002102906B22D02170480068FEF7C2
:1022200079FFCDF810804FF0FF30012104AA0B4652
:10223000CDE9002102901A22D02168480068FEF7FB
:1022400069FF04974FF0FF30012104AA0B46CDE946
:10225000002102901922D02160480068FEF75AFF41
:102260004FF0FF30012103AA0B46CDE90021029077
:102270001B22D02159480068FEF79AFD9DF80C00FA
:1022800020F0E00003909DF80C0020F00300039084
:102290009DF80C0020F0180003909DF80C0040EA17
:1022A000C500C0B203904E48007800F003009DF8CE
:1022B0000C10084303904FF0FF30012103AA0B4696
:1022C00000E083E0CDE9002102901922D0214348AB
:1022D0000068FEF71FFF4FF0FF30012103AA0B46F5
:1022E000CDE9002102901C22D0213C480068FEF775
:1022F0005FFD9DF80C0020F0E00003909DF80C00BD
:1023000020F0180003909DF80C0040EAC400C0B211
:1023100003904FF0FF30012103AA0B46CDE90021C5
:1023200002901C22D0212D480068FEF7F3FE4FF0EA
:10233000FF30012103AA0B46CDE9002102901D22A6
:10234000D02126480068FEF733FD9DF80C0020F0F0
:102350000F0003902348007800F001009DF80C1056
:1023600041EAC00003909DF80C0040EA0900039088
:102370004FF0FF30012103AA0B46CDE90021029066
:102380001D22D02115480068FEF7C4FE22200490CB
:102390004FF0FF30012104AA0B46CDE90021029045
:1023A0003722D0210D480068FEF7B4FE01200490CA
:1023B000801E012104AA0B46CDE90021029038229B
:1023C000D02106480068FEF7A5FE00BF05B0BDE8B5
:1023D000F0830000180000201C0000206000002096
:1023E0005C0000205D0000202DE9F04F85B08246A2
:1023F000504600F033FB5B4908604FF0FF3001218D
:1024000004AA0B46CDE9002102900022564801782B
:1024100056480068FEF7CCFC9DF8100048287DD196
:1024200000200490401E012104AA0B46CDE90021A2
:1024300002900A224C4801784C480068FEF76AFE78
:102440000F2004904FF0FF30012104AA0B46CDE984
:10245000002102900A224448017844480068FEF7AF
:1024600059FE4FF0FF30032103AA0123CDE90021DB
:10247000029010223C4801783C480068FEF798FC26
:102480009DF80C10A1F18000FEF7BEF88346FEF720
:10249000C4F806460022364BFEF747F804460022F1
:1024A000344BFDF729FF8046FEF7CAF83249086031
:1024B0009DF80D10A1F18000FEF7A6F88346FEF707
:1024C000ACF8064600222A4BFEF72FF88046002281
:1024D000284BFDF711FF0446FEF7B2F82649486085
:1024E0009DF80E10A1F18000FEF78EF88346FEF7EE
:1024F00094F8804600221E4BFEF717F8064600228D
:102500001C4BFDF7F9FE0446FEF79AF81A4988605D
:1025100000200490401E012104AA00E01FE00B46A9
:10252000CDE9002102900A220F4801780F48006887
:10253000FEF7F0FD1148007840EA0A10C0B204909E
:102540004FF0FF30012104AA0B46CDE90021029093
:102550000A220548017805480068FEF7DBFD05B052
:10256000BDE8F08F20000020130000206000002054
:10257000000070400000F03F98010020150000208E
:1025800030B587B004464FF0FF30012104AA0B4656
:10259000CDE90021029002221C4801781C48006805
:1025A000FEF706FC9DF8100000F0010060B34FF04C
:1025B000FF30072105AA0123CDE900210290032263
:1025C0001248017812480068FEF7F2FB9DF81A5095
:1025D00005F00800B8B99DF814009DF8151040EA00
:1025E000012000B220809DF816009DF8171040EAE7
:1025F000012000B260809DF818009DF8191040EA93
:10260000012000B2A08000BF07B030BD1300002041
:10261000600000202DE9FC470020009001906846F2
:10262000FFF7AEFF012000F019FA054629463648AB
:102630000068FDF723FE0446344908682146FDF78B
:10264000EBFD8046BDF90000FDF7DEFF81462E4818
:1026500001684846FDF7E0FD07462D480168384609
:10266000FDF7DAFD06464146FDF7D0FD054629484F
:1026700001682846FDF7D0FD2749086023494868CE
:102680002146FDF7C9FD8046BDF90200FDF7BCFFFC
:1026900081461D4801684846FDF7BEFD07461C48B7
:1026A00041683846FDF7B8FD06464146FDF7AEFDE8
:1026B0000546184841682846FDF7AEFD16494860B2
:1026C000124988682146FDF7A7FD8046BDF9040040
:1026D000FDF79AFF81460C4801684846FDF79CFDCE
:1026E00007460B4881683846FDF796FD0646414689
:1026F000FDF78CFD0546074881682846FDF78CFDEF
:1027000005498860BDE8FC872000002024000020E7
:102710009801002030000020D401002008B500BF3F
:102720001348806940F0200011498861084680699B
:1027300000F02000009000BF00BF00BF0846806985
:1027400040F0040088610846806900F004000090B1
:1027500000BF00BF00BF0846806940F008008861E4
:102760000846806900F00800009000BF00BF08BD67
:102770000010024010B50B480B4908600B48486038
:10278000002109488160C1604FF48041016100214E
:1027900041618161C1610162FEF722FA08B1FEF771
:1027A00086F810BD00540040D8000020801A0600B2
:1027B00010B50B480B4908604FF4E1304860002128
:1027C00008488160C16001610C2141610021816183
:1027D000C161FFF7CFF908B1FEF769F810BD00003D
:1027E000003801402C01002000BFFEE700BFFEE7DB
:1027F0007047000008B508490968C9084FF47A72A3
:10280000B1FBF2F14143009100BF00BF00994A1EA5
:1028100000920029F9D108BD0C000020704710B5C6
:10282000FEF764FD10BD00B58FB0282105A8FDF7A7
:1028300090FC14216846FDF78CFC012005900004F3
:102840000690002007900120099002200C90C103FF
:102850000D914FF4E0110E9105A8FEF73FFF08B16E
:10286000FEF725F80F200090022001900020029032
:102870004FF4806003900020049002216846FEF728
:10288000F7FD08B1FEF713F80FB000BD7047000068
:1028900070B504462168096921F44051E26811438A
:1028A000226811612269A1681143626941EA020547
:1028B0002168C96841F20C62914329432268D160C2
:1028C0002168496921F44071A2691143226851616C
:1028D0002D4A2168914202D1FEF7A6FE01E0FEF7E3
:1028E00093FE00EBC00101EB001162689200B1FBA6
:1028F000F2F100EBC00202EB001263689B00B2FB36
:10290000F3F26423B2FBF3F202EBC20303EB021215
:10291000A1EB8201322202EB01116422B1FBF2F140
:1029200001F0F00100EBC00202EB001263689B00B3
:10293000B2FBF3F26423B2FBF3F201EB021200EB01
:10294000C00101EB001163689B00B1FBF3F100EBE8
:10295000C00303EB00136668B600B3FBF6F364260E
:10296000B3FBF6F303EBC30606EB0313A1EB830102
:10297000322303EB01116423B1FBF3F101F00F01EA
:1029800011442268916070BD0038014000BFFEE72D
:1029900002480068C0F30220704700000CED00E020
:1029A00010B5002804DB0A07130E054A135406E08D
:1029B0000A07140E034A00F00F031B1FD45410BD66
:1029C00000E400E018ED00E002E008C8121F08C1B2
:1029D000002AFAD170477047002001E001C1121FA0
:1029E000002AFBD1704700000149086070470000D1
:1029F000B8000020014631B1012907D0022908D0D2
:102A000003290CD108E04FF0625070474FF064503A
:102A1000FBE74FF06650F8E74FF06850F5E700200D
:102A2000F3E70000014631B1012906D0022906D0A2
:102A3000032908D105E0054870470548FCE705482B
:102A4000FAE70548F8E70020F6E700000000FA3B47
:102A500000007A3C0000FA3C00007A3D014611B1CA
:102A6000012904D101E0034870470348FCE7002036
:102A7000FAE70000FFEBBF40FFEBBF3F1CB5FEF7DE
:102A800041FCFFF7D0FEFFF749FEFFF773FEFFF7AB
:102A90008FFE022000210B460A46CDE900100648B1
:102AA000FFF76AFB0120FFF79FFC002000F006F80B
:102AB00001E0FFF7AFFDFCE7D80000202DE9F0476B
:102AC0008246164880F800A015480068FDF7A5FD6D
:102AD00006460F460020134900F02CF88046324687
:102AE0003B46FDF7B0FC0446FDF7AAFD0E49086021
:102AF0000E480068FDF791FD04460D460020094987
:102B000000F018F8064622462B46FDF79CFC80464E
:102B1000FDF796FD06490860BDE8F087A800002093
:102B2000680000200000E83F700000206C000020DA
:102B3000740000202DE9F04106460F46FDF751FED6
:102B4000041E0D4618BF0120284320F00040C0F1AC
:102B50007F6000F1E040C00F0ED0301C18BF012094
:102B6000384320F00040C0F17F6000F1E040C00F2A
:102B700004BF0120FFF738FF20462946BDE8F08159
:102B8000000000000000000001020304060708091D
:102B90000000000001020304B82B00080000002020
:102BA000BC000000C8290008742C0008BC000020EC
:102BB0003C050000D82900080000000010000000BB
:102BC000010000000024F40071736818480600003A
:102BD000000000000000000000000000FFEBBF420A
:102BE0003BB10DC3FFF08F44ABAAB242095EB33EC6
:102BF000E838EE40F62894408300004000000000D2
:102C0000000000000000803F000000000000000005
:102C100000000000030100000000000000000000B0
:102C2000C2B8323F000000000000000000000000B9
:102C30000000F041000000000000803F00000000A4
:102C40000000000000000000000000000000000084
:102C50000000000000000000000000000000000074
:102C60003200000000000000000000000000000032
:042C70000000000060
:04000005080000ED02
:00000001FF
