:020000040800F2
:10000000108B0020D9010008DD570008194B0008AB
:10001000D9570008511600080169000800000000C7
:10002000000000000000000000000000F164000873
:100030005D1C00080000000011580008156500084C
:10004000F3010008F3010008F3010008F3010008C0
:10005000F3010008F3010008F3010008F3010008B0
:10006000F3010008F3010008F3010008F3010008A0
:10007000F3010008F3010008F3010008F301000890
:10008000F3010008F3010008F3010008F301000880
:10009000F3010008F3010008F3010008611C0008E7
:1000A000F3010008F3010008F301000835660008B9
:1000B000F3010008F3010008F3010008F301000850
:1000C000F3010008F3010008F3010008F301000840
:1000D000F3010008F3010008F3010008F301000830
:1000E000F3010008F3010008F3010008F301000820
:1000F000F3010008F3010008F3010008F301000810
:10010000F3010008F3010008F3010008F3010008FF
:10011000F3010008F301000845660008F301000838
:10012000F3010008F3010008F3010008F3010008DF
:10013000F30100080000000000000000F3010008C7
:10014000F3010008F3010008F3010008F3010008BF
:10015000F3010008F3010008F3010008F3010008AF
:10016000F3010008F3010008F3010008F30100089F
:10017000F3010008F3010008F3010008000000008B
:1001800000000000F3010008000000000000000073
:10019000F30100080000000000000000F301000867
:1001A000000000000000000000000000F301000853
:1001B000F3010008F3010008F3010008F30100084F
:1001C000F3010008DFF80CD000F026FB00480047E0
:1001D000D16C0008108B0020064880470648004775
:1001E000FEE7FEE7FEE7FEE7FEE7FEE7FEE7FEE7E7
:1001F000FEE7FEE719660008C50100082DE9F05F7B
:100200000546002092469B46884606468146402485
:100210001BE0284641464746224600F047FA53462F
:100220005A46C01A914110D311461846224600F092
:100230002EFA2D1A67EB01084F46224601200021B5
:1002400000F025FA17EB00094E41201EA4F101042D
:10025000DFDC484631462A464346BDE8F09F40EA87
:1002600001039B0703D009E008C9121F08C0042A34
:10027000FAD203E011F8013B00F8013B521EF9D21B
:100280007047D2B201E000F8012B491EFBD2704743
:100290000022F6E710B513460A4604461946FFF752
:1002A000F0FF204610BD2DE9FE4F804681EA030095
:1002B000C00F0C46009021F0004123F00045B8EB40
:1002C0000200A94105D24046214690461C460B46F5
:1002D000024623F00040104347D0270DC7F30A0021
:1002E000C3F30A510290401A019040286BDAC3F31D
:1002F000130040F4801B0098924620B10023D2EBFB
:10030000030A63EB0B0B01985946C0F140025046BB
:1003100000F0BDF906460D4650465946019A00F0D8
:10032000D5F910EB08006141002487EA115284EAF4
:10033000E7731A4340D0009A62B3019A012A4FEA48
:10034000075215DC001B61EB02014FF0004202EA8C
:100350000752CDE90042001C41F5801132462B4680
:1003600000F00CFA03B0BDE8F08F40462146F9E7F3
:10037000001B61EB0201001C41F5801300185B417A
:100380002018A2F5001747EB030140EAD570B61913
:100390006D4111E06D084FEA360645EAC0754FEA37
:1003A0000752001B61EB0201001C41F58011490856
:1003B0004FEA30000019514132462B4603B0BDE8E8
:1003C000F04F00F0CCB90098012240000023D0EBA0
:1003D000020263EBE073009821464FEAE074B8EB49
:1003E000000061EB0401E9E783F000435BE781F083
:1003F000004158E72DE9FE4F81EA030404F0004470
:1004000021F0004100944FF0000B23F0004350EA2C
:1004100001045ED052EA03045BD0C3F30A54C1F373
:100420000A552C44A4F2F3340194A0FB0254C1F306
:10043000130141F48011C3F3130343F4801301FB50
:10044000024400FB034E840A970A44EA815447EAB7
:100450008357A4FB076802958D0A05FB07854FEAC1
:10046000932C04FB0C542705029D4FEA065847EADB
:100470001637B5EB08056EEB070C870E920E47EAB0
:10048000811742EA8312A7FB0201B6EB0B0164EB72
:1004900000042B0D43EA0C335E1844EB1C50DA4683
:1004A0005146E7FB0201C5F313044FEA0B3343EA5D
:1004B00014534FEA0432019C43EA0603A4F10C04EE
:1004C0000294009CCDE900B400F058F903B0BDE8F7
:1004D000F08F00200146F9E72DE9F04D81EA030491
:1004E00004F0004B21F0004514464FF0000A23F0C1
:1004F000004150EA050220D054EA01021DD0C5F3A4
:100500000A570246C5F31303C1F31300C1F30A5699
:1005100040F4801543F48013A7EB0608101BD64661
:1005200008F2FD3873EB050002D308F1010801E081
:1005300092185B41B8F1000F03DA00200146BDE8D4
:10054000F08D00204FF48011064684460EE0171B04
:1005500073EB050705D3121B63EB050306434CEA57
:10056000010C49084FEA300092185B4150EA01073C
:10057000EDD152EA030012D082EA040083EA0501B9
:10058000084305D0101BAB4106D20122002306E030
:1005900000224FF0004302E06FF0010253101AEB0B
:1005A00006004CEB085110EB0A0041EB0B01BDE8D3
:1005B000F04D00F0D4B80EB5C10F80EAE0700844E9
:1005C000CA07002140F233438DE80E000A460B466D
:1005D00000F0D4F803B000BD0EB540F233410291F3
:1005E0000021CDE900110A460B4600F0C7F803B020
:1005F00000BD70B5C1F30A5201F000450024C1F3FB
:10060000130140F2FF3341F480119A4201DA0020D5
:1006100070BD40F233439A42A2F2334203DC5242AD
:1006200000F044F800E090402C43F1D0404270BD0F
:1006300000F0004230F000400AD0C10D01F56071B9
:10064000C0F3160042EA0151C20840071143704747
:1006500000200146704701F0004330B421F0004112
:1006600050EA010206D00A0DA2F56072C1F313012F
:10067000002A02DC30BC00207047440F44EAC10469
:10068000C100E01830BC00EBC25000F031B8202AA5
:1006900004DB203A00FA02F1002070479140C2F1D9
:1006A000200320FA03F3194390407047202A04DB0B
:1006B000203A21FA02F00021704721FA02F3D040DB
:1006C000C2F120029140084319467047202A06DBF8
:1006D000CB17203A41FA02F043EAE07306E041FA10
:1006E00002F3D040C2F120029140084319467047FE
:1006F0000029A8BF7047401C490008BF20F0010036
:10070000704710B4B0FA80FC00FA0CF050EA010413
:1007100004BF10BC704749B1CCF1200421FA04F4A5
:1007200011FA0CF118BF012121430843A3EB0C017E
:10073000CB1D4FEA00614FEA102042BF002010BCE1
:10074000704700EBC35010440029A4BF10BC704791
:10075000401C490008BF20F0010010BC704710B5D4
:10076000141E73F1000408DA401C41F100019218D4
:100770005B411A4301D120F0010010BD2DE9F04D7D
:1007800092469B4611B1B1FA81F202E0B0FA80F2D2
:1007900020329046FFF77BFF04460F4640EA0A00EE
:1007A00041EA0B0153465A46084313D0114653EA17
:1007B000010019D0C8F140025046FFF777FF054607
:1007C0000E46504659464246FFF761FF084305D0A2
:1007D000012004E020463946BDE8F08D00200543A5
:1007E00046EAE0762C4337430A986305E40AA0EB17
:1007F00008000022FD0A44EA47540A3002D50020CE
:100800000146E9E7010510196941DDE908450019CC
:100810006941BDE8F04DA2E7064C074D06E0E068EF
:1008200040F0010394E8070098471034AC42F6D337
:10083000FFF7CCFC7CA100089CA100080146806B5E
:10084000036C026C13F0500F07D0D20648BF01F0C2
:1008500031BB806BC26C0846104742F400710164E2
:1008600001688A6812F0405F19D1027EBAB9CA6A7B
:1008700012F4700F02D08A68520510D44A6822F030
:1008800020024A60016C21F480710164016CC9048A
:1008900048BF01F00BBB016C41F00101016401F0A4
:1008A00005BB0000806B40210164416C41F00401F4
:1008B000416401F0FFBA0000806B01F0F9BA00005A
:1008C00010B542F20432C4F20102116821F4403141
:1008D0001160D2F800C090E80A4043EA0C03C468F3
:1008E00013604A6822F480724A6002694B6843EAE6
:1008F00002224A604A6822F040724A604A6842EA2C
:100900000E024A608A6822F400628A608A68224382
:100910008A60826A8B68012423F070638B608B6825
:10092000C0F60074A24202D123F0405208E01A43FC
:100930008A608A6822F040528A60C26A8B681A43D1
:100940008A608A6822F002028A608A68037E90F8D0
:10095000204042EA43028A604A6884B142F400625D
:100960004A604A684EF2000322F460424A60426ADA
:10097000CFF6FF734C6803EB4232224301E022F4CE
:1009800000624A60CA6A40F2000C22F47002CA6235
:10099000C3694269CFF6F07CCC6A0CEB0353234366
:1009A000CB628B6823F400738B6090F830008B6807
:1009B00043EA40208860886820F480608860886806
:1009C00040EA8220886010BD70B598B001468DF86D
:1009D0005F0000208DF85E0040F24812C2F2000273
:1009E000126840F23023C2F200031B78EC464FF04D
:1009F000FF3ECCF808E04FF0010ECCF804E00DF11A
:100A00005D04CCF800401690104615911946169AD0
:100A1000734601F07BFFFFE79DF85D00A02839D009
:100A2000FFE70020C4F20200082100221490139175
:100A3000129201F08DFE4FF47A70119001F09EFD3C
:100A400001201499109008461399109A01F080FE25
:100A5000119801F093FD40F24810C2F200000068C6
:100A600040F23021C2F2000109786A464FF0FF33AC
:100A70009360109B53600DF15D0CC2F800C0129A98
:100A800001F044FF40F2E401C2F200010A780132B1
:100A90000A70C1E7002000F02DFC20208DF85E00D8
:100AA00040F24810C2F20000006840F23021C2F269
:100AB000000109786A464FF0FF33936001235360C9
:100AC0000DF15E0CC2F800C03F2202F029F81E2191
:100AD0000F90084601F052FD50208DF85D00FFE7B1
:100AE0009DF85D00A0281DD0FFE740F24810C2F23B
:100AF0000000006840F23021C2F2000109786A4625
:100B00004FF0FF339360012353600DF15D0CC2F889
:100B100000C0002201F0FAFE0A210E90084601F002
:100B20002DFDDDE7322001F029FD00208DF85C006D
:100B300040F24811C2F200010A6840F23023C2F2CA
:100B4000000393F800C0EE464FF0FF34CEF80840A3
:100B50000125CEF8045017AECEF800604FF03E0EDF
:100B60000D9010460C91614672460B932B460A94E9
:100B7000099501F0D5FF0A2108900846079101F078
:100B8000FDFC0D988DF85E000C9908680B9A1178A1
:100B90006B46DDF828C0C3F808C0DDF824E0C3F8D0
:100BA00004E00DF15E041C6007227346069401F018
:100BB000B7FF0D998DF85E100C9A1368DDF82CC004
:100BC0009CF80010EE460A9CCEF80840099DCEF82D
:100BD0000450069ECEF800603F22059018462B4632
:100BE00001F09EFF07990490084601F0C7FC9DF8AC
:100BF0005F0000F07FFB142001F0C0FC18B070BD56
:100C000080B588B0079006910592049340F2481091
:100C1000C2F20000006840F23021C2F200010978FF
:100C20006A464FF0FF339360012353600DF10F0CC0
:100C3000C2F800C0352201F069FE0799002906D0EC
:100C4000FFE79DF80F00800907990870FFE70698F5
:100C5000002807D0FFE79DF80F00C0F301100699A8
:100C60000870FFE70598002807D0FFE79DF80F0000
:100C7000C0F3810005990870FFE70498002807D0A9
:100C8000FFE79DF80F0000F0030004990870FFE7EC
:100C900008B080BD0000000080B590B00F9000202B
:100CA0000E900D90ADF82C00ADF82E00ADF8300090
:100CB000ADF8320040F24811C2F20001096840F27A
:100CC0003022C2F2000212786B464FF0FF3CC3F8AC
:100CD00008C04FF0080CC3F804C00DF1340CC3F881
:100CE00000C020234FF0010C0790084611461A4619
:100CF000634601F00BFE9DF834109DF8352041EA63
:100D00000221ADF82C109DF836109DF8372041EAED
:100D10000221ADF832109DF838109DF8392041EAD3
:100D20000221ADF830109DF83A109DF83B2041EAC1
:100D30000221ADF82E100021C3F610710991079918
:100D40000891BDF92C2006901046FFF734FC41ECC9
:100D5000100B51EC100B9FED220B53EC102B059256
:100D60000493FFF747FB41EC100B0F9880ED000B4D
:100D7000BDF93200FFF71FFC41EC100B51EC100BDA
:100D8000059A049BFFF736FB41EC100B0F9880EDA2
:100D9000020BBDF93000FFF70EFC41EC100B51ECDB
:100DA000100B059A049BFFF725FB41EC100B0F98E5
:100DB00080ED040BBDF92E00FFF7FDFB41EC100B9D
:100DC00051EC100B059A049BFFF714FB41EC100B40
:100DD0000F9880ED060B10B080BD00BF00BF00BFB4
:100DE000000000000000103F80B586B040F24810BF
:100DF000C2F20000006840F23021C2F2000109781E
:100E00006A464FF0FF339360012353600DF1170CD6
:100E1000C2F800C0342201F079FD9DF9171004904A
:100E2000084606B080BD000080B598B002468DF837
:100E30005F0016910020ADF854001490ADF84A0000
:100E4000ADF84C00ADF84E0040F24810C2F2000080
:100E5000006840F23021C2F2000109789DF85F304D
:100E6000EC464FF0FF3ECCF808E04FF0060ECCF811
:100E700004E00DF1500ECCF800E04FF0010C11929F
:100E80001A46634601F042FD9DF850109DF851202E
:100E900041EA0221ADF84E109DF852109DF8532002
:100EA00041EA0221ADF84C109DF854109DF85520F0
:100EB00041EA0221ADF84A109DF85F1008390A4650
:100EC0002629109200F27A811099DFE811F0CF0004
:100ED00077017701770177017701270077017701A3
:100EE0007701770177015F0077017701770177015B
:100EF0007701970077017701770177017701770113
:100F00007701770177017701770177017701070191
:100F1000770177017701770177013F01BDF94E0035
:100F2000FFF749FB41EC100B51EC100B9FEDA60BAA
:100F300053EC102B0F920E93FFF7CEFA41EC100BEF
:100F4000169880ED000BBDF94C00FFF734FB41EC27
:100F5000100B51EC100B0F9A0E9BFFF7BDFA41ECF2
:100F6000100B169880ED020BBDF94A00FFF723FB2A
:100F700041EC100B51EC100B0F9A0E9BFFF7ACFAE3
:100F800041EC100B169880ED040B17E1BDF94E00F3
:100F9000FFF711FB41EC100B51EC100B9FED8A0B8E
:100FA00053EC102B0D920C93FFF796FA41EC100BBB
:100FB000169880ED000BBDF94C00FFF7FCFA41ECF0
:100FC000100B51EC100B0D9A0C9BFFF785FA41ECBE
:100FD000100B169880ED020BBDF94A00FFF7EBFAF3
:100FE00041EC100B51EC100B0D9A0C9BFFF774FAAF
:100FF00041EC100B169880ED040BDFE0BDF94E00BC
:10100000FFF7D9FA41EC100B51EC100B9FED6E0B72
:1010100053EC102B0B920A93FFF75EFA41EC100B86
:10102000169880ED000BBDF94C00FFF7C4FA41ECB7
:10103000100B51EC100B0B9A0A9BFFF74DFA41EC89
:10104000100B169880ED020BBDF94A00FFF7B3FABA
:1010500041EC100B51EC100B0B9A0A9BFFF73CFA7A
:1010600041EC100B169880ED040BA7E0BDF94E0083
:10107000FFF7A1FA41EC100B51EC100B9FED500B58
:1010800053EC102B09920893FFF726FA41EC100B52
:10109000169880ED000BBDF94C00FFF78CFA41EC7F
:1010A000100B51EC100B099A089BFFF715FA41EC55
:1010B000100B169880ED020BBDF94A00FFF77BFA82
:1010C00041EC100B51EC100B099A089BFFF704FA46
:1010D00041EC100B169880ED040B6FE0BDF94E004B
:1010E000FFF769FA41EC100B51EC100B9FED340B3C
:1010F00053EC102B07920693FFF7EEF941EC100B1F
:10110000169880ED000BBDF94C00FFF754FA41EC46
:10111000100B51EC100B079A069BFFF7DDF941EC21
:10112000100B169880ED020BBDF94A00FFF743FA49
:1011300041EC100B51EC100B079A069BFFF7CCF912
:1011400041EC100B169880ED040B37E0BDF94E0012
:10115000FFF731FA41EC100B51EC100B9FED180B1F
:1011600053EC102B05920493FFF7B6F941EC100BEA
:10117000169880ED000BBDF94C00FFF71CFA41EC0E
:10118000100B51EC100B059A049BFFF7A5F941ECED
:10119000100B169880ED020BBDF94A00FFF70BFA11
:1011A00041EC100B51EC100B059A049BFFF794F9DE
:1011B00041EC100B169880ED040BFFE718B080BDD2
:1011C0000000000000005940000000000000304016
:1011D00083B01346029001918DF80320019840F2EC
:1011E0003421C2F2000108609DF8030040F2302172
:1011F000C2F200010870029840F24811C2F20001E8
:10120000086003B07047000080B586B001468DF8D5
:10121000170040F23120C2F2000000788DF816006D
:1012200000200490039100F065F8192001F0A6F960
:1012300004988DF8150040F24811C2F200010868C8
:1012400040F23021C2F2000109786A464FF0FF33C4
:101250009360012353600DF1150CC2F800C0072202
:1012600001F05EFC9DF8171000291BD0FFE78020DD
:101270008DF8150040F24810C2F20000006840F2FC
:101280003021C2F2000109786A464FF0FF339360C3
:10129000012353600DF1150CC2F800C03F2201F08C
:1012A0003FFC1AE000208DF8150040F24810C2F211
:1012B0000000006840F23021C2F2000109786A465D
:1012C0004FF0FF339360012353600DF1150CC2F80A
:1012D00000C03F2201F024FCFFE70A2001F04EF994
:1012E0009DF8160000F006F8142001F047F906B04A
:1012F00080BD000080B586B001468DF817009DF8CE
:10130000170040F23122C2F20002107040F2481081
:10131000C2F20000006840F23023C2F200031B78E2
:10132000EC464FF0FF3ECCF808E04FF0010ECCF851
:1013300004E0CCF800203D2204911946734601F0E8
:10134000EFFB1E210390084601F018F906B080BD9E
:1013500080B58EB08DED0D0ACDED0C0A8DED0B1A1A
:10136000CDED0A1A09909DED0C0A9DED0B1A20EEA9
:10137000010A9DED0D1A9DED0A2A21EE021A30EEAA
:10138000010A30EE000A8DED080A9DED0D0A20EEEF
:10139000000A9DED0C1A21EE011A30EE010A9DEDB6
:1013A0000B1A21EE011A30EE410A9DED0A1A21EEC8
:1013B000011A30EE410A8DED070A9DED0D0A9DEDF3
:1013C0000C1A20EE010A9DED0B1A9DED0A2A21EE62
:1013D000021A30EE010A30EE000A8DED060A9DED8C
:1013E0000C0A9DED0A1A20EE010A9DED0D1A9DEDE5
:1013F0000B2A21EE021A30EE410A30EE000A8DED82
:10140000050A9DED0D0A20EE000A9DED0C1A21EE55
:10141000011A30EE410A9DED0B1A21EE011A30EE51
:10142000410A9DED0A1A21EE011A30EE010A8DEDF6
:10143000040A9DED060ADDED040A08F0C7FC40F23F
:101440004420C2F2000080ED000A9DED050A0390E1
:1014500008F026FCB1EE400A039880ED010A9DEDEC
:10146000080ADDED070A08F0B1FC039880ED020AD6
:101470000068FFF7DDF841EC130B51EC130B9FED07
:101480003C3B53EC132B02920193FEF7B3FF41EC6C
:10149000130B51EC130BFFF7DEF803990860486853
:1014A000FFF7C6F841EC130B51EC130B029A019BAA
:1014B000FEF7A0FF41EC130B51EC130BFFF7CBF839
:1014C000039948608868FFF7B3F841EC130B51ECBF
:1014D000130B029A019BFEF78DFF41EC130B51ECAD
:1014E000130BFFF7B8F80399886091ED020A9FED9E
:1014F000221AB4EEC10AF1EE10FA0DDBFFE740F25A
:101500004420C2F2000090ED020A9FED1E1A30EE58
:10151000010A80ED020A1CE040F24420C2F2000001
:1015200090ED020A9FED151AB4EEC10AF1EE10FA21
:101530000DDAFFE740F24420C2F2000090ED020A0B
:101540009FED0F1A30EE010A80ED020A00E0FFE77E
:10155000FFE740F24420C2F200000168099A1160DE
:101560004168099A51608068099988600EB080BD11
:10157000E5BF631ADCA54C4000003443000034C3CF
:101580000000B4430000B4C3014640F27430C2F21C
:10159000000002F0ADBA000080B540F27430C2F233
:1015A000000002F0B7FA043818BF012080BD000027
:1015B00010B500F01DF8012809D140F27430C2F2D4
:1015C000000002F0B9FA044620B1204610BD012403
:1015D000204610BD40F27430C2F200004FF40061AA
:1015E00002F07EF9002818BF0124204610BD00003B
:1015F00081B001208DF803009DF8030001B0704711
:1016000080B582B09C4613460A46014640F27430CB
:10161000C2F20000CDF800C002F0A2FB002818BF03
:10162000012002B080BD000080B582B09C46134608
:101630000A46014640F27430C2F20000CDF800C004
:1016400002F07EFC002818BF012002B080BD00001F
:10165000FFE7FEE70000000080B58CB03220059067
:10166000002004908DF80F00FFE79DF80F0002287E
:1016700032DCFFE79DF80F0040F20801C2F20001E2
:1016800001EBC00191ED000B52EC101B9FED3E0BE6
:101690005CEC103B0290084611461A466346FEF782
:1016A00002FE41EC100B51EC100B9FED390B53EC8B
:1016B000102BFEF79FFE41EC100B51EC100BFEF7C8
:1016C000CAFF09A9029A41F82200FFE79DF80F001E
:1016D00001308DF80F00C8E700208DF80E00FFE7FD
:1016E0009DF80E00022824DCFFE79DF80E0009A9F2
:1016F00001EB800292ED000ABDEEC00A10EE102A46
:101700000DF11E0303F810209DF80E0001EB80017F
:1017100091ED000ABDEEC00A10EE101A090A03EBA3
:1017200040004170FFE79DF80E0001308DF80E007B
:10173000D6E740F29820C2F2000040F28401C2F2E3
:1017400000010DF11E0206AB00F020FD019001F03A
:1017500005F80490FFE7069940F29820C2F20000D5
:1017600000F0E6FD01280AD1FFE700F0F7FF049939
:10177000401A0599884201D3FFE700E0EBE70CB07F
:1017800080BD00BF00BF00BF0000000000807640A9
:10179000000000000000594080B586B0322004905F
:1017A0000020039040F29910C2F2000000788DF8FA
:1017B000080040F25000C2F2000000788DF80900E5
:1017C00040F27010C2F2000000788DF80A0040F27A
:1017D0009410C2F2000000788DF80B0040F29820BF
:1017E000C2F2000040F26C01C2F2000102AA05AB95
:1017F00000F0CCFC019000F0B1FF0390FFE70599E9
:1018000040F29820C2F2000000F092FD01280AD1B7
:10181000FFE700F0A3FF0399401A0499884201D31F
:10182000FFE700E0EBE706B080BD0000000000002D
:1018300080B58CB004A83221059100210491039158
:101840008DF80B100190FFE79DF80B0002281EDCBD
:10185000FFE79DF80B0040F28811C2F2000101EB96
:10186000800191ED000A9FED501A30EE010A9FEDC4
:101870004F1A20EE010A08A901EB800080ED000A52
:10188000FFE79DF80B0001308DF80B00DCE700202E
:101890008DF80A00FFE79DF80A00022823DCFFE725
:1018A0009DF80A0008A901EB800292ED000ABDEE46
:1018B000C00A10EE102A06AB03F810209DF80A00AB
:1018C00001EB800191ED000ABDEEC00A10EE101A86
:1018D000090A03EB40004170FFE79DF80A00013060
:1018E0008DF80A00D7E740F25810C2F2000090EDE0
:1018F000040B9FED291B53EC112B51EC100BFEF741
:10190000D2FC41EC100B51EC100B9FED250B53EC6E
:10191000102BFEF76FFD41EC100B51EC100BFEF796
:101920009AFE0490019890ED002ABDEEC22A12EEB4
:10193000101A8DF81E1090ED002ABDEEC22A12EE8C
:10194000101A090A8DF81F1040F29820C2F2000008
:1019500040F25401C2F2000106AA0BAB00F016FCE3
:10196000009000F0FBFE0390FFE70B9940F29820F7
:10197000C2F2000000F0DCFC01280AD1FFE700F011
:10198000EDFE0399401A0599884201D3FFE700E074
:10199000EBE70CB080BD00BF000000000020AC40B1
:1019A00000000000000024400000B4430000C842D2
:1019B00080B588B0322006900020059040F22200C9
:1019C000C2F200000088B430ADF8120040F23000DE
:1019D000C2F2000090ED000A9FED2D1A20EE010AE0
:1019E0008DED030A40F22800C2F2000001680131C7
:1019F00001609DED030ABDEEC00A10EE101A8DF8CD
:101A000004109DED030ABDEEC00A10EE101A090A7B
:101A10008DF80510BDF812108DF806109DF8131002
:101A20008DF8071001688DF808100168090A8DF813
:101A300009100168090C8DF80A100068000E8DF875
:101A40000B0040F29820C2F2000040F29C01C2F26A
:101A5000000101AA07AB00F099FB009000F07EFEA8
:101A60000590FFE7079940F29820C2F2000000F0CD
:101A70005FFC01280AD1FFE700F070FE0599401ACB
:101A80000699884201D3FFE700E0EBE708B080BD8C
:101A90000000C84280B58AB04AF23C10C0F600008F
:101AA000016840680990089132200490002003905A
:101AB0008DF80B00FFE79DF80B00032817DCFFE70C
:101AC0009DF80B0008A931F8102006AB03F8102090
:101AD0009DF80B0001EB4001497803EB4000417099
:101AE000FFE79DF80B0001308DF80B00E3E740F2B3
:101AF0009820C2F2000040F2CC01C2F2000106AA16
:101B000005AB00F043FB019000F028FE0390FFE7D7
:101B1000059940F29820C2F2000000F009FC01286B
:101B20000AD1FFE700F01AFE0399401A049988428F
:101B300001D3FFE700E0EBE70AB080BD80B586B0D7
:101B4000322003900020029005A81021019004F09B
:101B50006DFC40F29820C2F2000040F2B401C2F2E3
:101B6000000104AB019A00F011FB009000F0F6FDBB
:101B70000290FFE7049940F29820C2F2000000F0C2
:101B8000D7FB01280AD1FFE700F0E8FD0299401ACF
:101B90000399884201D3FFE700E0EBE706B080BD80
:101BA000D0F800C06FF00F024AF6AB2352FA8CF265
:101BB000CAF6AA230146A2FB0330000905A31B5C59
:101BC00040F2FF302CEA00005F2A88BF0430C1E9F0
:101BD0001603704700061016000610168269816A07
:101BE000B2F5005F06D06AB9022912D0012914D0DB
:101BF000D1B90EE0032917D8DFE801F0020B020F7C
:101C00000120704703293CBF012070471CBF002002
:101C10007047C06AC0F300607047C06AA0F1C0702E
:101C2000B0FA80F0400970470020704780B5D0F8C6
:101C300000C0D0F808E0DCF80000BEF1400F20F44E
:101C40008020CCF800000846CCF8043004BF1046D1
:101C50000A46CCF80800CCF80C2080BD7047000084
:101C60007047000080B582B00020ADF80600ADF8E6
:101C7000040040F24C10C2F2000000680068406AA4
:101C8000ADF80600BDF906004FF4B47100FB01F297
:101C900046F2B703CBF20B6352FB03F210FB0120B9
:101CA000010A01EBD070ADF80400BDF90400B328BF
:101CB00006DCFFE7BDF9040010F1B40F08DCFFE714
:101CC0004FF0804004F06AFD0020ADF80400FFE70B
:101CD000BDF904007F2809D0FFE7BDF8040040F2F9
:101CE000E801C2F20001A1F85800FFE702B080BD90
:101CF00081B000900098002807D0FFE7009840F2DC
:101D00004C11C2F20001086000E0FFE701B070472B
:101D100080B540F24C10C2F200000068042102F0CD
:101D200077FB80BD81B0EFF3108072B60090FFE7C3
:101D3000FEE70000002200F001B8000080B540F28C
:101D4000382EC2F2000E9EF80930002B1CBF012075
:101D500080BD9EF80930844600200EF803009EF8EE
:101D600009300EEB8303C3F804C09EF809307344B6
:101D70001A729EF80920531C30328EF809300A700E
:101D800042F63A72A1F80120C87080BD70B581B0EA
:101D90000022009290F83C20012A01D1022148E063
:101DA0000E6801221FFA86FC80F83C204FEA4C02A4
:101DB00012FA86F302680A2E32BF10321E3B0C3232
:101DC0004FF0070E15680EFA03F4A54315608D68F1
:101DD000146805FA03F3234313604968062906D8FB
:101DE000026801EB8101053902F134030AE00C2994
:101DF00001EB8101026887BF413902F12C032339CD
:101E000002F130031F221C688A4024EA02021A6091
:101E10001A680CFA01F1114342F2043E1960C4F24F
:101E2000010E0168AEF54172914205D0002180F8A3
:101E30003C10084601B070BD1221112EC1F2000104
:101E400018BF8E4223D1DEF800208E4222F4800299
:101E5000CEF80020DEF8002042F40002CEF8002088
:101E6000E4D140F22401C2F2000109684DF6836218
:101E7000C4F21B32A1FB0212910C01EB810149005B
:101E8000009100990029D1D000990139F8E7122E6C
:101E9000CCD1DEF8001021F40001CEF80010DEF8FD
:101EA000001041F48001CEF80010BFE77047000039
:101EB0007047000070470000B0B510B30446006CD6
:101EC00030B9204600F020F80020606484F83C001F
:101ED000206C0125C0060FD4206C41F2021188430A
:101EE000023020642046FEF7EBFC00206064206C8A
:101EF00065F3010000252064002084F83C0028469A
:101F0000B0BD01252846B0BD80B58CB00B90002037
:101F10000A9009900890079006900B98006842F28A
:101F20000001C4F20101884240F08080FFE7FFE732
:101F30000020059043F64400C4F20200016841F419
:101F400080710160006800F4807005900598FFE7DB
:101F5000FFE70020049043F63000C4F2020001685D
:101F600041F004010160006800F00400049004984E
:101F7000FFE7FFE70020039043F63000C4F20200C1
:101F8000016841F001010160006800F00100039068
:101F90000398FFE73F200690032007900021089157
:101FA00040F60002C4F2020206AB02901046019114
:101FB0001946009300F0F6FAC420069002980790A4
:101FC000019908910020C4F20200009900F0EAFA99
:101FD00040F2C020C2F2000046F21041C4F20201F9
:101FE0000160019941608160C1604FF480620261CB
:101FF0004FF4805242614FF4804282614FF480720C
:10200000C2610162416200F01BFA002803D0FFE7C1
:10201000FFF788FEFFE7FFE70B9840F2C021C2F20E
:10202000000181630B988863FFE7FFE70CB080BD78
:1020300070B582B004460020019094F83C0001285D
:1020400002D1022002B070BD13460A460120216869
:1020500084F83C008868C00718D188684DF683650D
:1020600040F00100886040F22400C2F200000068E5
:10207000C4F21B35A0FB0505A80C00EB400000BF17
:102080000190019810B101980138F9E78868C005FE
:1020900003D5886820F4807088608D68206CED0717
:1020A00007D140F010002064606C40F001006064D3
:1020B00069E040F20175A84300F58070206448682B
:1020C000400504D5206C012565F30D302064256C96
:1020D0000020ED044FF0000544BF656C25F00605B7
:1020E000656484F83C00A06B40F63D0540F6B90CF1
:1020F000C0F60005C0F6000CC0E90F5C40F6A5056F
:10210000C0F60005C5646FF022050D604D6842F20F
:10211000043645F080654D608D68C4F2010645F4D3
:1021200080758D604C3100F0F7F931682068C90680
:10213000A6F541710AD0884225D14FF60451CFF659
:10214000FF71715811F0405F1DD118E0884212D024
:1021500042F20021C4F20101884209D042F200118A
:10216000C4F2010188420ED13168C9060BD102E0E8
:102170003168C90607D4816811F0405F03D18168D6
:1021800041F080418160002002B070BD10B590F830
:1021900020E0D0F800C0AEF1010EBEF1010FDCF876
:1021A00008E00DD81EF0E05F10D0CEF3016EBEF156
:1021B000030F11D100F1240101204FF4000233E09C
:1021C00000F1240101204FF480222DE000F12401D0
:1021D00001204FF4001227E0012000FA0EF01860F1
:1021E000886818B14B6840EAC30001E00868400500
:1021F000D1E9033403430CEB0E10C0F88031C0F872
:102200008441097D012905D100F5C2710B6843F4B1
:1022100080730B605168C0F88C11126800F5C071B2
:10222000C0F88821002001220B681A430A6010BD03
:10223000B0B5C8B1044690F8200010B9204600F0AF
:1022400087F82068016841F00101016000F086FA1A
:10225000054600BF20684168C90707D100F07EFA33
:10226000401B0B28F6D312E00120B0BD016821F01D
:102270000201016000F072FA054600BF2068416863
:1022800089070DD500F06AFA401B0B28F6D3606A67
:10229000052140F400306062012084F82010B0BDB8
:1022A000217E0268012922F0800308BF42F08003EA
:1022B0000360617E0268012922F0400308BF42F0FA
:1022C00040030360A17E0268012922F0200308BFB9
:1022D00042F020030360E17E0268012942F010030E
:1022E00008BF22F010030360217F0268012922F059
:1022F000080308BF42F008030360617F02680129F8
:1023000022F0040308BF42F004030360D4E901C2D1
:10231000D4E9033561691A432A431143ACF1010240
:102320001143C16100200121606284F82010B0BD1A
:1023300090F82020013A012A84BF002070470068ED
:10234000806800EA8160B0EB816018BF01207047AF
:1023500080B588B007900020069005900490039007
:1023600002900798006846F20041C4F200018842DA
:1023700035D1FFE7FFE70020019043F64000C4F2AB
:102380000200016841F000710160006800F0007017
:1023900001900198FFE7FFE70020009043F630002E
:1023A000C4F20200016841F002010160006800F01F
:1023B000020000900098FFE74FF440700290022066
:1023C000039000200490032005900920069040F21D
:1023D0000040C4F2020002A900F0E4F8FFE708B0F0
:1023E00080BD0000B0B5044690F8200001281DD142
:1023F000022084F820002068016821F001010160BA
:1024000000F0ACF9054600BF20684068C00713D053
:1024100000F0A4F9401B0B28F6D3606A40F40030AA
:102420006062052084F820000120B0BD606A40F49D
:10243000002060620120B0BD00206062B0BD0000DD
:102440002DE9F041044600F089F9C4B105460220A7
:1024500084F835000020216884F83400086820F0F2
:102460000100086026683068C0070BD000F076F9DC
:10247000401B0528F6D903212022032047E0012034
:10248000BDE8F081306848F23F01CFF21001251D10
:1024900000EA010C2ECDD4E9050E41EA0C011143EE
:1024A00019432943D4E90778084340EA0E01606ADA
:1024B0003943042841EA080116D104F128078CCFDA
:1024C00019433943316056F8141F21F0070140EADF
:1024D000010040EA020573B12046FFF77FFB50B1CF
:1024E00001214022012012E0316056F8141F21F032
:1024F000070141EA000520463560FFF751FBE16D19
:102500003F2202FA01F18160002201210020626570
:1025100084F83510BDE8F081B0B5044690F8340079
:10252000012828D00120A56D84F8340094F83500E6
:1025300001281DD1022084F8350000206065204666
:10254000FFF774FBE26D3F23206803FA02F2216C6F
:10255000AA60026842F01602026019B1016841F0F7
:1025600008010160016841F0010101600020B0BD77
:10257000002084F834000220B0BD0000B0B504464D
:1025800000F0ECF8054640F23400C2F2000000789A
:10259000611C18BF044400BF00F0E0F8401BA042DB
:1025A000FAD3B0BD2DE9F04F83B000F13E4202F105
:1025B000FF724FEAB22241F600070192C4F202070D
:1025C00007224FF0010E00254FF000084FF00009E0
:1025D000B84208BF062200920AE000BF09F10109D3
:1025E00008F10408B9F1100F05F1020500F0AC8004
:1025F0000C680EFA09FB14EA0B0AEFD04C6804F0E1
:10260000030CACF1010EBEF1010F17D8032286684E
:1026100002FA05F7CA6826EA0707AA403A43826029
:102620004268C4F3001722EA0B0207FA09F73A439B
:102630004FF0030B42604FF0010E06E0BCF1030FB8
:102640004FF0010E4FF0030B1BD0C2688E680BFADF
:1026500005F7BA4306FA05F73A43BCF1020FC26028
:102660000FD16FF0030202EA5902024408F01C067F
:102670000F23176A03FA06F40B69A743B3403B43E1
:10268000136202684F680BFA05F39A4307F00303DD
:10269000AB401A4317F4403F02609FD000220292E1
:1026A00043F64402C4F202021346126843F60044A1
:1026B00042F480421A601A68C4F2010402F48042B3
:1026C0000292029A29F003024FF608432244CFF601
:1026D000FF739B46D35808F00C070F26BE4023EA31
:1026E000060C019B009E062B38BF1E4606FA07F714
:1026F00047EA0C0342F80B30A2684B6842EA0A072B
:10270000DE0258BF22EA0A0743F60C42A760C4F271
:102710000102944612689E0242EA0A0758BF22EA62
:102720000A07CCF8007062689E0342EA0A0758BFA5
:1027300022EA0A0767602268DB0342EA0A0358BFFD
:1027400022EA0A03236049E703B0BDE8F08F0000E6
:10275000002A08BF090481617047000044F6E010B8
:10276000C2F2000000687047B0B5B0B3044690F8FC
:102770003D0028B9002084F83C00204600F06AFAA9
:10278000242084F83D002068016821F001010160E7
:10279000016841F400410160016821F400410160D9
:1027A00000F070FE48F28041C0F21E0140F60012B7
:1027B00088424FF00001C0F23D02656838BF012138
:1027C000904248F2A1624FF00003C0F2010238BF0C
:1027D0000123954238BF0B460BB10120B0BD4DF629
:1027E0008361C4F21B31A0FB011221684FEA924CB5
:1027F0004B6823F03F0343EA92424A600A6A48F278
:10280000A063C0F201039D4222F03F0313D80CF1F4
:10281000010201386D001A43B0FBF5F00A62CA6983
:1028200001304CF6FF736FF31F3022EA030C0428CB
:1028300098BF04203FE04FF496720CFB02FC44F674
:10284000D352C1F26202ACFB022C012202EB9C12B9
:102850001A430A62CA69A3684CF6FF7C22EA0C0C90
:10286000A0F1010E9BB119206843BEFBF0F00422D9
:10287000013062F31F30000512D09BB1192068436C
:10288000BEFBF0F00422013062F31F3011E005EBD3
:102890004500BEFBF0F001306FF31F300005ECD1B6
:1028A000012008E005EB4500BEFBF0F001306FF3BE
:1028B0001F3040F4004040EA0C00C8610868D4E9C9
:1028C000072320F0C000104318430860886848F2CE
:1028D000FF3204F10C0C90439CE82C101843104379
:1028E0008860C86820F0FF00284340EA0C00C860F8
:1028F000086840F00100086000202021206484F86E
:102900003D10206384F83E00B0BD00002DE9F04387
:1029100083B01F4616460D460446FFF71FFF94F886
:102920003D1020290FD102218146C0F2100120461E
:1029300001221923CDF8009002F01EFA18B994F87C
:102940003C00012803D1022003B0BDE8F08301213F
:10295000226884F83C101368DDE90B080A99DB074C
:1029600003D1136843F001031360136823F4006379
:102970001360222284F83D20402284F83E20002269
:10298000226461626085608D294620850020CFF633
:10299000FF70E062204632463B46CDF80080CDF81D
:1029A000049002F0D3F818B1012003B0BDE8F08321
:1029B000208D022806D0012810D000BB00200290F4
:1029C000206812E02068016821F4806101600168DC
:1029D00041F4006101600021029113E02068016868
:1029E00021F48061016000210291416902918169B5
:1029F00002910299016841F40071016007E0002032
:102A00000290206841690291806902900298208DAD
:102A1000002879D00427C0F201070CE00969017091
:102A2000606A218D01306062481E2085618D013908
:102A30006185010468D085B22046032D0CD8012D94
:102A400025D141464A4602F023FA0028ACD120683D
:102A5000616A00690870E3E741464A4602F018FAE5
:102A60000028A1D12068616A00690870606A228D1F
:102A70000130013A216860622285628D013A6285E7
:102A80004A695207CAD4208D0104D4D13CE03946AA
:102A900000224346CDF8009002F06EF9022D1BD0C3
:102AA00000287FF481AF2068616A0268434622F4FF
:102AB00080620260006900220870606A218D013026
:102AC0006062481E2085608D394601386085204649
:102AD000CDF8009002F050F900287FF465AF20682F
:102AE000616A026842F40072026000690870606AFC
:102AF000411C6162218D226801392185618D013976
:102B00006185116941708BE7202084F83D00002029
:102B100084F83E0084F83C0003B0BDE8F083000078
:102B20002DE9F04383B0994616460F460446FFF759
:102B300015FE94F83D1020290ED102210546C0F261
:102B40001001204601221923009502F015F918B949
:102B500094F83C00012803D1022003B0BDE8F083C3
:102B60000121226884F83C101368DDE90B080A99FA
:102B7000DB0703D1136843F001031360136823F4E8
:102B800000631360212284F83D20402284F83E2017
:102B90000022226461626085608D394620850020B4
:102BA000CFF6FF70E062204632464B46CDF80080FB
:102BB000019502F051F818B1012003B0BDE8F0838F
:102BC000208D58B927E0437802300B616062901E77
:102BD0002085618D0139618500041CD02046414665
:102BE0002A4602F085F9E0B9606A2168034613F8C5
:102BF000012B0A61228D6362571E2785638D3F0476
:102C0000A3F1010363854B6918BF13F00403DAD104
:102C1000208D0004E2D1204641462A4602F07CF88D
:102C200040B1206C0428C7D12068016841F40071CC
:102C30000160C1E72068016841F400710160202053
:102C400084F83D00002084F83E0084F83C0003B086
:102C5000BDE8F08380B588B007900020069005900D
:102C60000490039002900798006845F20041C4F276
:102C70000001884234D1FFE7FFE70020019043F6CE
:102C80003000C4F20200016841F0020101600068F6
:102C900000F0020001900198FFE7C020029012208E
:102CA000039001200490032005900420069040F238
:102CB0000040C4F2020002A9FFF774FCFFE7002005
:102CC000009043F64000C4F20200016841F4001194
:102CD0000160006800F4001000900098FFE7FFE733
:102CE00008B080BD40F2340044F6E011C2F20000AA
:102CF000C2F2000100780A681044086070470000C2
:102D000080B543F60040C4F20200016841F400714E
:102D10000160016841F480610160016841F48071E3
:102D20000160032000F0BCF80F2000F005F800F06F
:102D300063F8002080BD000080B58EB00C900020AC
:102D4000069005900C99362202901046029B019243
:102D50001A4600F095F8019800F090F8FFE700207F
:102D6000039043F64000C4F20200016841F01001F4
:102D70000160006800F0100003900398FFE707A8C7
:102D800004A900F059FB00F07DFB40000690069876
:102D90004DF68361C4F21B31A0FB01014FF0FF32FD
:102DA00002EB9141059140F28841C2F2000141F2EB
:102DB0000002C4F200020A6040F2E732CA60059ADB
:102DC0004A6000220A618A600090084601F0FAF920
:102DD000002809D1FFE740F28840C2F2000001F06C
:102DE00021FA8DF8370003E001208DF83700FFE766
:102DF0009DF837000EB080BD80B586B0FFE700209B
:102E0000059043F64400C4F20200016841F4804199
:102E10000160006800F4804005900598FFE7FFE737
:102E20000020049043F64000C4F20200016841F023
:102E300080510160006800F0805004900498FFE722
:102E40006FF00B00022100220391029200F018F8AB
:102E50006FF00A0001210191029A00F011F86FF061
:102E600009000199029A00F00BF86FF00300039932
:102E7000029A00F005F806B080BD000003F0EEBE37
:102E800070B514460D46064603F0F8FE2946224664
:102E900002F0A6FC01463046BDE8704003F0F6BEE5
:102EA00003F006BF2DE9F04381B00446006843F605
:102EB0008C06C107C4F2020604D14FF00009810755
:102EC0000CD415E03168A26B21F0C0611143316070
:102ED000B2FA82F14FEA5119810709D53168E26BE4
:102EE00021F0C05111433160002A08BF4FF00109A1
:102EF000410704D44FF00008010711D41FE03168E6
:102F0000226B21F4401111433160B2FA82F14FEA91
:102F10005118B2F5801F08BF4FF0010901070ED507
:102F20003168626B21F440011143B2F5800F3160CA
:102F300008BF4FF00109002A08BF4FF001088006C2
:102F400067D50020009056F84C0C47F2000740F07F
:102F5000805046F84C0C56F84C0CC4F2000700F0B8
:102F6000805000900098386840F480703860FFF717
:102F7000F5FB05463868C00505D4FFF7EFFB401B9D
:102F80000228F7D94FE156F81C0C10F4407027D0F6
:102F9000216C01F44071884222D056F81C0C40F696
:102FA0004061C4F24721012220F440700A600022EF
:102FB0000A6046F81C0C56F81C0CC00710D0FFF72E
:102FC000CDFB054641F2883756F81C0C800707D424
:102FD000FFF7C4FB401BB8424FF00300F4D971E186
:102FE000206C56F8841C4FF6FF4300F4407221F425
:102FF000F811C0F6FF730340B2F5407F08BF1943D4
:1030000046F8841C56F81C1C6FF31F30084346F822
:103010001C0C2068C10611D401061AD4410620D424
:10302000C10526D4810531D4410537D4B9F1000F4B
:1030300044D1B0F5006F40F0E1803FE094F85800D3
:1030400040F64061C4F24721C1F8A00320680106A0
:10305000E4D5B168E26C21F440011143B16041064E
:10306000DED5B168A26C21F080611143B160C10569
:10307000D8D5B168626D21F000611143B160B2F141
:10308000006F08BF4FF001088105CDD5B168626CB3
:1030900021F080511143B1604105C7D5B268216D5F
:1030A00022F000520A43B0F5006FB26006D0B9F1C9
:1030B000000F03D1B1F1005F40F0A08040F2680939
:1030C000C4F247290020C9F80000FFF747FB054676
:1030D00056F88C0C000105D5FFF740FB401B022879
:1030E000F6D9A0E02068C10701D0A16B31B18107FA
:1030F00001D5E16B11B1410715D418E056F8081C51
:1031000056F8082CD4E9013501F4403102F0706220
:1031100019436769114341EA851141EA077146F88D
:10312000081C410703D5216BB1F5801F05D00107AD
:103130001FD5616BB1F5800F1BD156F8081C56F8EE
:10314000082CD4E9013701F4403102F0E042194380
:103150002569114341EA871141EA0561D4F828C085
:1031600046F8081C3168ACF1010221F01F0111433F
:10317000316041051FD5216DB1F1005F1BD1271DC5
:1031800056F808CC56F8082CA8CFFF034FF6FF716D
:1031900027EA01014FF0C06702F0E04207EA4C273E
:1031A00007F100771A433A43A1F5803142EA8512CC
:1031B000114346F8081C000510D5271D8FCF40EAA3
:1031C0008110D1034FF6FF729143A1F5803140EA9F
:1031D0000360084340EA077046F8080C0120C9F86C
:1031E0000000FFF7BBFA054656F88C0C000105D429
:1031F000FFF7B4FA401B0228F6D914E0B8F1000F2B
:103200004FF000005ED06827C4F24727B860FFF790
:10321000A5FA054656F88C0C800008D5FFF79EFAF3
:10322000401B0228F6D9032001B0BDE8F0832068D6
:10323000410701D5216B19B101071AD5616BC1B9DD
:1032400056F8041CD4E9062301F44031656A1143A1
:1032500041EA831141EA0561D4F82CC046F8041C08
:1032600031686FF0FF0221F4F85102EB0C22114398
:103270003160C00516D5606DB0F1006F12D156F8FF
:10328000040C226AD4E9061300F07060D2034FF6F2
:10329000FF75AA430843A2F5803240EA8310104329
:1032A00046F8040C0120B860FFF758FA044600BF46
:1032B00056F88C0C800008D4FFF750FA001B032846
:1032C000F6D3032001B0BDE8F083002001B0BDE8D3
:1032D000F08300002DE9F041002800F0A98043F6BA
:1032E0000808C4F202080446D8F8F8030D4600F0B6
:1032F0000F00884208D288F8F853D8F8F80300F095
:103300000F00A84240F094802068810717D541073C
:1033100005D5D8F8001041F4E051C8F800100107B5
:1033200005D5D8F8001041F46041C8F80010D8F86D
:103330000010A26821F0F0011143C8F80010C00786
:1033400036D06068811E022907D258F8081C89010E
:103350005CBF0120BDE8F0810DE0012807D158F8DD
:10336000081C89035CBF0120BDE8F08103E058F828
:10337000081C89075CD5D8F8001021F00301084328
:10338000C8F80000FFF7EAF9064641F2883700BFA7
:10339000D8F80000616800F00C00B0EB810F07D096
:1033A000FFF7DCF9801BB842F2D90320BDE8F081B9
:1033B000D8F8F80300F00F00A84207D988F8F853AE
:1033C000D8F8F80300F00F00A84231D12068410777
:1033D00007D5D8F80010E26821F4E0511143C8F88D
:1033E0000010000708D5D8F80000216920F46040DB
:1033F00040EAC100C8F8000000F056F8D8F8001004
:103400004AF20E12C1F30311C0F60002515C40F201
:10341000240220FA01F140F23800C2F200000068F4
:10342000C2F200021160FFF787FC0020BDE8F081C6
:103430000120BDE8F08100000F22026043F608027F
:10344000C4F20202136803F003034360136803F03D
:10345000F0038360136803F4E053C360D2F800C044
:103460004FF4E05303EADC030361D2F8F80300F001
:103470000F0008607047000040F22400C2F2000014
:103480000068704780B5FFF7F7FF43F60801C4F204
:10349000020109684AF21E12C1F38221C0F600023D
:1034A000515CC84080BD000010B543F60404C4F26E
:1034B00002046068C0F3810142F20040C0F2F400EF
:1034C000DFE801F04102071641F20020C0F27A0065
:1034D00010BD216801F03F02216823684902C3F34F
:1034E000881114D4A1FB00010023FCF787FE15E02E
:1034F000216801F03F02216823684902C3F3881163
:1035000015D4A1FB00010023FCF778FE16E041F280
:103510000020C0F27A004843B0FBF2F0216802229A
:10352000C1F3014102EB4101B0FBF1F010BD41F2EA
:103530000020C0F27A004843B0FBF2F02168C1F3EA
:103540000271B0FBF1F010BD2DE9F04182B000280E
:1035500000F0DF800446007843F60006C007C4F29E
:10356000020637D0B06800F00C0004282BD0B068F9
:1035700000F00C00082802D17068400223D4B06823
:1035800000F00C000C2802D1706840021BD4656862
:10359000B5F5803F07D03068B5F5A02F40F05E81CB
:1035A00040F480203060306840F480303060FFF7B5
:1035B000D5F80546306880030CD4FFF7CFF8401BE0
:1035C0006428F7D9EEE03068800303D560680028EE
:1035D00000F09F80207880073AD5B06810F00C0F7B
:1035E0000FD0B06800F00C00082802D170684002CB
:1035F00007D5B06800F00C000C280AD170684002B2
:1036000007D4306880071CD5E068012840F081802D
:1036100017E0E068002800F0EA800020C4F24720AC
:1036200001210160FFF79AF8054600BF3068800766
:1036300007D4FFF793F8401B02284FF00300F5D999
:103640004AE13068216920F0F80040EAC1003060AA
:103650002078000725D56069002840F20000C4F2F8
:1036600047200ED00121C0F8801EFFF777F80546ED
:10367000706F800715D4FFF771F8401B0228F7D947
:1036800090E00021C0F8801EFFF768F8054600BFF3
:10369000706F800705D5FFF761F8401B0228F7D946
:1036A00080E02078400738D4A569002D00F0138110
:1036B000B06800F00C00082878D1012D29D070687E
:1036C000E16900F480028A4223D1216A00F03F02BE
:1036D0008A421ED147F6C071626A0140B1EB821F77
:1036E00017D1A16A4FF6FF73C903994300F4403222
:1036F000A1F580318A420CD1E16A00F07062B2EB30
:10370000016F06D1216B00F0E040B0EB017F00F0CB
:10371000E280012002B0BDE8F081306C4FF000087B
:10372000C0000CD4CDF80480306C4FF0010840F09C
:1037300080503064306C00F080500190019847F266
:103740000007C4F200073868C00510D4386840F498
:1037500080703860FFF702F8054600BF3868C00582
:1037600005D4FEF7FBFF401B0228F7D91AE0A56835
:10377000012D05D0306F052D4ED140F0040030678B
:10378000306F40F001003067FEF7E8FF054641F278
:10379000883700BF306F800757D4FEF7DFFF401B2C
:1037A000B842F7D9032002B0BDE8F0810027C4F287
:1037B000472700203866FEF7D1FF022D05460BD1C2
:1037C0003068800163D5FEF7C9FF401B02284FF027
:1037D0000300F5D980E000BF306880017BD5FEF79B
:1037E000BDFF401B02284FF00300F5D974E0002014
:1037F000C4F2472000210160FEF7B0FF054600BF7C
:10380000306880077FF524AFFEF7A8FF401B022831
:103810004FF00300F4D95FE020F001003067306F13
:1038200020F004003067FEF799FF002D0546AED169
:1038300041F28837306F800707D5FEF78FFF401BB6
:10384000B8424FF00300F5D946E0B8F1000F3FF45D
:103850002BAF306C20F08050306425E720F48030AE
:103860003060306820F480203060FEF777FF002D54
:1038700005467FF49FAE06E0FEF770FF401B64280C
:103880004FF0030028D830688003F5D4A2E604F195
:103890001C052FCD246B084340EA8210D9034FF654
:1038A000FF729143A1F5803140EA0560084340EA88
:1038B0000470706001203866FEF750FF044600BFB8
:1038C0003068800107D4FEF749FF001B02284FF043
:1038D0000300F5D900E0002002B0BDE8F08100004F
:1038E0002DE9F04184B00446032084F83400606C74
:1038F0000D4603280AD0C5B3B5F5805F06D0B5F5EF
:10390000006F36D1204602F001FD01E04FF08050FB
:10391000A16B40F2FF580843A063A06BC0F24008BF
:1039200030B120680125C0F8388084F8345008E0B0
:1039300094E80F00D4E905678DE8E00001F0BAFFD4
:10394000002520684FF4007102F026F830B121689C
:103950000125C1F83880A16B0843A06301212846E6
:1039600084F8341004B0BDE8F081204602F0A2FCD7
:10397000CEE74FF00060CBE780B5D0E9193ED0F834
:1039800044C09A0F0A70C3F383624A70C3F30162A2
:103990008A701A0CCA701A0A0A714FEA1E524B71C9
:1039A000CA80CEF303420A72CEF3C0324A72CEF31B
:1039B00080328A72CEF34032CA72CEF300320A737A
:1039C0000022BCF1010F4A732DD0BCF1000F40F072
:1039D000808040F6FC72C36E02EA8E0242EA937265
:1039E0000A61C26EC2F3C2630B75C2F302634B7508
:1039F000C2F342538B75C2F38243CB75C2F3C2321A
:103A00000A760A690B7E013203F0070302339A40FB
:103A100042650B7A03F00F0C012303FA0CF3836564
:103A20005B0A5A430FE0B0F86E200EF03F0342EA03
:103A300003420A610A694FF4806303EB82224FF468
:103A40000073C0E91523C2654FF400720266D0E925
:103A50001B20C2F380334B76C2F3C61302F07F0201
:103A60008B76CA76C20F0A77C0F341724A77C0F3E9
:103A700082628A77C0F38352CA77C0F3405281F8DA
:103A80002020002281F82120C0F3004381F8223059
:103A9000C0F3C03381F82330C0F3803381F8243081
:103AA000C0F3403381F82530C0F3003381F826306D
:103AB000C0F3812381F82730C0F30123C0B240084E
:103AC00081F8283081F82900012081F82A00104669
:103AD00080BD016840F2FF52C0F240028A63816BF0
:103AE000012241F08051816380F83420104680BD6E
:103AF00080B500F1440E9EE80C5081E80C10426D38
:103B0000C1E903E2D0E91623C1E90523026E0020D2
:103B1000CA6180BD10B582B004460020019001A9A1
:103B2000204602F0ADFB10B1A16B0843A0630198E1
:103B3000C0F3432002B010BD10B5D0B1044690F8D8
:103B4000340020B900202077204600F05FF80320E1
:103B500084F83400204600F00FF800284FF00100F0
:103B600018BF10BD0021A163216384F83400002038
:103B700010BD012010BD0000F0B583B00446006800
:103B80007621002602910021002200230096019652
:103B900001F090FE4FF00105A8BB48F2A007C4F267
:103BA00025273E60206801F09BFE02203D60FEF765
:103BB000E5FC204602F00CFB30B1012584F83450BE
:103BC000A16B0843A0631EE0204602F083FA30B1E7
:103BD000012584F83450A16B0843A06313E02068EA
:103BE0004FF4007101F0D8FE60B1216840F2FF523D
:103BF000C0F240028A63A16B01250843A06384F8E8
:103C0000345000E00025284603B0F0BD80B5A6B0D2
:103C1000259000202490239022902190209009A8A4
:103C20005C21FCF735FB2598006842F60041C4F2A0
:103C30000101884240F09280FFE74FF44070099004
:103C400000201E901A9009A8FFF72CF9002803D035
:103C5000FFE7FEF767F8FFE7FFE70020089043F66D
:103C60004400C4F20200016841F400610160006890
:103C700000F4006008900898FFE7FFE70020079035
:103C800043F63000C4F20200016841F00201016015
:103C9000006800F0020007900798FFE7FFE70020A8
:103CA000069043F63000C4F20200016841F00401BE
:103CB0000160006800F0040006900698FFE7FFE747
:103CC0000020059043F63000C4F20200016841F084
:103CD00008010160006800F0080005900598FFE702
:103CE000072020900220219000212291032223927C
:103CF0000C23249340F2004CC4F2020C0DF1800E10
:103D0000049060460391714602920193CDF800E061
:103D1000FEF748FC4FF4106020900498219003991E
:103D20002291029A2392019B249340F60000C4F250
:103D300002000099FEF736FC0420209004982190A0
:103D400003992291029A2392019B249340F600400A
:103D5000C4F202000099FEF725FCFFE726B080BD03
:103D60002DE9F04786B09A4615460E460446FEF702
:103D7000F5FC7EB1804694F8340001280ED1002174
:103D8000A163E06D0AEB050282420FD9A06B40F0FF
:103D9000007006E0A06B40F0006002E0A06B40F015
:103DA0000050A063012006B0BDE8F087032084F82E
:103DB0003400626C2068012A4FF0FF32C16218BFE4
:103DC0006D0200924FEA4A22019290224FF00209BE
:103DD0000292CDE9039101276946059701F04AFD5A
:103DE000BAF1020F07D3C4F830902068294601F0D9
:103DF00037FE30B916E027632068294601F04AFEF5
:103E000080B1216840F2FF52C0F240028A63A16B88
:103E10000843A0630120002184F83400216306B028
:103E2000BDE8F087DDF83890019D05E0FEF796FCCF
:103E3000A0EB080048454AD22068426B416B12F45F
:103E4000957F11D1002D18BF11F40040EED0043E33
:103E5000082700BF206801F049FD013F46F8040F24
:103E6000F8D1203D0436E1E7BAF1020F09D311F48D
:103E7000807106D0616C032903D001F0BDFE0028DB
:103E8000BFD12068416B090734D4416B89073AD40C
:103E9000416B890640D42068002D416B18BF11F496
:103EA000001142D001F022FD46F8040B043DFEF75C
:103EB00055FCA0EB08004845EDD3206840F2FF51C7
:103EC000C0F240018163A06B40F00040A1E7206890
:103ED00040F2FF51C0F240018163A06B40F000400E
:103EE000A063012084F8340000202063032006B082
:103EF000BDE8F08740F2FF51C0F240018163A06B42
:103F000040F0080085E740F2FF51C0F240018163B4
:103F1000A06B40F002007CE740F2FF51C0F240018C
:103F20008163A06B40F0200073E740F23A51816357
:103F3000012084F83400002006B0BDE8F0870000BE
:103F40002DE9F04F87B0984615460F460446FEF718
:103F500005FC7FB1824694F8340001280ED100217F
:103F6000A163E06D08EB050282420FD9A06B40F01F
:103F7000007006E0A06B40F0006002E0A06B40F033
:103F80000050A063012007B0BDE8F08F032084F843
:103F90003400626C2068012A4FF0FF32C16218BF02
:103FA0006D0201924FEA482202929022CDE903214C
:103FB00005910121069101A901F05CFCB8F1020F05
:103FC00007D3202020632068294601F031FE38B94C
:103FD00017E0102020632068294601F043FE80B1DD
:103FE000216840F2FF52C0F240028A63A16B08438D
:103FF000A0630120002184F83400216307B0BDE8EC
:10400000F08FDDF84090DDF808B06D4606E000BFA7
:10401000FEF7A4FBA0EB0A00484547D22068426B9C
:10402000416B12F48D7F20D1BBF1000F18BF11F44A
:104030008040EDD0043F082617F8040F00907978EF
:1040400040EA01200090B97840EA01400090F978F8
:1040500040EA016120680091294601F061FC013EBF
:10406000EAD1ABF1200B0437D2E7B8F1020F09D344
:1040700011F4807106D0616C032903D001F0BCFDFE
:104080000028ADD12068416B090720D4416B890716
:1040900026D4416BC9062CD440F23A5181630120E9
:1040A00084F83400002007B0BDE8F08F206840F2AB
:1040B000FF51C0F240018163A06BA063012084F82E
:1040C000340000202063032007B0BDE8F08F40F2E9
:1040D000FF51C0F240018163A06B40F0080087E708
:1040E00040F2FF51C0F240018163A06B40F002003A
:1040F0007EE740F2FF51C0F240018163A06B40F0C7
:10410000100075E7704700007047000010B590F888
:104110003C20012A4FF0020252D0012380F83C30AB
:1041200080F83D200268D2F804E0D2F808C00C689C
:104130002EF07003234341F2FF74C4F20004A24244
:1041400053600BDC40F2FF73C4F200039A4213DCAD
:10415000B2F1804F29D040F2004315E040F2FF3326
:10416000C4F201039A4214DC41F60003C4F20003D6
:104170009A421AD0002314E040F60003C4F2000370
:104180009A4212D040F60043C4F200039A420CD087
:1041900010E044F20003C4F201039A4205D040F259
:1041A0000043C4F201039A4204D149682CF0800311
:1041B000194391600121002280F83D1080F83C20D5
:1041C000104610BD002804BF0120704710B50446FA
:1041D00090F83D0028B9002084F83C00204600F00B
:1041E0001FF8022084F83D002068211D02F032FAF9
:1041F000012084F8460084F83E0084F83F0084F8EB
:10420000400084F8410084F8420084F8430084F8B8
:10421000440084F8450084F83D00002010BD0000F3
:104220007047000090F83D1001291CBF0120704725
:10423000022180F83D10006841F2FF72C168C4F2AB
:104240000002904241F00101C1600FDC40F2FF71B9
:10425000C4F20001884217DCB0F1804F2DD040F24B
:104260000041C4F20001884227D02DE040F2FF3126
:10427000C4F20101884214DC41F60001C4F20001DD
:1042800088421AD0002114E040F60001C4F2000177
:10429000884212D040F60041C4F2000188420CD09E
:1042A00012E044F20001C4F20101884205D040F25C
:1042B0000041C4F20101884206D1816801F0070182
:1042C000062904BF00207047016841F00101016028
:1042D00000207047002804BF012070472DE9F047F7
:1042E000044690F83D000D4628B9002084F83C00B3
:1042F000204600F049F8022084F83D00206844F28E
:104300000702816891438160211D02F0A3F92068B2
:104310004FF6FF7881688269D0F820C0D5E9003E69
:10432000D5E9026A43EA0109AB6922EA080246EAD2
:1043300003234FF6FC46B343D5E9076742EA0A0276
:1043400029691A4342EA062242EA01112CF0AA0224
:104350006B6942EA0E0241EA073142EA0312C0F8F1
:10436000089081610262012084F8460084F83E00D2
:1043700084F83F0084F8420084F8430084F83D004C
:104380000020BDE8F087000080B588B007900020CD
:104390000690059004900390029007980068B0F191
:1043A000804F32D1FFE7FFE70020019043F6400045
:1043B000C4F20200016841F001010160006800F0F0
:1043C000010001900198FFE7FFE70020009043F60D
:1043D0003000C4F20200016841F001010160006890
:1043E00000F0010000900098FFE7032002900220F7
:1043F0000390012004900021059106900020C4F252
:10440000020002A9FEF7CEF8FFE708B080BD000069
:1044100010B5044690F83E0094F83F2094F84230DE
:1044200094F843C004290CD0C1B901284FF0010011
:1044300008BF012B3AD1022084F83E0084F84200E4
:1044400029E0012A4FF0010008BFBCF1010F2DD176
:10445000022084F83F0084F843001AE001284FF05E
:10446000010008BF012A21D1012B1FD1BCF1010F8E
:1044700018BF10BD022084F83E0084F83F0084F885
:10448000420084F8430031B120680021012202F08B
:1044900073F9042100E000212068012202F06CF988
:1044A0002068016841F001010160002010BD00009A
:1044B00080B582B001900198007F012839D1FFE7D3
:1044C00001980068406B40F2C411C2F200014860DC
:1044D00040F2E410C2F20000006840F22C01C2F287
:1044E0000001097844F65022C2F2000204F05EFA9C
:1044F00044F6C421C2F2000108600868002817D001
:10450000FFE7FFE744F65020C2F2000000680028F1
:104510000CD0FFE74EF60450CEF200004FF0805171
:104520000160BFF34F8FBFF36F8FFFE7FFE7FFE738
:10453000FFE70198007F022839D1FFE70198006862
:10454000806B40F2C411C2F20001C86040F2E41076
:10455000C2F20000006840F22C01C2F2000149786A
:1045600044F65022C2F2000204F020FA44F6C421BC
:10457000C2F2000108600868002817D0FFE7FFE7D3
:1045800044F65020C2F20000006800280CD0FFE77B
:104590004EF60450CEF200004FF080510160BFF3A0
:1045A0004F8FBFF36F8FFFE7FFE7FFE7FFE701984C
:1045B000007F042839D1FFE701980068C06B40F202
:1045C000C411C2F20001486140F2E410C2F20000DE
:1045D000006840F22C01C2F20001897844F65022B2
:1045E000C2F2000204F0E2F944F6C421C2F2000172
:1045F00008600868002817D0FFE7FFE744F650205E
:10460000C2F20000006800280CD0FFE74EF604500C
:10461000CEF200004FF080510160BFF34F8FBFF327
:104620006F8FFFE7FFE7FFE7FFE70198007F0828AC
:1046300039D1FFE701980068006C40F2C411C2F262
:104640000001C86140F2E410C2F20000006840F2CC
:104650002C01C2F20001C97844F65022C2F20002D5
:1046600004F0A4F944F6C421C2F20001086008680D
:10467000002817D0FFE7FFE744F65020C2F2000001
:10468000006800280CD0FFE74EF60450CEF2000080
:104690004FF080510160BFF34F8FBFF36F8FFFE783
:1046A000FFE7FFE7FFE702B080BD0000B0B50446BA
:1046B00090F83C00012804BF0220B0BD0D464FEA2F
:1046C000B2010120032984F83C0037D8DFE801F06B
:1046D000020C16242068D5E90012EB6802F066F897
:1046E000206850F8181F12E02068D5E90012EB6826
:1046F00002F0B0F8206850F8181F16E02068D5E9DD
:104700000012EB6802F0C4F8206850F81C1F21F07A
:104710000C010160A9680DE02068D5E90012EB6882
:1047200002F0D0F8206850F81C1F21F440610160AD
:10473000A96809020268114301600020002184F881
:104740003C10B0BD002804BF0120704710B50446DE
:1047500090F83D0028B9002084F83C00204600F085
:104760001FF8022084F83D002068211D01F072FF2F
:10477000012084F8460084F83E0084F83F0084F865
:10478000400084F8410084F8420084F8430084F833
:10479000440084F8450084F83D00002010BD00006E
:1047A00080B58AB009900020089007900690059087
:1047B0000490099800680021C4F2010188423FD1A9
:1047C000FFE7FFE70020039043F64400C4F2020035
:1047D000016841F001010160006800F001000390F0
:1047E0000398FFE7FFE70020029043F63000C4F291
:1047F0000200016841F001010160006800F0010061
:1048000002900298FFE74FF4706004900220059038
:10481000002006900790012108910021C4F20201B6
:1048200004AA019008461146FDF7BCFE1B200B218F
:104830000090019AFEF724FB0098FEF71FFBFFE7AC
:104840000AB080BD10B5044641B108290BD0042937
:104850000ED104F13F0004F143020DE004F13E00EB
:1048600004F1420208E004F1400004F1440203E0D4
:1048700004F1410004F145020078127801284FF05C
:10488000010008BF012A00D010BD022041B1082953
:104890000BD004290ED184F83F0084F843000DE0CA
:1048A00084F83E0084F8420008E084F8400084F870
:1048B000440003E084F8410084F845004FEAB10267
:1048C000032A84BF012010BD206828A353F82220AA
:1048D000C3681A43C260012201F04EFF206841F212
:1048E000FF71C4F2000188420BDC40F2FF71C4F298
:1048F0000001884213DCB0F1804F29D040F2004122
:1049000015E040F2FF31C4F20101884214DC41F6A7
:104910000001C4F2000188421AD0002114E040F6E0
:104920000001C4F20001884212D040F60041C4F2F6
:10493000000188420CD012E044F20001C4F20101EF
:10494000884205D040F20041C4F20101884206D1FC
:10495000816801F00701062904BF002010BD01682D
:1049600041F001010160002010BD00BF0200000005
:1049700004000000080000001000000010B504460C
:1049800000680169890744BFC1685FEA81713FD44B
:1049900020680169490744BFC1685FEA417143D497
:1049A00020680169090744BFC1685FEA017148D402
:1049B00020680169C90644BFC1685FEAC1614CD47F
:1049C00020680169C9071CBFC1685FEAC17151D184
:1049D00020680169090644BFC1685FEA016150D4DB
:1049E00020680169490644BFC1685FEA41614FD44C
:1049F00021680869800646BFC8685FEA806010BD0C
:104A00006FF0200220460A61BDE81040FFF77CBB32
:104A10006FF00201016101212177806980073ED09A
:104A20002046FFF745FD40E06FF0040101610221DF
:104A30002177806910F4407F3AD02046FFF738FD97
:104A40003CE06FF00801016104212177C069800713
:104A500037D02046FFF72CFD39E06FF010010161DF
:104A600008212177C06910F4407F33D02046FFF73A
:104A70001FFD35E06FF001010161204600F038F8BC
:104A8000A6E76FF0800101612046FFF73BFBA7E737
:104A90006FF040010161204600F03CF8A8E7204695
:104AA00000F022F8204600F021F8002020776FE780
:104AB000204600F019F8204600F018F80020207772
:104AC0006EE7204600F010F8204600F00FF80020B6
:104AD00020776DE7204600F007F8204600F006F842
:104AE000002020776CE7000070470000704700004E
:104AF00080B582B001900198006841F20001C4F2D3
:104B00000001884203D1FFE7FEF7ECF8FFE702B0AF
:104B100080BD000070470000FFE7FEE702685169B2
:104B200049054FF000010FD56FF4806353612022D7
:104B3000016380F83D2080F83E10026C42F00402D0
:104B4000026480F83C100121084670472DE9F047C7
:104B500082B0044600680E460168DDF828A041F4E2
:104B6000806101600168DDF82C9041F480711D4680
:104B70001746016020464FF0011100225346CDF840
:104B8000009000F0F9F850B120680068C00544BFFB
:104B90004FF400702064032002B0BDE8F08740F2BB
:104BA00002082068C0F2010806F0FE0606612046F1
:104BB000414652464B4600F01FF948BB0020019089
:104BC00020684A46416901918069514601900198E7
:104BD000204600F08DF998B9012D08D02068390AD7
:104BE0000161204651464A4600F082F940B92068EA
:104BF000F9B20161204651464A4600F079F958B1B0
:104C0000206C042804D12068016841F4007101601F
:104C1000012002B0BDE8F0872068002201685346F9
:104C200041F48071016020464FF00111CDF80090F1
:104C300000F0A2F80028A7D1206846F00101016128
:104C40002046414652464B4600F0D6F8002818BF91
:104C5000012002B0BDE8F0872DE9F04383B004469F
:104C600000680D4601680A9F0B9E41F480719946C9
:104C70009046016020464FF0011100223B4600960D
:104C800000F07AF850B120680068C00544BF4FF4C6
:104C900000702064032003B0BDE8F083206805F0B5
:104CA000FE0101610221C0F2010120463A4633466D
:104CB00000F0A2F818B1012003B0BDE8F083002095
:104CC000029020683246416902918069394602901B
:104CD0000298204600F00CF940B1206C0428EAD17B
:104CE0002068016841F400710160E4E7B9F1010F47
:104CF0000AD020684FEA1821016120463946324621
:104D000000F0F6F80028E8D120685FFA88F1016128
:104D1000002003B0BDE8F083F0B581B00446006820
:104D20004069400724D415460E464F1C04E000BFDE
:104D30002068406940071BD42046FFF7EFFEA0B96A
:104D4000002FF5D0FDF70AFD16B1401BB042EFD998
:104D500000202021206384F83D1084F83E00216C5F
:104D600041F02001216484F83C00012001B0F0BD35
:104D7000002001B0F0BD00002DE9F047DDF82080F3
:104D80009A461646814601F47F078CB25D1C00BF2F
:104D9000D9F800001821B7F5803F08BF142140580A
:104DA000224608BF22461040801AB0FA80F040091F
:104DB000B0421DD1002DEBD0FDF7D0FCBAF1000FB1
:104DC00003D0A0EB08005045E2D900202021C9F80B
:104DD000300089F83D1089F83E00D9F8401041F0C4
:104DE0002001C9F8401089F83C000120BDE8F08797
:104DF0000020BDE8F08700002DE9F04381B098461F
:104E00001646814601F47F078DB2541CD9F8000084
:104E1000B7F5803F14BF816941692940A94218D084
:104E20004169490519D4002CF0D0FDF797FC1EB15B
:104E3000A0EB0800B042E9D900202021C9F83000D9
:104E400089F83D1089F83E00D9F8401041F0200162
:104E500016E0002001B0BDE8F083016841F4007164
:104E600001606FF48061416100202021C9F83000A9
:104E700089F83D1089F83E00D9F8401041F004014E
:104E8000C9F8401089F83C00012001B0BDE8F0836A
:104E900070B515460E46044620684169490613D48C
:104EA0004169C90612D4FDF759FC16B1401BB04246
:104EB000F2D900202021206384F83D1084F83E00C0
:104EC000206C40F020000CE0002070BD6FF010015D
:104ED000416100202021206384F83D1084F83E00C9
:104EE000206C2064002084F83C00012070BD00008C
:104EF000F0B581B0044600684069000624D4154628
:104F00000E464F1C04E000BF2068406900061BD419
:104F10002046FFF703FEA0B9002FF5D0FDF71EFCD9
:104F200016B1401BB042EFD900202021206384F845
:104F30003D1084F83E00216C41F02001216484F88A
:104F40003C00012001B0F0BD002001B0F0BD000028
:104F500080B582B040F22030C2F200004FF0FF3145
:104F60005222FCF735F90C20FBF72EFDFBF73CFF36
:104F70008DF807000120FCF747F902B080BD000062
:104F800080B584B0039040F2E810C2F200000188BE
:104F900040880844400800EE100AB8EEC00A8DEDC3
:104FA000020A9DED020A9FED201A80EE010A30EE02
:104FB000000A10EE100AFBF73BFB41EC120B51EC20
:104FC000120B9FED132B53EC122BFBF713FA41EC52
:104FD000120B51EC120B9FED102B53EC122BFBF725
:104FE00009FA41EC120B51EC120B9FED0D2B53EC17
:104FF000122BFBF7FFF941EC120B51EC120BFBF7F4
:105000002AFB019001980399086004B080BD00BF9D
:10501000EA2E4454FB210940FBCBEEC9C342CD3FED
:10502000CDCCCCCCCCCC0C400000704200000000B9
:1050300080B582B00190019840F25011C2F2000197
:105040000860009103F008FC40F2E411C2F2000194
:105050000860FEF717FA400000990A6852680132AA
:10506000B0FBF2F0FBF7B8FA41EC100B40F278100D
:10507000C2F2000080ED000B90ED000B9FED081BCD
:1050800051EC110B53EC102BFBF726FA41EC100BF3
:1050900040F28010C2F2000080ED000B02B080BD33
:1050A000000000000000F03F80B58AB009904FF486
:1050B000C870069000F018F904F080FA0890FFE735
:1050C00040F2E410C2F20000006806996A461160DE
:1050D0000F210122002303F07BFC07909DF81C00A8
:1050E0000007002800F0D080FFE700208DF81700AF
:1050F000FFE79DF81700032800F3C580FFE7079836
:105100009DF8171040F22C02C2F20002515C0842D6
:1051100000F0B280FFE79DF8170040F2C411C2F220
:10512000000101EBC002526851F83000824213D9ED
:10513000FFE79DF8170040F2C411C2F2000101EB35
:10514000C002526851F83010511A40F2B412C2F243
:10515000000242F8201015E09DF8170040F2C4113B
:10516000C2F2000101EBC00251F830105268511A2E
:105170004FF6FF72114440F2B412C2F2000242F83C
:105180002010FFE79DF8170040F2B411C2F20001B1
:1051900051F8201004900846FBF71EFA41EC100B62
:1051A00040F28010C2F2000090ED001B51EC100B99
:1051B00053EC112BFBF71EF941EC100B40F21020C1
:1051C000C2F20000049900EBC10282ED000B9DF8D1
:1051D000172000EBC20090ED000B53EC100B9FED7D
:1051E0003C0B51EC10CB03906046DDF80CC00292F2
:1051F0006246FBF771F941EC100B40F2F010C2F27D
:105200000000029900EBC10282ED000B9DF817200F
:1052100000EBC20090ED000B51EC100B9FED2E0B3C
:105220005CEC103B01921A466346FBF7E3F841EC55
:10523000100B51EC100B9FED2A0B53EC102BFBF7CE
:105240004BF941EC100B51EC100BFBF7D2F940F28B
:10525000E801C2F20001019A01EB4201A1F84E00FF
:105260009DF8170040F2C411C2F2000101EBC00327
:105270005B6841F83030FFE7FFE79DF81700013029
:105280008DF8170035E71BE000208DF81600FFE7CA
:105290009DF81600032812DCFFE79DF8160040F287
:1052A000E801C2F2000101EB40000021A0F84E101D
:1052B000FFE79DF8160001308DF81600E8E7FFE7DC
:1052C00008A8012103F048F8FAE600BF00BF00BFBC
:1052D000000000000000F03F0000000000004E4011
:1052E000000000000000104080B584B040F2501073
:1052F000C2F2000001680022039008461146FFF741
:10530000A1FA03990A68042102901046FFF79AFA5D
:1053100003990A68082101901046FFF793FA039950
:105320000A680C2100901046FFF78CFA04B080BD8B
:1053300080B584B00020039002900190009040F26C
:105340005021C2F2000142F20002C4F201020A60DE
:105350004860886001220A610A7681F82000C862EC
:105360000123C0F600738B62C8600420C86181F815
:1053700030204A610846FCF79FFD002803D0FFE774
:10538000FCF7D0FCFFE70A200090012001900520E7
:10539000029040F25020C2F200006946FCF7F6FC91
:1053A000002803D0FFE7FCF7BDFCFFE70B200090CF
:1053B0000220019040F25020C2F200006946FCF742
:1053C000E5FC002803D0FFE7FCF7ACFCFFE7062074
:1053D00000900320019040F25020C2F20000694684
:1053E000FCF7D4FC002803D0FFE7FCF79BFCFFE7A9
:1053F000072000900420019040F25020C2F20000EB
:105400006946FCF7C3FC002803D0FFE7FCF78AFCE1
:10541000FFE704B080BD000080B540F29820C2F2E2
:10542000000046F20041C4F2000101600421416025
:1054300000218160C1604FF4602202614FF480124C
:105440004261017641768176C17601774177FCF73A
:10545000EFFE002803D0FFE7FCF764FCFFE780BD08
:1054600081B0FFE70020009043F63000C4F2020054
:10547000016841F480010160006800F48000009040
:105480000098FFE701B0704780B54AF2281040F25B
:105490009511C0F60000C2F20001FCF74BFC40F28F
:1054A000D851C2F20001087080BD000080B592B0F2
:1054B0000020119010900F900E900D90FFE70020AB
:1054C0000C9043F63000C4F20200016841F0040180
:1054D0000160006800F004000C900C98FFE7FFE703
:1054E00000200B9043F63000C4F20200016841F046
:1054F00080010160006800F080000B900B98FFE7CE
:10550000FFE700200A9043F63000C4F20200016871
:1055100041F001010160006800F001000A900A9862
:10552000FFE7FFE70020099043F63000C4F20200D5
:10553000016841F002010160006800F0020009907A
:105540000998FFE7FFE70020089043F63000C4F217
:105550000200016841F008010160006800F00800E5
:1055600008900898FFE70020C4F2020049F2080101
:105570000022079006910592FDF7EAF840F6000038
:10558000C4F202004FF4007104900391059AFDF7F4
:10559000DFF840F20040C4F2020010210290059AA8
:1055A000FDF7D6F820210120029A01901046019AB9
:1055B000FDF7CEF806980D9001990E91059A0F927D
:1055C00010920DAB079819460093FCF7EBFF039878
:1055D0000D9001990E91059A0F92109204980099DE
:1055E000FCF7E0FF30200D9001980E9005990F9187
:1055F000109102980099FCF7D5FF12B080BD000011
:1056000080B540F22030C2F2000045F20041C4F201
:105610000001016041F68021C0F2060141600021D5
:105620008160C1604FF48042026141618161C1616A
:105630000162FDF799F8002803D0FFE7FCF772FB41
:10564000FFE780BD40F27430C2F2000042F6004134
:10565000C4F201010160002141608160C16001610B
:10566000416103218161704780B588B000200790B7
:105670000690059004900390029040F2F831C2F237
:1056800000010022C4F201020A6047224A608860D9
:105690004FF6FF72CA600861486188610846FFF7EB
:1056A00051F8002803D0FFE7FCF73CFBFFE70020A0
:1056B0000690079040F2F830C2F2000006A9FEF70B
:1056C00025FD002803D0FFE7FCF72CFBFFE70020B7
:1056D0000290012103910490059040F2F831C2F24A
:1056E000000102AA019008461146019AFEF7DEFF6A
:1056F000002803D0FFE7FCF715FBFFE740F2F83086
:10570000C2F2000002A90422FEF7D0FF002803D055
:10571000FFE7FCF707FBFFE740F2F830C2F20000BA
:1057200002A90822FEF7C2FF002803D0FFE7FCF71A
:10573000F9FAFFE740F2F830C2F2000002A90C22A9
:10574000FEF7B4FF002803D0FFE7FCF7EBFAFFE712
:1057500008B080BD80B58CB003A824210090FAF772
:1057600097FD00200290019040F24041C2F20001FA
:105770004FF080420A60486088604FF6FF72CA604E
:10578000086180228A61032203920222049201238B
:10579000059306900790089209930A900B9008468B
:1057A0000099FEF797FD002803D0FFE7FCF7BAFA4F
:1057B000FFE700200190029040F24040C2F200005A
:1057C00001A9FEF7A3FC002803D0FFE7FCF7AAFA23
:1057D000FFE70CB080BD0000FFE7FEE7FFE7FEE754
:1057E00000F0070080F00703042B28BF04234FF0CC
:1057F000FF3C03380CFA03F338BF00209943814083
:105800000CFA00F022EA0000084370470000000094
:10581000EFF30980BFF36F8F154B1A681EF0100F5E
:1058200008BF20ED108A20E9F04F10602DE9090033
:105830004FF0500080F31188BFF34F8FBFF36F8F8D
:1058400002F0A8FF4FF0000080F31188BDE80900C6
:1058500019680868B0E8F04F1EF0100F08BFB0ECF0
:10586000108A80F30988BFF36F8F704700BF00BFB5
:10587000D404002080B5024691E80950506293623A
:1058800008694EEA0C0318434969D36A084323F0B8
:10589000F70101430020D16280BD00000069C0B261
:1058A00070470000006800F003007047084440693A
:1058B0007047000010B58446DDE9024011431943EA
:1058C0002143DDF810E00843DCF8041047F6FF62DE
:1058D00040EA0E00914301430020CCF8041010BDB3
:1058E0000146032200200A6070470000D0F88000C3
:1058F0007047000080B5D1E900C30246D1E9020E2D
:10590000C2F808C01843096940EA0E000843D1688C
:1059100040F6FF73994301430020D16080BD000031
:10592000096802460020C2F88010704710B586B0A2
:1059300004463720019102904020039000200490FB
:105940004FF48060059001A92046FFF7D3FF204661
:10595000372141F2883206B0BDE8104000F0B8B9F6
:1059600010B586B0044641F0004040F4801001902C
:105970002920029040200390002004904FF4806082
:10598000059001A92046FFF7B5FF204606B0BDE807
:10599000104000F077BA000010B586B00446102021
:1059A0000191029040200390002004904FF4806009
:1059B000059001A92046FFF79DFF2046102141F2E6
:1059C000883206B0BDE8104000F082B910B586B04C
:1059D000044606200191029040200390002004908C
:1059E0004FF48060059001A92046FFF783FF204611
:1059F000062141F2883206B0BDE8104000F068B9D7
:105A000010B586B004460020CDE90300CDE90100C1
:105A10004FF48060059001A92046FFF76BFF2046F8
:105A200006B0BDE8104000F037B9000010B586B0F0
:105A300004464FF4D5700190082002904020039056
:105A4000002004904FF48060059001A92046FFF7E4
:105A500051FF204606B0BDE8104000F08DBA0000AE
:105A600010B586B0044612200191029040200390A8
:105A7000002004904FF48060059001A92046FFF7B4
:105A800039FF2046122141F2883206B0BDE81040AD
:105A900000F01EB910B586B00446112001910290A5
:105AA00040200390002004904FF48060059001A9ED
:105AB0002046FFF71FFF2046112141F2883206B031
:105AC000BDE8104000F004B910B586B004460720C8
:105AD0000192029040200390002004904FF48060D7
