:020000040800F2
:1000000078040020D9010008E518000889170008C5
:10001000E1180008F50200081D1E0008000000009D
:10002000000000000000000000000000EB180008C5
:10003000D503000800000000E9180008ED180008CA
:10004000F3010008F3010008F3010008F3010008C0
:10005000F3010008F3010008F3010008F3010008B0
:10006000F3010008F3010008F3010008F3010008A0
:10007000F3010008F3010008F3010008F301000890
:10008000F3010008F3010008F3010008F301000880
:10009000F3010008F3010008F3010008F301000870
:1000A000F3010008F3010008F3010008F301000860
:1000B000F3010008F3010008F3010008F301000850
:1000C000F3010008F3010008F3010008F301000840
:1000D000F3010008F3010008F3010008F301000830
:1000E000F3010008F3010008F3010008F301000820
:1000F000F3010008F3010008F3010008F301000810
:10010000F3010008F3010008F3010008F3010008FF
:10011000F3010008F3010008F3010008F3010008EF
:10012000F3010008F3010008F3010008F3010008DF
:10013000F30100080000000000000000F3010008C7
:10014000F3010008F3010008F3010008F3010008BF
:10015000F3010008F3010008F3010008F3010008AF
:10016000F3010008F3010008F3010008F30100089F
:10017000F3010008F3010008F3010008000000008B
:1001800000000000F3010008000000000000000073
:10019000F30100080000000000000000F301000867
:1001A000000000000000000000000000F301000853
:1001B000F3010008F3010008F3010008F30100084F
:1001C000F3010008DFF80CD000F082F80048004787
:1001D000811F000878040020064880470648004731
:1001E000FEE7FEE7FEE7FEE7FEE7FEE7FEE7FEE7E7
:1001F000FEE7FEE7AD190008C50100082DE9F05F34
:100200000546002092469B46884606468146402485
:100210001BE0284641464746224600F048F8534630
:100220005A46C01A914110D311461846224600F092
:100230002FF82D1A67EB01084F46224601200021B6
:1002400000F026F817EB00094E41201EA4F101042E
:10025000DFDC484631462A464346BDE8F09FD2B22D
:1002600001E000F8012B491EFBD270470022F6E79F
:1002700010B513460A4604461946FFF7F0FF20461C
:1002800010BD421C10F8011B0029FBD1801A7047D9
:10029000202A04DB203A00FA02F100207047914046
:1002A000C2F1200320FA03F3194390407047202A3B
:1002B00004DB203A21FA02F00021704721FA02F310
:1002C000D040C2F120029140084319467047000017
:1002D000064C074D06E0E06840F0010394E8070093
:1002E00098471034AC42F6D3FFF770FFC81F0008E0
:1002F000E81F000800BFFEE700B58BB001200990A1
:1003000000200690059001900290039004900790C1
:100310000120089001A9024800F00CF90BB000BDC3
:100320001000002010B596B000BF00210E4800F06C
:1003300093F90028F9D00DAB0FAA00210A4800F06C
:100340009FF90DAA09A1684601F06AFD6846FFF70A
:1003500098FF84B24FF0FF3322466946094801F006
:10036000A7F916B010BD0000100000204D65737392
:10037000616765205265636569766564203A20256A
:10038000730D0A003800002000B589B00EA103C922
:10039000CDE9000140F211100390062007900020E3
:1003A0000590049006908DF8200002AB6A4603A9E0
:1003B000074800F013F800BF0548029900F0D7FA8B
:1003C0000028F9D109B000BD4653554B3232000028
:1003D00010000020704772B600BFFEE7F0B504467B
:1003E0000D461E4694F8207020688368A86800B9FE
:1003F00000E000BF012F01D0022F7CD103F080600C
:1004000030B903F0006018B903F08050002873D0B1
:10041000C3F30161022905D9606A40F400006062FB
:100420000120F0BD012088403060A86860B9B5F8AF
:1004300000C0E86840EA4C5C206800F5C07000EB42
:100440000110C0F800C00FE0D5E901C040EACC00BF
:10045000D5F80CC040EA0C00D4F800C00CF5C07C04
:100460000CEB011CCCF80000D5F810C0206800F59A
:10047000C07000EB0110C0F804C0287D01280ED127
:10048000206800F5C07000EB0110406840F4807CEB
:10049000206800F5C07000EB0110C0F804C0D079EE
:1004A000000692F806C040EA0C4092F805C040EA07
:1004B0000C2C10794CEA000C206800F5C07000EBA1
:1004C0000110C0F80CC0D078000692F802C040EAD3
:1004D0000C4092F801C040EA0C2092F800C040EABB
:1004E0000C00D4F800C00CF5C07C0CEB011CCCF85F
:1004F0000800206801E016E00FE000F5C07000EB96
:100500000110006840F0010C206800F5C07000EB9D
:100510000110C0F800C0002083E7606A40F40010BA
:10052000606201207DE7606A40F480206062012003
:1005300077E70000F0B504460A46216894F8205099
:10054000012D01D0022D7ED1424901F500710868CC
:1005500040F001000860086820F47C5008600868DA
:10056000566A40EA06200860107D00F01F06012050
:1005700000FA06F3C8699843C861A1F50071D06913
:10058000C8B9D1F80C029843C1F80C02908880B227
:10059000968940EA064601F51070576940F83760C1
:1005A000108880B2168940EA064601F51070576936
:1005B00000EBC7004660D069012819D1D1F80C02C0
:1005C0001843C1F80C02908880B2168840EA0646AB
:1005D00001F51070576940F83760908980B216892C
:1005E00040EA064601F51070576900EBC700466007
:1005F000906928B9D1F804029843C1F8040204E0D4
:10060000D1F804021843C1F80402106928B9D1F8DE
:1006100014029843C1F8140204E0D1F814021843FC
:10062000C1F81402106A012804D1D1F81C02184341
:10063000C1F81C02D1F8000220F00100C1F800024C
:100640000020F0BDFFE7606A40F480206062012076
:10065000F7E700000064004010B50246002092F861
:100660002030012B01D0022B09D121B91468E46894
:1006700004F0030003E01468246904F0030010BDD3
:1006800070B5044694F82050012D01D0022D7DD183
:1006900051B92068C06800F0030080B9606A40F476
:1006A00000106062012070BD2068006900F0030046
:1006B00028B9606A40F4001060620120F3E7206806
:1006C00000F5D87000EB0110006800F004009060A5
:1006D000906840B9206800F5D87000EB0110006800
:1006E000400D106007E0206800F5D87000EB0110A5
:1006F0000068C0085060206800F5D87000EB011059
:10070000006800F00200D060206800F5D87000EBAF
:100710000110406800F00F001061206800F5D870EB
:1007200000EB0110406800F47F40000A90612068EF
:1007300000F5D87000EB01104068000C5061206893
:1007400000F5D87000EB011080681870206800F583
:10075000D87000EB0110806800F47F40000A5870E8
:10076000206800F5D87000EB0110806800F47F006D
:10077000000C9870206800F5D87000EB01108068BC
:10078000000ED870206800F5D87000E02FE000EB74
:100790000110C0681871206800F5D87000EB0110D6
:1007A000C06800F47F40000A5871206800F5D870D6
:1007B00000EB0110C06800F47F00000C9871206805
:1007C00000F5D87000EB0110C068000ED87131B987
:1007D0002068C06840F020002668F06005E02068CE
:1007E000006940F020002668306100205BE7606A05
:1007F00040F480206062012055E770B504460CB9D2
:10080000012070BD94F8200010B9204600F0C2F815
:100810002068006820F002002168086000F02CFACF
:1008200005460DE000F028FA401B0A2808D9606A46
:1008300040F400306062052084F820000120E0E7E9
:100840002068406800F002000028EBD120680068B2
:1008500040F001002168086000F00EFA05460DE046
:1008600000F00AFA401B0A2808D9606A40F40030F8
:100870006062052084F820000120C2E720684068FB
:1008800000F001000028EBD0207E012806D120686E
:10089000006840F080002168086005E0206800687A
:1008A00020F0800021680860607E012806D1206861
:1008B000006840F040002168086005E0206800689A
:1008C00020F0400021680860A07E012806D1206841
:1008D000006840F020002168086005E0206800689A
:1008E00020F0200021680860E07E012806D1206801
:1008F000006820F010002168086005E020680068AA
:1009000040F0100021680860207F012806D120688F
:10091000006840F008002168086005E02068006871
:1009200020F0080021680860607F012806D1206857
:10093000006840F004002168086005E02068006855
:1009400020F0040021680860D4E90201084321690D
:100950000843616908436168491E08432168C8610A
:1009600000206062012084F82000002049E710B5D3
:100970000246002092F82030012B01D0022B07D133
:100980001468A46804EA8164B4EB816F00D001208C
:1009900010BD000010B586B00446142101A8FFF771
:1009A00065FC1B492068884230D100BF00200090C0
:1009B0001848006840F00070164908600846006852
:1009C00000F00070009000BF00BF00BF002000904A
:1009D00010481038006840F001000E4910390860D6
:1009E0000846006800F00100009000BF00BF4FF40F
:1009F000C050019002200290002003900320049038
:100A00000920059001A9044800F038F806B010BD8F
:100A100000640040403802400000024070B50446C7
:100A200094F82000012822D1022084F820002068B8
:100A3000006820F001002168086000F01DF90546FB
:100A40000DE000F019F9401B0A2808D9606A40F44B
:100A500000306062052084F82000012070BD20680D
:100A6000406800F001000028EBD16062F6E7606AA0
:100A700040F4002060620120F0E70000F8B5024673
:100A80000B460025002400200021D7E0012606FAAD
:100A900001F51E6806EA0504AC4273D15E68012EBA
:100AA00008D05E68022E05D05E68112E02D05E6806
:100AB000122E13D190684F000326BE40B0434F0062
:100AC000DE68BE4030439060506801268E40B043DF
:100AD0001E79C6F300168E4030435060D0684F0038
:100AE0000326BE40B0434F009E68BE403043D060F6
:100AF0005E68022E02D05E68122E13D1CF0802F17A
:100B0000200656F827004E07F70E0F26BE40B043CA
:100B10004F07FF0E1E69BE403043CF0802F120068A
:100B200046F8270010684F000326BE40B0431E79E8
:100B300006F003064F00BE40304310605E6806F0CA
:100B40008056B6F1805F78D100BF002600963D4EFA
:100B5000366846F480463B4F3E603E46366806F4B3
:100B60008046009600BF00BF374E8F0856F827001A
:100B70008E07370F0F26BE40B043344EB24202D12B
:100B800000261FE059E0324EB24201D1012619E0A1
:100B9000304EB24201D1022614E02F4EB24201D1B2
:100BA00003260FE02D4EB24201D104260AE02C4E5E
:100BB000B24201D1052605E02A4EB24201D10626F5
:100BC00000E007268F073F0FBE4030431E4E8F08C0
:100BD00046F82700244E3068A0435E6806F480364D
:100BE000B6F5803F00D120431F4E3060361D30687F
:100BF000A0435E6806F40036B6F5003F00D12043FE
:100C0000194E361D3060361D3068A0435E6806F40C
:100C10008016B6F5801F00D12043134E0836306091
:100C2000361D3068A0435E6806F40016B6F5001F56
:100C300000D120430C4E0C363060491C1029FFF4C3
:100C400025AFF8BD4438024008380140000002409A
:100C50000004024000080240000C02400010024064
:100C60000014024000180240003C01400AB18161BA
:100C700001E00B0483617047014800687047000081
:100C8000000000200348006803490978084401492E
:100C900008607047000000200800002010B50D48D3
:100CA000006840F400700B4908600846006840F492
:100CB000806008600846006840F480700860032087
:100CC00000F096F8002000F007F800F02BF8002064
:100CD00010BD0000003C024070B504460E4800788C
:100CE0004FF47A71B1FBF0F00C490968B1FBF0F5F3
:100CF000284600F045FC08B1012070BD102C07D239
:100D000000222146501E00F035F80548046001E03D
:100D10000120F2E70020F0E7080000200C0000208E
:100D20000400002008B500BF0020009010480068B3
:100D300040F480400E4908600846006800F4804096
:100D4000009000BF00BF00BF00200090081F006897
:100D500040F08050091F08600846006800F080508D
:100D6000009000BF00BF072000F042F808BD00005F
:100D7000443802402DE9F05F80460D4616460027B4
:100D800001F062F8074639462A46334601F007006B
:100D9000C0F1070ABAF1040F02D94FF0040A01E0CA
:100DA000C0F1070AD14600F1040ABAF1070F02D2D6
:100DB0004FF0000A01E0A0F1030AD4464FF0010A07
:100DC0000AFA09FAAAF1010A0AEA020A0AFA0CFA6C
:100DD0004FF0010B0BFA0CFBABF1010B0BEA030B11
:100DE0004AEA0B042146404601F036F8BDE8F09F80
:100DF00000BF00F00702064B19684FF6FF031940C9
:100E0000044B0B4343EA0221014B196000BF7047BA
:100E10000CED00E00000FA0570B504460D460CB973
:100E2000012070BD5848006800F00F00A84209D2A8
:100E300055490D700846006800F00F00A84201D027
:100E40000120EEE7207800F0020002281DD1207872
:100E500000F00400042805D14C48006840F4E0503C
:100E60004A490860207800F00800082805D1474862
:100E7000006840F46040454908604448006820F03C
:100E8000F000A168084341490860207800F00100A3
:100E9000A8B36068012807D13C4808380068C0F34F
:100EA0004040B8B90120BCE76068022802D0606801
:100EB000032807D1354808380068C0F3406048B9B6
:100EC0000120AEE7314808380068C0F3400008B997
:100ED0000120A6E72D48006820F003006168084360
:100EE0002A490860FFF7C8FE064609E0FFF7C4FE7E
:100EF000801B41F28831884202D9032091E707E044
:100F00002248006800F00C006168B0EB810FEDD161
:100F10001D48006800F00F00A84209D91A490D7059
:100F20000846006800F00F00A84201D0012078E7D1
:100F3000207800F00400042807D11448006820F449
:100F4000E050E168084311490860207800F008008B
:100F5000082808D10D48006820F46040216940EA63
:100F6000C1000A49086000F03FF808490968C1F368
:100F70000311074A515CC8400649086006480068EA
:100F8000FFF7AAFE00204CE7003C02400838024070
:100F9000B01F00080C000020040000200148006879
:100FA000704700000C00002000B5FFF7F7FF044970
:100FB0000968C1F38221034A515CC84000BD0000AA
:100FC00008380240C01F000800B5FFF7E7FF0449DA
:100FD0000968C1F34231034A515CC84000BD0000BA
:100FE00008380240C01F00082DE9F0470024002502
:100FF0000026A146A2463F48006800F00C0030B130
:10100000042807D0082808D00C286BD138E0DFF876
:10101000E8A06AE0DFF8E4A067E03648001F006857
:1010200000F03F043348001F006800F4800078B1EE
:1010300032483049091F0968C1F38811A0FB0170CB
:101040000146224600233846FFF7D8F805460DE052
:1010500029482849091F0968C1F38811A0FB0171BB
:10106000224600233846FFF7C9F805462148001FED
:101070000068C0F30140401C4600B5FBF6FA34E0BE
:101080001C48001F006800F03F041A48001F006859
:1010900000F4800078B119481649091F0968C1F3A6
:1010A0008811A0FB01700146224600233846FFF755
:1010B000A5F805460EE010480E49091F0968C1F35E
:1010C0008811A0FB01700146224600233846FFF735
:1010D00095F805460748001F0068C0F30279B5FB84
:1010E000F9FA02E0DFF810A000BF00BF5046BDE8EB
:1010F000F0870000083802400024F40000127A0053
:10110000F8B504460025207800F0010000286FD0D3
:10111000FD48006800F00C0004281BD0FA48006865
:1011200000F00C00082807D1F748001F006800F401
:101130008000B0F5800F0DD0F348006800F00C007F
:101140000C2813D1F048001F006800F48000B0F5AF
:10115000800F0BD1EC4808380068C0F340400028ED
:1011600059D06068002856D10120F8BD00BF6068E2
:10117000B0F5803F08D1E4480838006840F480307A
:10118000E149083908601EE06068B0F5A02F0DD174
:10119000DD480838006840F48020DB4908390860E1
:1011A0000846006840F4803008600CE0D6480838F3
:1011B000006820F48030D449083908600846006887
:1011C00020F48020086000BF606890B1FFF754FDF4
:1011D000054606E0FFF750FD401B642801D90320B7
:1011E000C3E7C94808380068C0F340400028F1D080
:1011F00011E0FFF741FD054606E0FFF73DFD401B0E
:10120000642801D90320B0E7BF4808380068C0F35C
:1012100040400028F1D1207800F0020002286BD174
:10122000B948006800F00C00B8B1B748006800F099
:101230000C00082805D1B448001F006800F48000A5
:1012400058B1B148006800F00C000C281CD1AE4821
:10125000001F006800F48000B0B9AB48083800688F
:10126000C0F3400020B1E068012801D001207CE7F4
:10127000A5480838006820F0F800216940EAC1005C
:10128000A1490839086037E0E06800B301209F49B0
:101290000860FFF7F1FC054606E0FFF7EDFC401B98
:1012A000022801D9032060E7974808380068C0F396
:1012B00040000028F1D094480838006820F0F80079
:1012C000216940EAC10090490839086014E0002013
:1012D0008E490860FFF7D0FC054606E0FFF7CCFC1E
:1012E000401B022801D903203FE7874808380068DF
:1012F000C0F340000028F1D1207800F00800082851
:101300002CD16069A8B1012081490860FFF7B4FCC5
:10131000054606E0FFF7B0FC401B022801D9032078
:1013200023E779486C300068C0F340000028F1D012
:1013300014E0002076490860FFF79EFC054606E0B1
:10134000FFF79AFC401B022801D903200DE76E48E5
:101350006C300068C0F340000028F1D1207800F024
:101360000400042870D1002667483830006800F077
:10137000805090B900BF002000906348383000686A
:1013800040F080506049383108600846006800F03D
:101390008050009000BF00BF01265E48006800F446
:1013A0008070B0B95B48006840F4807059490860AB
:1013B000FFF762FC054606E0FFF75EFC401B0228D3
:1013C00001D90320D1E65348006800F4807000285A
:1013D000F2D000BFA068012808D14B4868300068EF
:1013E00040F001004849683108601DE0A068052808
:1013F0000DD145486830006840F00400424968312A
:1014000008600846006840F0010008600CE03E48B3
:101410006830006820F001003B49683108600846E8
:10142000006820F00400086000BFA068A8B1FFF7C2
:1014300023FC054609E0FFF71FFC401B41F2883101
:10144000884202D9032090E626E02F4868300068E1
:10145000C0F340000028EED013E0FFF70DFC054676
:1014600008E0FFF709FC401B41F28831884201D9AE
:1014700003207AE6244868300068C0F34000002862
:10148000EFD1012E07D120483830006820F080507D
:101490001D493831086000BFA069E8B31A480068E8
:1014A00000F00C00082862D0A06902284AD1002070
:1014B00016490866FFF7E0FB054606E0FFF7DCFB90
:1014C000401B022801D903204FE60F480838006866
:1014D000C0F340600028F1D1D4E907010843616AF4
:1014E00040EA81110122A06AC2EB500041EA0041AA
:1014F0002C20005D41EA00613020005D41EA00706F
:101500000149091F086008E008380240000047420E
:10151000800E4742007000402BE00120164908660B
:10152000FFF7AAFB054606E0FFF7A6FB401B0228D3
:1015300001D9032019E611480068C0F34060002873
:10154000F2D016E000200C490866FFF795FB05462F
:1015500006E0FFF791FB401B022801D9032004E6B7
:1015600006480068C0F340600028F2D101E0012085
:10157000FBE50020F9E5000000004742003802408A
:1015800070B504462546681EB0F1807F01D3012066
:101590000FE0681E4FF0E02148610F214FF0FF304F
:1015A00000F05AFC00204FF0E0218861072008611C
:1015B000002070BD10B504460CB9012010BDA06913
:1015C00000B100E000BF94F8390028B9002084F889
:1015D0003800204600F028F8242084F839002068DC
:1015E000C06820F400502168C860204600F0ECF983
:1015F0002068006920F490402168086120684069F3
:1016000020F02A00216848612068C06840F400503A
:101610002168C8600020E063202084F8390084F845
:101620003A000020CAE7000010B586B00446142135
:1016300001A8FEF71BFE1B49206888422FD100BF7E
:10164000002000901848006840F4003016490860F7
:101650000846006800F40030009000BF00BF00BFE3
:101660000020009010481038006840F001000E493A
:10167000103908600846006800F00100009000BFC3
:1016800000BF0C2001900220029000200390032054
:1016900004900720059001A90448FFF7EFF906B070
:1016A00010BD0000004400404038024000000240ED
:1016B0002DE9F84304460D4616461F464FF0000933
:1016C00094F8390020285DD105B116B90120BDE894
:1016D000F88300BF94F83800012801D10220F6E712
:1016E000012084F8380000BF0020E063212084F846
:1016F0003900FFF7C1FA8146A684E68400BF0020C6
:1017000084F8380000BF2BE0E08C401EE084A06825
:10171000B0F5805F16D14B4600228021204600970D
:1017200000F046FB08B10320D1E7A846B8F8000056
:10173000C0F3080021684860206908B9AD1C0FE0BB
:101740006D1C0DE04B46002280212046009700F0E2
:101750002FFB08B10320BAE715F8010B2168486098
:10176000E08C0028D0D14B46002240212046009733
:1017700000F01EFB08B10320A9E7202084F83900FF
:101780000020A4E70220A2E700BFFEE710B5104842
:1017900010490860102048604FF040410D488160BA
:1017A0000021C1604FF4602101614FF4801141615B
:1017B00000210176012141768176C17600210177F1
:1017C0004177FFF71AF808B1FEF705FE10BD0000DB
:1017D000006400401000002000B587B0142102A86A
:1017E000FEF744FD00BF002001902B48006840F048
:1017F0000400294908600846006800F004000190D0
:1018000000BF00BF00BF002001900846006840F004
:10181000800008600846006800F08000019000BF6A
:1018200000BF00BF002001900846006840F00100A2
:1018300008600846006800F00100019000BF00BF8A
:1018400000BF002001900846006840F002000860D8
:101850000846006800F00200019000BF00BF0022AF
:1018600020210E48FFF702FA4FF4005002900C4876
:1018700003900020049002A90A48FFF7FFF82020F7
:1018800002900120039000200490059002A90348D3
:10189000FFF7F4F807B000BD303802400000024006
:1018A000000021100008024010B50B480B490860E9
:1018B0004FF4E1304860002108488160C160016157
:1018C0000C21416100218161C161FFF773FE08B104
:1018D000FEF781FD10BD00000044004038000020EC
:1018E00000BFFEE700BFFEE77047704710B5FFF787
:1018F000C9F910BD00B593B0342106A8FEF7B6FCB7
:10190000142101A8FEF7B2FC00BF0020009025487A
:10191000006840F08050234908600846006800F0E5
:101920008050009000BF00BF00BF002000901E4804
:10193000006820F4404040F480401B49086008469D
:10194000006800F44040009000BF00BF02200690F5
:101950000120099010200A9002200C9000210D9186
:1019600008210E9148210F9102211091119112919D
:1019700006A8FFF7C5FB08B1FEF72DFD0F2001906B
:1019800002200290002003904FF480500490002029
:101990000590022101A8FFF73FFA08B1FEF71BFDF1
:1019A00013B000BD40380240007000400548006898
:1019B00040F47000034908604FF00060014980392D
:1019C0000860704788ED00E02DE9F84F0446206874
:1019D000006920F44050E1680843216808612169EA
:1019E000A068084361690843E169084300902068E2
:1019F000C06849F20C618843009908432168C860B7
:101A00002068406920F44070A1690843216848615A
:101A1000E069B0F5004F75D1E3492068884203D0F2
:101A2000E249206888426FD1FFF7CEFA8146022052
:101A30006168A0FB01510B461920A9FB00712A46E1
:101A40003846FEF7DBFB6421B0FBF1F04FEA001AE9
:101A500002206168A0FB01510B461920A9FB00710F
:101A60002A463846FEF7CAFB074602206168A0FBFB
:101A700001510B461920A9FB00B12A465846FEF732
:101A8000BDFB6421B0FBF1F000EBC00101EB0010E5
:101A9000A7EB8000322101EBC0006421B0FBF1F024
:101AA00000F0F8000AEB400A02206168A0FB015137
:101AB0000B461920A9FB00712A463846FEF79EFB0B
:101AC000074602206168A0FB01510B461920A9FBC3
:101AD00000B12A465846FEF791FB6421B0FBF1F0B5
:101AE00000EBC00101EB0010A7EB8000322101EBFD
:101AF000C0006421B0FBF1F000F007005044216801
:101B000088604FE16EE0FFE7FFF74EFA8146022062
:101B10006168A0FB01510B461920A9FB00712A4600
:101B20003846FEF76BFB6421B0FBF1F04FEA001A78
:101B300002206168A0FB01510B461920A9FB00712E
:101B40002A463846FEF75AFB074602206168A0FB8A
:101B500001510B461920A9FB00B12A465846FEF751
:101B60004DFB6421B0FBF1F000EBC00101EB001074
:101B7000A7EB8000322101EBC0006421B0FBF1F043
:101B800000F0F8000AEB400A02206168A0FB015156
:101B90000B461920A9FB00712A463846FEF72EFB9A
:101BA000074602206168A0FB015003461920A9FBEB
:101BB00000B12A465846FEF721FB6421B0FBF1F044
:101BC00000EBC00101EB0010A7EB8000322101EB1C
:101BD000C0006421B0FBF1F000F007005044216820
:101BE0008860DFE070492068884203D06F49206830
:101BF00088426BD1FFF7E8F9814604206168A0FBB9
:101C000001510B461920A9FB00712A463846FEF700
:101C1000F5FA824604206168A0FB01510B461920A9
:101C2000A9FB00712A463846FEF7E8FA6421B0FBAA
:101C3000F1F000EBC00101EB0010AAEB80003221B3
:101C400001EB00106421B0FBF1F000F0F00A042079
:101C50006168A0FB015003461920A9FB00712A46C8
:101C60003846FEF7CBFA6421B0FBF1F00AEB001A1C
:101C700004206168A0FB01510B461920A9FB0071EB
:101C80002A463846FEF7BAFA074604206168A0FBE8
:101C9000015003461920A9FB00B12A465846FEF719
:101CA000ADFA6421B0FBF1F000EBC00101EB0010D4
:101CB000A7EB8000322101EB00106421B0FBF1F0B2
:101CC00000F00F005044216888606BE0FFF76CF96A
:101CD000814604206168A0FB015003461920A9FB3E
:101CE00000712A463846FEF789FA82460420616868
:101CF000A0FB015003461920A9FB00712A46384673
:101D0000FEF77CFA6421B0FBF1F000EBC00101EBBF
:101D10000010AAEB8000322101EB00106421B0FB1F
:101D2000F1F000F0F00A04206168A0FB01500346C6
:101D30001920A9FB00712A463846FEF75FFA642194
:101D4000B0FBF1F00AEB001A04206168A0FB0170FF
:101D500003461920A9FB005001463A462846FEF7E3
:101D60004DFA074604206168A0FB01500346192084
:101D7000A9FB00B12A465846FEF740FA6421B0FBA1
:101D8000F1F000EBC00101EB0010A7EB8000322165
:101D900001EB00106421B0FBF1F000F00F005044A3
:101DA00021688860BDE8F88F0010014000140140F0
:101DB0002DE9F04104460D4617469846069E21E05F
:101DC000701CF8B12EB1FEF757FFA0EB0800B0422F
:101DD00018D92068C06820F4D0702168C8602068D5
:101DE000406920F0010021684861202084F8390012
:101DF00084F83A0000BF002084F8380000BF0320B8
:101E0000BDE8F081206800682840A84201D1012087
:101E100000E00020B842D3D00020F1E700BFFEE789
:101E20000FB4084B10B504A902AA039800F037F8C4
:101E3000044602A9002000F09DF8204610BC5DF881
:101E400014FB0000751F000802480068C0F3022060
:101E5000704700000CED00E010B5002804DB0A0715
:101E6000130E054A135406E00A07140E034A00F045
:101E70000F031B1FD45410BD00E400E018ED00E078
:101E800002E008C8121F08C1002AFAD17047704743
:101E9000002001E001C1121F002AFBD170472DE98B
:101EA000F84F9946924688460546002706E02528C1
:101EB0000AD051464A4690476D1C7F1C287800285E
:101EC000F5D13846BDE8F88F002315F8011F1846F4
:101ED0002E2915D115F8011F04232A290DD06FF0E2
:101EE0002F022978A1F13004092C09D800EB8000D9
:101EF00002EB400008446D1CF3E758F8040B6D1C1E
:101F00002A78002ADDD0632A07D0732A0FD0104622
:101F100051464A4690477F1C2AE018F8042B8DF85A
:101F2000002000218DF801106E46012103E058F8D1
:101F3000046B4FF0FF315A074FF0000401D409E061
:101F4000641C84420BDA8C42FADB325D002AF7D142
:101F500005E0641C8C42FCDB305D0028F9D127448D
:101F600004E016F8010B51464A469047641EF8D229
:101F70006D1CA3E70A68531C0B60107070470000CB
:101F8000FEF78CFEFFF7B6FCFFF726FCFFF7FEFB23
:101F9000FFF78AFCFEF7B0F90448FEF73FFDFEF7B5
:101FA000F3F9FEF7BFF900BFFEE7000010000020C4
:101FB00000000000000000000102030406070809F9
:101FC0000000000001020304E81F000800000020D8
:101FD00010000000801E0008F81F000810000020FC
:101FE00068040000901E00080000000010000000BF
:081FF000010000000024F400D0
:04000005080001C529
:00000001FF
