:020000040800F2
:1000000038040020D90100089B0D0008810C00086D
:10001000990D0008E5020008550E000800000000D8
:100020000000000000000000000000009F0D00081C
:10003000E7020008000000009D0D0008A10D000867
:10004000F3010008F3010008F3010008F3010008C0
:10005000F3010008F3010008F3010008F3010008B0
:10006000F3010008F3010008F3010008F3010008A0
:10007000F3010008F3010008F3010008F301000890
:10008000F3010008F3010008F3010008F301000880
:10009000F3010008F3010008F3010008F301000870
:1000A000F3010008F3010008F3010008F301000860
:1000B000F3010008F3010008F3010008F301000850
:1000C000F3010008F3010008F3010008F301000840
:1000D000F3010008F3010008F3010008F301000830
:1000E000F3010008F3010008F3010008F301000820
:1000F000F3010008F3010008F3010008F301000810
:10010000F3010008F3010008F3010008F3010008FF
:10011000F3010008F3010008F3010008F3010008EF
:10012000F3010008F3010008F3010008F3010008DF
:10013000F30100080000000000000000F3010008C7
:10014000F3010008F3010008F3010008F3010008BF
:10015000F3010008F3010008F3010008F3010008AF
:10016000F3010008F3010008F3010008F30100089F
:10017000F3010008F3010008F3010008000000008B
:1001800000000000F3010008000000000000000073
:10019000F30100080000000000000000F301000867
:1001A000000000000000000000000000F301000853
:1001B000F3010008F3010008F3010008F30100084F
:1001C000F3010008DFF80CD000F07AF8004800478F
:1001D000950E00083804002006488047064800476E
:1001E000FEE7FEE7FEE7FEE7FEE7FEE7FEE7FEE7E7
:1001F000FEE7FEE7390E0008C50100082DE9F05FB3
:100200000546002092469B46884606468146402485
:100210001BE0284641464746224600F041F8534637
:100220005A46C01A914110D311461846224600F092
:1002300028F82D1A67EB01084F46224601200021BD
:1002400000F01FF817EB00094E41201EA4F1010435
:10025000DFDC484631462A464346BDE8F09FD2B22D
:1002600001E000F8012B491EFBD270470022F6E79F
:1002700010B513460A4604461946FFF7F0FF20461C
:1002800010BD202A04DB203A00FA02F1002070475A
:100290009140C2F1200320FA03F3194390407047C4
:1002A000202A04DB203A21FA02F00021704721FACB
:1002B00002F3D040C2F12002914008431946704732
:1002C000064C074D06E0E06840F0010394E80700A3
:1002D00098471034AC42F6D3FFF778FFC80E0008F9
:1002E000E80E0008FEE7704770B5040003D094F8EC
:1002F000200010B104E0012070BD204600F082F81B
:100300002068016821F00201016000F08BF90546C8
:10031000052604E000F086F9401B0A2811D8206861
:1003200040688007F6D42068016841F0010101604F
:1003300000F078F905460BE000F074F9401B0A283C
:1003400006D9606A40F40030606284F82060D2E729
:1003500020684068C007EFD0207E0128206801682F
:100360003DD021F080010160607E01282068016895
:1003700038D021F040010160A07E0128206801688A
:1003800033D021F020010160E07E0128206801685F
:100390002ED041F010010160207F01282068016803
:1003A00029D021F008010160607F012820680168E0
:1003B00024D021F004010160D4E902010843D4E90A
:1003C0000412114308436168491E08432168C8614B
:1003D00000206062012084F82000002070BD41F000
:1003E0008001C0E741F04001C5E741F02001CAE7C4
:1003F00021F01001CFE741F00801D4E741F00401FA
:10040000D9E7000010B586B0044614216846FFF70E
:100410002DFF14492068884221D113480021026829
:1004200042F000720260006800F0007005900E4813
:100430001038026842F002020260006800F0020018
:1004400005904FF4407000900220CDE90101032097
:100450000390092004906946044800F009F806B0AA
:1004600010BD00000064004040380240000402401B
:100470002DE9F84F00224FF0010803254FF00F0E31
:100480000B6808FA02F42340A3426ED14E68012E95
:1004900005D0022E03D0112E01D0122E12D1866863
:1004A0004FEA420C05FA0CF7BE43CF6807FA0CF787
:1004B000374387604668A6430C79C4F30014944020
:1004C00034434460C668570005FA07FC8C6826EA86
:1004D0000C06BC403443C4604C68022C01D0122C82
:1004E00013D1D40800EB8404A346D4F82090540719
:1004F0004FEAD46A0EFA0AF629EA06090E6906FAE4
:100500000AF646EA0906CBF8206006680C7926EA66
:100510000C0604F00304BC40344304604C68E4005F
:1005200060D5334C266846F480462660246822F065
:10053000030604F4804400942E4C3444A446D4F8BA
:1005400008489607370F0EFA07F6B4432A4EB04212
:1005500001D100261FE0294EB04201D101261AE048
:10056000274EB04202D1022615E03BE0254EB042B4
:1005700001D103260FE0244EB04201D104260AE047
:10058000224EB04201D1052605E0214EB04201D1F4
:10059000062600E00726BE402643CCF808681D4E1C
:1005A00034684F689C43FF0300D51C433460194EE8
:1005B000361D34684F689C43BF0300D51C4334602C
:1005C000144E083634684F689C43FF0200D51C4324
:1005D0003460104E0C3634684F689C43BF0200D51F
:1005E0001C433460521C102AFFF44AAFBDE8F88F58
:1005F0004438024000300140000002400004024044
:1006000000080240000C02400010024000140240AA
:1006100000180240003C01400AB1816170470904A2
:10062000FBE70000014880687047000000000020E0
:100630000248816802781144816070470000002000
:100640000B4810B5016841F400710160016841F484
:1006500080610160016841F480710160032000F055
:1006600063F8002000F006F800F024F8002010BD28
:10067000003C024070B50D4D04464FF47A71287865
:10068000B1FBF0F00A490968B1FBF0F000F0E4FAC0
:1006900048B9102C07D200222146501E00F024F841
:1006A00000206C6070BD012070BD000000000020C3
:1006B0000C0000200B4882B0016841F480410160C9
:1006C000006800F4804000900648001F016841F077
:1006D00080510160006800F080500090072002B057
:1006E00000F022B844380240F0B40E4B1B680C46B0
:1006F000C3F30223C3F10705042D00D90425191DF6
:10070000072901D2002300E0DB1E012606FA05F1CD
:10071000491E214099409E40761E16403143F0BC50
:1007200000F099BB0CED00E0064900F007020868F4
:100730004FF6FF03184040EA0220034A10430860C6
:10074000704700000CED00E00000FA052DE9F047CD
:100750000E46050065D0DFF81481D8F80000F7B226
:1007600000F00F00B04207D288F80070D8F80000FF
:1007700000F00F00B04254D128683D4C810712D5DB
:10078000400703D5206840F4E05020602878000737
:1007900003D5206840F4604020602068A96820F0FC
:1007A000F000084320602878C0072DD030496868E1
:1007B0000839012812D0022813D0032811D0096863
:1007C000890700292DDA216821F003010143216006
:1007D000FFF728FF814641F2883A0EE00968890355
:1007E000EFE709688901ECE7FFF71CFFA0EB0901BF
:1007F000514502D90320BDE8F0872068696800F000
:100800000C00B0EB810FEFD1D8F80010404601F09A
:100810000F01B14207D90770006800F00F00B04225
:1008200001D00120E7E72878400705D52068E9686E
:1008300020F4E050084320602878000706D520689F
:10084000296920F4604040EAC100206000F018F8F7
:100850002168084AC1F30311515CC8400649086089
:1008600006480068FFF706FF0020C4E7003C02408E
:1008700008380240B80E00080C00002004000020D8
:10088000224810B5006810F00C02214815D0411024
:10089000042A11D01D4C241F082A0FD00C2A0CD179
:1008A0002268236802F03F025B0221D52068C0F372
:1008B0008810A0FB010120E0084610BD22682368D3
:1008C00002F03F025B0205D52068C0F38810A0FB50
:1008D000010104E02168C1F38811A1FB000100239C
:1008E000FFF78CFC2168C1F30141491C49000AE073
:1008F0002168C1F38811A1FB00010023FFF77EFCF2
:100900002168C1F30271B0FBF1F010BD083802405C
:100910000024F4002DE9F84F0546DFF828B30078ED
:10092000ABF10407C007A7F1040451D0DBF80010B5
:100930005846C1F3810101290FD00168C1F381013B
:10094000022902D13968490207D40068C0F3810046
:10095000032809D13868400206D52068800337D5BE
:100960006868002872D033E06868B0F5803F10D026
:10097000B0F5A02F206810D020F4803020602068CF
:1009800020F4802020606868A8B1FFF74BFE06467F
:100990000DE0206840F48030F4E740F480202060CF
:1009A000F7E700BFFFF73EFE801B642878D8206879
:1009B0008003F7D50CE0FFF735FE064605E000BFE3
:1009C000FFF730FE801B6428F0D820688003F7D43E
:1009D0002878DFF8749280074FF0000A46D5DBF8DC
:1009E0000010584611F00C0F0FD00168C1F38101BF
:1009F000022902D13968490207D50068C0F3810095
:100A0000032809D13868400206D42068800715D52C
:100A1000E86801281AD111E0E868C0B10120C9F8DE
:100A20000000FFF7FFFD064605E000BFFFF7FAFDF7
:100A3000801B0228BAD820688007F7D5206829696A
:100A400020F0F80040EAC10020600FE0F7E0C9F8AC
:100A500000A0FFF7E7FD064605E000BFFFF7E2FD57
:100A6000801B02281CD820688007F7D4287800074C
:100A700027D5DFF8D0817548696908F16C0881B124
:100A800001210160FFF7CEFD064604E0FFF7CAFD35
:100A9000801B022804D8D8F800008007F6D510E0A3
:100AA00089E0C0F800A0FFF7BDFD064605E000BFE5
:100AB000FFF7B8FD801B02287DD8D8F8000080071A
:100AC000F6D42878400769D55E484FF000083830E2
:100AD0000068C0000BD45B483830016841F0805199
:100AE000016000684FF0010800F080500090584EFF
:100AF0003068C00511D4306840F480703060FFF772
:100B000091FD009006E000BFFFF78CFD0099401AB0
:100B1000022850D83068C005F6D54A4EA868683615
:100B200001280FD00528306810D020F00100306077
:100B3000306820F004003060A868B8B1FFF772FD9B
:100B400000900FE0306840F00100F4E740F004004E
:100B50003060F7E7FFF766FD0099411A41F28830EF
:100B6000814264D830688007F4D50EE0FFF75AFD63
:100B7000009007E0FFF756FD0099411A41F28830D6
:100B8000814254D830688007F4D4B8F1000F05D002
:100B90002C483830016821F080510160A869A8B361
:100BA000DBF80010C1F38101022948D00228C9F8FE
:100BB00060A005D000E03AE0FFF734FD054639E0DB
:100BC000FFF730FD064604E0FFF72CFD801B0228EE
:100BD0002DD820688001F7D4F5E907010843E968BA
:100BE0001C4A490802EB0141AA6841EA8211084304
:100BF000297C40EA0160297D40EA017038600120CB
:100C0000C9F86000FFF70EFD054606E015E000BFDD
:100C1000FFF708FD401B022809D820688001F7D59E
:100C20000BE000BFFFF7FEFC401B022802D90320A7
:100C3000BDE8F88F20688001F4D40020F8E7012097
:100C4000F6E700000838024000004742800E4742A5
:100C5000007000400000FFFF10B5401EB0F1807F23
:100C600001D3012010BD4FF0E02460610F21601717
:100C700000F0F1F80020A06107202061002010BDE5
:100C8000FEE700000E4810B50C49016014214160D8
:100C90000907816000214FF4E022C0E9031241619D
:100CA000017641768176C17601774177FFF71CFBAB
:100CB000002801D072B6FEE710BD000000640040BD
:100CC00010000020F0B587B014216846FFF7CEFA77
:100CD0002D480024016841F004010160016801F021
:100CE00004010591016841F080010160016801F093
:100CF00080010591016841F001010160016801F086
:100D000001010591016841F00201016000681F4E78
:100D100000F00200059001220E213046FFF77CFC16
:100D20001B4F002222213846FFF776FC01220C21BE
:100D30003846FFF771FC4FF4005000901548CDE99C
:100D4000010469463046FFF793FB0E200090012511
:100D5000CDE90154694630460394FFF789FB022030
:100D6000CDE90005CDE9025469463846FFF780FB1E
:100D70002C200090CDE90154694638460394FFF7D2
:100D800077FB07B0F0BD0000303802400008024099
:100D90000000024000002110FEE7FEE770477047A8
:100DA000FFF746BC30B593B034216846FFF75EFAD2
:100DB00014210DA8FFF75AFA1D480025016841F0DB
:100DC00080510160006800F080501290194801685D
:100DD00021F4404141F4804101600068022400F4A4
:100DE0004040129001200090000401908001CDE964
:100DF0000640042008903220CDE909040B9468468F
:100E00000C94FFF787FD08B172B6FEE70DA90F201D
:100E100081E831004FF48050CDE9100501210DA883
:100E2000FFF794FC002801D072B6FEE713B030BD86
:100E300040380240007000400548016841F47001EC
:100E4000016003494FF0006080390860704700007E
:100E500088ED00E0FEE70907090E002804DB00F139
:100E6000E02080F80014704700F00F0000F1E0204F
:100E700080F8141D704702E008C8121F08C1002A3C
:100E8000FAD170477047002001E001C1121F002A0B
:100E9000FBD17047FFF7D4FBFFF784FFFFF712FF8A
:100EA000FFF7F0FE034C012202212046FFF7B4FBBE
:100EB000F9E7000000000240000000000000000010
:100EC0000102030406070809E80E000800000020DC
:100ED00010000000760E0008F80E00081000002038
:100EE00028040000860E0008010000001000000029
:080EF000000000000024F400E2
:04000005080001C529
:00000001FF
