:020000040800F2
:100000000807002001010008554C0008C92F00080E
:10001000514C0008A10A0008155200080000000019
:10002000000000000000000000000000514D00082A
:10003000A50A000800000000D14C0008754D00081A
:100040001B0100081B0100081B0100081B01000820
:100050001B0100081B0100081B0100081B01000810
:100060001B0100081B0100081B0100081B01000800
:100070001B0100081B0100081B0100081B010008F0
:100080001B0100081B0100081B0100081B010008E0
:100090001B0100081B0100081B0100081B010008D0
:1000A0001B0100081B0100081B010008314E00085D
:1000B000414E00081B0100081B0100081B0100083D
:1000C0001B0100081B0100081B0100081B010008A0
:1000D0001B0100081B0100081B0100081B01000890
:1000E0001B0100081B0100081B010008DFF80CD0F1
:1000F00000F0C4FC00480047DD520008080700205B
:100100000648804706480047FEE7FEE7FEE7FEE7B1
:10011000FEE7FEE7FEE7FEE7FEE7FEE72D4E0008FE
:10012000ED00000840EA01039B0703D009E008C97D
:10013000121F08C0042AFAD203E011F8013B00F8AC
:10014000013B521EF9D27047D2B201E000F8012BF8
:10015000491EFBD270470022F6E710B513460A4647
:1001600004461946FFF7F0FF204610BDF0B480EAC0
:100170000102D40F4200B2EB410F02D20246084600
:1001800011464A0042D0C30DDDB2C1F3C752AD1AC9
:10019000202D35DAC1F3160141F4000204B15242B8
:1001A000C5F1200602FA06F12A411044B3EBD05FF4
:1001B00023D0C4B1012DA0EBC35009DCF0BC4FF03B
:1001C000004202EAC352DBB200F5000000F04BBB74
:1001D000400000F1807000EBC350A0F1807040EA55
:1001E000D170490009E0490841EAC071A0EBC35051
:1001F00000F50000400800EBC350F0BC00F02ABB43
:100200006142012202EB4101001BF6E7F0BC70479E
:1002100081F00041AAE780F00040A7E780EA0102F0
:1002200010B502F00043400022D04A001FD0010E5A
:1002300001EB1261C0F35600C2F3560240F4000015
:1002400042F40002A0FB022000047F39140400D015
:10025000401C50EA124001D44000491EC2B20C06B4
:1002600004EBD010401C4008802A02D003E000209C
:1002700010BD20F00100002900DA0020184310BD55
:1002800030B480EA010202F0004530F0004221F073
:10029000004013D090B1C30DD40DC2F31601C0F3CA
:1002A0001600E41A41F4000140F400027D3491424A
:1002B00001D3641C00E04900002C02DA30BC0020AD
:1002C00070474FF400000023914201D3891A034381
:1002D00040084FEA4101F7D151B1914202D14FF0AC
:1002E000004105E002D24FF0010101E06FF0010191
:1002F00003EBC450284430BC00F0ACBA2DE9FE4FEB
:10030000804681EA0300C00F0C46009021F00041B6
:1003100023F00045B8EB0200A94105D24046214632
:1003200090461C460B46024623F00040104347D03F
:10033000270DC7F30A00C3F30A510290401A019037
:1003400040286BDAC3F3130040F4801B00989246F8
:1003500020B10023D2EB030A63EB0B0B0198594643
:10036000C0F14002504600F044FA06460D465046A1
:100370005946019A00F05CFA10EB08006141002434
:1003800087EA115284EAE7731A4340D0009A62B3B5
:10039000019A012A4FEA075215DC001B61EB0201AA
:1003A0004FF0004202EA0752CDE90042001C41F53D
:1003B000801132462B4600F093FA03B0BDE8F08F6F
:1003C00040462146F9E7001B61EB0201001C41F5A4
:1003D000801300185B412018A2F5001747EB0301BA
:1003E00040EAD570B6196D4111E06D084FEA360646
:1003F00045EAC0754FEA0752001B61EB0201001C81
:1004000041F5801149084FEA300000195141324648
:100410002B4603B0BDE8F04F00F053BA009801221C
:1004200040000023D0EB020263EBE073009821460A
:100430004FEAE074B8EB000061EB0401E9E783F0F8
:1004400000435BE781F0004158E72DE9FE4F81EA68
:10045000030404F0004421F0004100944FF0000B2D
:1004600023F0004350EA01045ED052EA03045BD05B
:10047000C3F30A54C1F30A552C44A4F2F334019493
:10048000A0FB0254C1F3130141F48011C3F3130321
:1004900043F4801301FB024400FB034E840A970AD5
:1004A00044EA815447EA8357A4FB076802958D0A02
:1004B00005FB07854FEA932C04FB0C542705029D8E
:1004C0004FEA065847EA1637B5EB08056EEB070CFE
:1004D000870E920E47EA811742EA8312A7FB0201B8
:1004E000B6EB0B0164EB00042B0D43EA0C335E18F2
:1004F00044EB1C50DA465146E7FB0201C5F31304F6
:100500004FEA0B3343EA14534FEA0432019C43EAA7
:100510000603A4F10C040294009CCDE900B400F0A1
:10052000DFF903B0BDE8F08F00200146F9E72DE9BF
:10053000F04D81EA030404F0004B21F0004514461D
:100540004FF0000A23F0004150EA050220D054EA9F
:1005500001021DD0C5F30A570246C5F31303C1F3C8
:100560001300C1F30A5640F4801543F48013A7EB3F
:100570000608101BD64608F2FD3873EB050002D3BF
:1005800008F1010801E092185B41B8F1000F03DAAD
:1005900000200146BDE8F08D00204FF48011064692
:1005A00084460EE0171B73EB050705D3121B63EBA4
:1005B000050306434CEA010C49084FEA3000921843
:1005C0005B4150EA0107EDD152EA030012D082EA02
:1005D000040083EA0501084305D0101BAB4106D295
:1005E0000122002306E000224FF0004302E06FF0FA
:1005F000010253101AEB06004CEB085110EB0A00F5
:1006000041EB0B01BDE8F04D00F05BB9002801DBC8
:10061000C0F10040002901DBC1F10041814201D35A
:100620000120704700207047002801DBC0F1004026
:10063000002901DBC1F10041814201D9012070474D
:100640000020704730B5041E71F1000404DB4FF048
:100650000044404264EB0101141E73F1000405DB09
:100660001C464FF00043524263EB0403801A994149
:1006700001D3012030BD002030BD30B5041E71F122
:10068000000404DB4FF00044404264EB0101141EFF
:1006900073F1000405DB1C464FF00043524263EB4C
:1006A0000403101A8B4101D2012030BD002030BD5F
:1006B00030B5041E71F1000404DB4FF000444042E9
:1006C00064EB0101141E73F1000405DB1C464FF0BE
:1006D0000043524263EB0403101A8B4101D3012003
:1006E00030BD002030BDC10F80EAE0700844CA0769
:1006F0009623002100F0B7B896230022114600F09F
:10070000B2B80EB5C10F80EAE0700844CA070021F4
:1007100040F233438DE80E000A460B4600F0E0F845
:1007200003B000BD00F0004220F00040C10DC0F356
:10073000160040F400007F2901DA00207047962956
:1007400003DCC1F19601C84001E096398840002AD7
:10075000F4D04042704770B5C1F30A5201F0004531
:100760000024C1F3130140F2FF3341F480119A4297
:1007700001DA002070BD40F233439A42A2F23342C4
:1007800003DC524200F044F800E090402C43F1D0EA
:10079000404270BD00F0004230F000400AD0C10D70
:1007A00001F56071C0F3160042EA0151C20840072A
:1007B0001143704700200146704701F0004330B4F8
:1007C00021F0004150EA010206D00A0DA2F5607244
:1007D000C1F31301002A02DC30BC00207047440F33
:1007E00044EAC104C100E01830BC00EBC25000F084
:1007F00031B8202A04DB203A00FA02F100207047C9
:100800009140C2F1200320FA03F31943904070474E
:10081000202A04DB203A21FA02F00021704721FA55
:1008200002F3D040C2F120029140084319467047BC
:10083000202A06DBCB17203A41FA02F043EAE073A4
:1008400006E041FA02F3D040C2F120029140084391
:10085000194670470029A8BF7047401C490008BFCF
:1008600020F00100704710B4B0FA80FC00FA0CF0E0
:1008700050EA010404BF10BC704749B1CCF1200418
:1008800021FA04F411FA0CF118BF012121430843A5
:10089000A3EB0C01CB1D4FEA00614FEA102042BFD1
:1008A000002010BC704700EBC35010440029A4BFC7
:1008B00010BC7047401C490008BF20F0010010BC6C
:1008C000704710B5141E73F1000408DA401C41F1A2
:1008D000000192185B411A4301D120F0010010BDC4
:1008E0002DE9F04D92469B4611B1B1FA81F202E03A
:1008F000B0FA80F220329046FFF77BFF04460F46A5
:1009000040EA0A0041EA0B0153465A46084313D015
:10091000114653EA010019D0C8F140025046FFF7D2
:1009200077FF05460E46504659464246FFF761FF9F
:10093000084305D0012004E020463946BDE8F08D8B
:100940000020054346EAE0762C4337430A986305C6
:10095000E40AA0EB08000022FD0A44EA47540A30EA
:1009600002D500200146E9E7010510196941DDE9DA
:10097000084500196941BDE8F04DA2E770B521F0C6
:10098000004303430CD0C1F30A550024D5EB040502
:1009900064EB0403D617AD1AB34102DB0020014615
:1009A00070BD201841EB025170BD2DE9F04D0023C0
:1009B0001A461B1A8A4103DB00200146BDE8F08D70
:1009C000C1F30A52C1F3130141F480154FF0000B3B
:1009D000D10702D100186D41521E0027044640F293
:1009E000FF11384601EB620A3E468046024600206F
:1009F0004FF48011FFF70CFFC2197141BB1846EB91
:100A00000100B4EB030C75EB000C04D3E41A65EBA6
:100A1000000517460E46241908F101006D41804675
:100A20003428E3DDF91946EB0600091BA84103D27F
:100A30004FF0FF32134601E0002213461BEB070084
:100A400046EB0A51BDE8F04DFFF73BBF30B5041E41
:100A500071F1000404DB4FF00044404264EB0101FB
:100A6000141E73F1000405DB1C464FF00043524294
:100A700063EB04038B4208BF824230BD064C074D36
:100A800006E0E06840F0010394E80700984710345E
:100A9000AC42F6D3FFF72EFBC8610008E8610008FE
:100AA000FFE7FEE77047000081B0EFF3108072B6F9
:100AB0000090FFE7FEE7000090B00F900E9100203D
:100AC0000D900990FFE70E9800680D99C840002826
:100AD00000F08781FFE70D98012101FA00F00C90EA
:100AE0000E9800680C9908400B900B980C9988425E
:100AF00040F07381FFE70E9840680028059051D0C0
:100B0000FFE7059801283AD0FFE7059802283FD073
:100B1000FFE70598032860D0FFE70598112832D039
:100B2000FFE70598122838D0FFE70020C1F2110036
:100B30000599814236D0FFE70020C1F212000599E5
:100B400081422FD0FFE70020C1F2210005998142A8
:100B500028D0FFE70020C1F222000599814221D070
:100B6000FFE70020C1F23100059981421AD0FFE76A
:100B70000020C1F232000599814213D030E00E9876
:100B8000C06809902DE00E98C0680430099028E0F4
:100B90000E98C0680830099023E00E98C0680C30A9
:100BA00009901EE00E988068002803D1FFE704201A
:100BB000099011E00E988068012806D1FFE708200F
:100BC00009900C980F99086105E0082009900C988D
:100BD0000F994861FFE7FFE703E00020099000E07C
:100BE000FFE70B98FF2803D8FFE70F98049003E076
:100BF0000F9804300490FFE7049808900B98FF28A2
:100C000004D8FFE70D988000039006E00D986FF080
:100C10001F0101EB80000390FFE7039807900898FD
:100C2000006807990F228A409043099A02FA01F15D
:100C30000843089908600E98C079C006002840F162
:100C4000CB80FFE7FFE741F21800C4F20200016821
:100C500041F001010160006800F001000690069873
:100C6000FFE70D9820F003000821C4F2010140586D
:100C70000A900D9800F0030080000F2101FA00F0A7
:100C80000A9921EA00000A900F9840F60001C4F288
:100C90000101884203D1FFE70020029026E00F986F
:100CA00040F60041C4F20101884203D1FFE7012070
:100CB000019018E00F9841F20001C4F2010188424E
:100CC00003D1FFE7022000900AE00F9841F20041B3
:100CD000C4F201010422884208BF03220092FFE708
:100CE00000980190FFE701980290FFE702980D99A4
:100CF00001F00301890088400A9908430A900A9884
:100D00000D9921F003010822C4F2010288500E98C7
:100D10008079C007002809D0FFE70B9840F2004116
:100D2000C4F201010A681043086009E00B9840F220
:100D30000041C4F201010A6822EA00000860FFE7EE
:100D40000E9880798007002809D5FFE70B9840F2BC
:100D50000441C4F201010A681043086009E00B98DD
:100D600040F20441C4F201010A6822EA000008606E
:100D7000FFE70E988079C006002809D5FFE70B9899
:100D800040F20841C4F201010A681043086009E01A
:100D90000B9840F20841C4F201010A6822EA0000FF
:100DA0000860FFE70E9880798006002809D5FFE7E4
:100DB0000B9840F20C41C4F201010A68104308602C
:100DC00009E00B9840F20C41C4F201010A6822EAE2
:100DD00000000860FFE7FFE7FFE70D9801300D9086
:100DE00071E610B07047000082B013468C46019047
:100DF000ADF802108DF801209DF80100002805D003
:100E0000FFE7BDF802000199086105E0BDF80200A6
:100E1000000401990861FFE702B0704740F2C42066
:100E2000C2F200000068704780B58EB00C900C983C
:100E3000002804D1FFE701208DF837004DE10C9820
:100E400090F83D00002808D1FFE70C98002180F8B9
:100E50003C100C9800F0D4FCFFE70C98242180F89B
:100E60003D100C980068016821F0010101600C98A8
:100E70000068016841F4004101600C980068016855
:100E800021F40041016000F051FF0A900C98406885
:100E900048F2A061C0F2010188420BD8FFE70A982E
:100EA00048F28041C0F21E010022884238BF012270
:100EB00009920AE00A9840F60011C0F23D010022B2
:100EC000884238BF01220992FFE70998012804D11E
:100ED000FFE701208DF83700FFE00A984DF68361A7
:100EE000C4F21B31A0FB0101890C0B910C9909681C
:100EF000496821F03F010B9A11430C9A1268516026
:100F00000C990968096A21F03F010C9A526848F26D
:100F1000A063C0F201039A42089104D8FFE70B983E
:100F2000013007900EE00B984FF49671484344F659
:100F3000D351C1F26201A0FB0101012202EB911128
:100F40000791FFE70798089908430C9A1268106206
:100F50000C980068C0694CF6FF7290430C9A526876
:100F600048F2A063C0F201039A4206901FD8FFE73F
:100F70000A9801380C9949684900B0FBF1F001303A
:100F80006FF31F30032803D8FFE7042005900BE020
:100F90000A9801380C9949684900B0FBF1F001301A
:100FA0006FF31F300590FFE7059804904FE00C9811
:100FB000806800280DD1FFE70A9801380C9949682C
:100FC00001EB4101B0FBF1F001306FF31F300390F2
:100FD0000DE00A9801380C99496819225143B0FB79
:100FE000F1F00130042161F31F300390FFE7039813
:100FF0000005002803D1FFE70120029024E00C98AF
:10100000806800280DD1FFE70A9801380C994968DB
:1010100001EB4101B0FBF1F001306FF31F300190A3
:101020000DE00A9801380C99496819225143B0FB28
:10103000F1F00130042161F31F300190FFE70198C6
:1010400040F400400290FFE702980490FFE7049804
:10105000069908430C9A1268D0610C9800680068E1
:1010600020F0C0000C9A1368D2F81CC0126A42EA41
:101070000C02104318600C980068806848F2FF3238
:1010800090430C9A1368D2F80CC0126942EA0C0221
:10109000104398600C980068C06820F0FF000C9A1C
:1010A0001368D2F814C0926942EA0C021043D86067
:1010B0000C980068026842F0010202600C9800225D
:1010C00002640C98202380F83D300C9802630C9841
:1010D00080F83E208DF83720FFE79DF837000EB0EE
:1010E00080BD0000F0B595B0DDF870C0DDF86CE0B3
:1010F0001A9C1D4616460F460F90ADF83A10ADF8F3
:101100003820ADF83630ADF834E000200C90CDF842
:1011100018C00594049503960297FFF77FFE0B9085
:101120000F9890F83D00202840F04982FFE70F9883
:101130000B996A4611600221C0F2100101221923A5
:1011400002F072F9002804D0FFE702208DF8430076
:1011500039E2FFE70F9890F83C00012804D1FFE73F
:1011600002208DF843002EE20F98012180F83C10F8
:10117000FFE7FFE70F9800680068C007002807D165
:10118000FFE70F980068016841F001010160FFE787
:101190000F980068016821F4006101600F98222116
:1011A00080F83D100F98402180F83E100F980021E4
:1011B00001641A980F994862BDF834000F99488568
:1011C0000F98408D0F9908850F980021CFF6FF7179
:1011D000C1620F98BDF83A10BDF83820BDF836301E
:1011E000DDF870C0DDF82CE06C46C4F804E0C4F80B
:1011F00000C001F01DFF002804D0FFE701208DF89A
:101200004300E0E10F98008D002814D1FFE7FFE7CD
:1012100000200A900F98006840690A900F980068B3
:1012200080690A900A98FFE70F980068016841F406
:10123000007101605DE00F98008D01281FD1FFE76C
:101240000F980068016821F480610160EFF310805D
:1012500072B61190FFE7002009900F98006840696E
:1012600009900F980068806909900998FFE70F9826
:101270000068016841F40071016062B638E00F98BF
:10128000008D02281FD1FFE70F980068016841F424
:1012900000610160EFF3108072B61290FFE700204A
:1012A00008900F980068406908900F98006880695E
:1012B00008900898FFE70F980068016821F48061A2
:1012C000016062B613E00F980068016841F4806124
:1012D0000160FFE7002007900F98006840690790C1
:1012E0000F980068806907900798FFE7FFE7FFE71E
:1012F000FFE7FFE70F98008D002800F04E81FFE721
:101300000F98008D032800F20B81FFE70F98008DE6
:1013100001281FD1FFE70F981C990B9A02F070F972
:10132000002804D0FFE701208DF843004BE10F981F
:10133000006800690F99496A08700F98416A013185
:1013400041620F98018D013901850F98418D013956
:101350004185E4E00F98008D022842D1FFE70F9805
:101360001C9B0B996A4611600421C0F20101002206
:1013700002F05AF8002804D0FFE701208DF843005E
:1013800021E1EFF3108072B613900F9800680168A6
:1013900041F4007101600F98006800690F99496A73
:1013A00008700F98416A013141620F98018D01392F
:1013B00001850F98418D0139418562B60F9800680B
:1013C00000690F99496A08700F98416A01314162BA
:1013D0000F98018D013901850F98418D01394185A3
:1013E0009CE00F981C9B0B996A4611600421C0F287
:1013F0000101002202F018F8002804D0FFE70120C4
:101400008DF84300DFE00F980068016821F48061E7
:101410000160EFF3108072B614900F9800680069B5
:101420000F99496A08700F98416A013141620F981B
:10143000018D013901850F98418D0139418540F2B7
:101440000800C2F20000006848F21F51C5F2EB111B
:10145000A0FB0101C90844F6D352C1F26202A1FB0C
:101460000212920923235A430C92FFE70C98013889
:101470000C900C9800281AD1FFE70F980021016307
:101480000F98202280F83D200F9880F83E100F988A
:10149000016C41F02001016462B6FFE70F98002162
:1014A00080F83C10FFE701208DF843008BE0FFE758
:1014B0000F980068406900F004000021B1EB900F24
:1014C000D4D0FFE70F980068016841F40071016013
:1014D0000F98006800690F99496A08700F98416A6F
:1014E000013141620F98018D013901850F98418DBD
:1014F0000139418562B60F98006800690F99496A01
:1015000008700F98416A013141620F98018D0139CD
:1015100001850F98418D01394185FFE7FFE73BE0E9
:101520000F981C990B9A02F06BF8002804D0FFE783
:1015300001208DF8430046E00F98006800690F997C
:10154000496A08700F98416A013141620F98018D14
:10155000013901850F98418D013941850F98006847
:10156000406900F004000121B1EB900F13D1FFE7B7
:101570000F98006800690F99496A08700F98416ACE
:10158000013141620F98018D013901850F98418D1C
:1015900001394185FFE7FFE7ACE60F98202180F88D
:1015A0003D100F98002180F83E10FFE70F980021B2
:1015B00080F83C10FFE700208DF8430003E0022094
:1015C0008DF84300FFE79DF8430015B0F0BD000023
:1015D000F0B58DB0DDF850C0DDF84CE0129C1D4632
:1015E00016460F460B90ADF82A10ADF82820ADF83E
:1015F0002630ADF824E0CDF81CC00694059504967D
:101600000397FFF70BFC08900B9890F83D002028FB
:1016100040F0ED80FFE70B9808996A4611600221BF
:10162000C0F210010122192301F0FEFE002804D0AF
:10163000FFE702208DF83300DDE0FFE70B9890F81C
:101640003C00012804D1FFE702208DF83300D2E0EE
:101650000B98012180F83C10FFE7FFE70B9800682A
:101660000068C007002807D1FFE70B9800680168F1
:1016700041F001010160FFE70B980068016821F467
:10168000006101600B98212180F83D100B984021EA
:1016900080F83E100B980021016412980B99486263
:1016A000BDF824000B9948850B98408D0B9908854F
:1016B0000B980021CFF6FF71C1620B98BDF82A107C
:1016C000BDF82820BDF82630DDF850C0DDF820E058
:1016D0006C46C4F804E0C4F800C001F0ABFD00287B
:1016E00004D0FFE701208DF8330084E0FFE70B987A
:1016F000008D00284BD0FFE70B981499089A01F051
:10170000E3FF002810D0FFE70B98006C042807D1F6
:10171000FFE70B980068016841F400710160FFE782
:1017200001208DF8330066E00B980168406A00786C
:1017300008610B98416A013141620B98018D0139B2
:1017400001850B98418D013941850B9800684069EE
:1017500000F004000121B1EB900F17D1FFE70B98C7
:10176000008D002812D0FFE70B980168406A0078CE
:1017700008610B98416A013141620B98018D013972
:1017800001850B98418D01394185FFE7AFE70B9843
:101790001499089A01F0FAFD002810D0FFE70B9881
:1017A000006C042807D1FFE70B980068016841F43A
:1017B00000710160FFE701208DF833001BE00B98FA
:1017C0000068016841F4007101600B98202180F8E5
:1017D0003D100B98002180F83E10FFE70B98002188
:1017E00080F83C10FFE700208DF8330003E0022072
:1017F0008DF83300FFE79DF833000DB0F0BD000019
:1018000080B588B007900020069005900490039062
:101810000798006845F20041C4F2000188423ED1B9
:10182000FFE7FFE741F21800C4F20200016841F04F
:1018300008010160006800F0080002900298FFE7CC
:101840004FF440700390122004900320069040F65D
:101850000040C4F2010003A9FFF72EF9FFE70420BE
:10186000C4F2010001680191019941F0E061019128
:10187000019941F00201019101990160FFE7FFE741
:1018800041F21C00C4F20200016841F40011016041
:10189000006800F4001000900098FFE7FFE708B030
:1018A00080BD000040F21000C2F20000007840F25B
:1018B000C421C2F200010A681044086070470000A9
:1018C00080B582B042F20000C4F20200016841F02B
:1018D00010010160032000F0C5F80020019000F025
:1018E00007F8009000F060F8019802B080BD000099
:1018F00080B58EB00C900020069005900C991C22AB
:1019000002901046029B01921A4600F08BF8019853
:1019100000F07CF8FFE741F21C00C4F2020001680D
:1019200041F001010160006800F00100039003989C
:10193000FFE707A804A900F0C9F900F0F7F9400093
:10194000069006984DF68361C4F21B31A0FB01019D
:101950004FF0FF3202EB9141059140F2B811C2F213
:1019600000014FF080420A6040F2E732CA60059AF7
:101970004A6000220A618A600090084600F02AFE50
:10198000002809D1FFE740F2B810C2F2000000F0D1
:1019900079FE8DF8370003E001208DF83700FFE76E
:1019A0009DF837000EB080BD83B0FFE741F218000C
:1019B000C4F20200016841F001010160006800F01A
:1019C000010002900298FFE7FFE741F21C00C4F219
:1019D0000200016841F080510160006800F0805011
:1019E00001900198FFE7FFE70420C4F201000168BD
:1019F0000091009921F0E0610091009941F000719F
:101A0000009100990160FFE703B0704780B582B094
:101A100001468DF807009DF90700009103F0FCFBDB
:101A200002B080BD80B588B003468DF81F000691D6
:101A3000059200200490039303F008FC04909DF9A4
:101A40001F000499069A059B0290084611461A4603
:101A500003F002F9029901900846019903F0FEFB98
:101A600008B080BD80B582B00190019803F018FCE9
:101A700002B080BD80B584B0029001910298002828
:101A800004D1FFE701208DF80F001BE1019842F21D
:101A90000001C4F20201096801F00701884216D969
:101AA000FFE742F20000C4F20200016821F00701E2
:101AB000019A11430160006800F007000199884213
:101AC00004D0FFE701208DF80F00FBE0FFE702984C
:101AD0000078800700282AD5FFE7029800784007A1
:101AE000002809D5FFE741F20400C4F202000168B2
:101AF00041F4E0610160FFE70298007800070028E8
:101B000009D5FFE741F20400C4F20200016841F484
:101B100060510160FFE741F20400C4F20200016875
:101B200021F0F001029A926811430160FFE70298E8
:101B30000078C007002860D0FFE7029840680128BD
:101B40000ED1FFE741F20000C4F2020000688003FA
:101B5000002804D4FFE701208DF80F00B2E021E057
:101B60000298406802280ED1FFE741F20000C4F25B
:101B7000020000688001002804D4FFE701208DF8EE
:101B80000F009FE00DE041F20000C4F20200006887
:101B90008007002804D4FFE701208DF80F0091E0B2
:101BA000FFE7FFE741F20400C4F20200016821F000
:101BB0000301029A526811430160FFF72FF9009068
:101BC000FFE741F20400C4F20200006800F00C00DC
:101BD00002994968B0EB810F0ED0FFE7FFF71EF9BD
:101BE0000099401A41F28931884204D3FFE703206B
:101BF0008DF80F0066E0E4E7FFE7019842F200018C
:101C0000C4F20201096801F00701884216D2FFE719
:101C100042F20000C4F20200016821F00701019ABB
:101C200011430160006800F007000199884204D068
:101C3000FFE701208DF80F0044E0FFE702980078ED
:101C4000400700280CD5FFE741F20400C4F202006F
:101C5000016821F4E061029AD26811430160FFE754
:101C600002980078000700280DD5FFE741F2040034
:101C7000C4F20200016821F46051029A126941EA3B
:101C8000C2010160FFE700F075F841F20401C4F2FF
:101C900002010968C9B2090946F2B012C0F6000291
:101CA000515CC84040F20801C2F20001086040F2F5
:101CB0001400C2F200000068FFF71AFE00218DF840
:101CC0000F10FFE79DF80F0004B080BD82B00190B7
:101CD000009101980F21016041F20400C4F202005A
:101CE000016801F00301019A5160016801F0F001FF
:101CF000019A9160016801F4E061019AD160006885
:101D000000F46050C0080199086142F20000C4F27A
:101D10000200006800F007000099086002B07047F8
:101D200040F20800C2F200000068704780B5FFF77B
:101D3000F7FF41F20401C4F202010968C1F3022174
:101D400046F2C012C0F60002515CC84080BD0000DF
:101D500080B5FFF7E5FF41F20401C4F20201096812
:101D6000C1F3C22146F2C012C0F60002515CC84065
:101D700080BD00008BB040F60E70C1F210000A90DA
:101D800040F60A30C0F60C50099040F20670C0F6DA
:101D90000810089040F20230C0F20450079040F260
:101DA0000120ADF81A0000200590049003900290E5
:101DB000019041F20400C4F2020000680590059809
:101DC00000F00C000146002800913DD0FFE700988C
:101DD000042804D0FFE70098082806D035E041F237
:101DE0000020C0F27A00019035E00598C0F38340EE
:101DF00007A9085C02909DF81600C007002818D0BB
:101E0000FFE741F20400C4F20200006800F4003071
:101E10000DF11A0141EA504000780490029841F215
:101E20000021C0F27A0148430499B0FBF1F003901D
:101E300007E0029840F60011C0F23D0148430390CC
:101E4000FFE70398019006E0FFE741F20020C0F2AF
:101E50007A000190FFE701980BB0704780B586B01B
:101E600004900498002804D1FFE701208DF81700A2
:101E700035E304980078C007002800F0B180FFE740
:101E800041F20400C4F20200006800F00C000428D3
:101E900013D0FFE741F20400C4F20200006800F032
:101EA0000C0008281CD1FFE741F20400C4F2020034
:101EB0000068C003002813D5FFE741F20000C4F218
:101EC000020000688003002809D5FFE704984068F5
:101ED000002804D1FFE701208DF81700FFE27EE023
:101EE000FFE704984068B0F5803F09D1FFE741F271
:101EF0000000C4F20200016841F48031016033E067
:101F00000498406800280DD1FFE741F20000C4F2B8
:101F10000200016821F480310160016821F4802110
:101F2000016020E004984068B0F5A02F0DD1FFE7D4
:101F300041F20000C4F20200016841F48021016016
:101F4000016841F4803101600CE041F20000C4F20C
:101F50000200016821F480310160016821F48021D0
:101F60000160FFE7FFE7FFE7FFE70498406800280C
:101F70001AD0FFE7FEF752FF0390FFE741F200009F
:101F8000C4F202000068800300280CD4FFE7FEF7CB
:101F900045FF0399401A652804D3FFE703208DF815
:101FA00017009CE2EAE719E0FEF738FF0390FFE72D
:101FB00041F20000C4F202000068800300280CD542
:101FC000FFE7FEF72BFF0399401A652804D3FFE7CC
:101FD00003208DF8170082E2EAE7FFE7FFE7FFE75B
:101FE000049800788007002840F18E80FFE741F2D6
:101FF0000400C4F20200006810F00C0F13D0FFE7D9
:1020000041F20400C4F20200006800F00C0008284D
:1020100029D1FFE741F20400C4F202000068C003C6
:10202000002820D4FFE741F20000C4F2020000685B
:102030008007002809D5FFE704980069012804D02B
:10204000FFE701208DF8170049E241F20000C4F2D9
:102050000200016821F0F801049A526941EAC201C4
:102060000160FFE74FE00498006900282BD0FFE7EC
:102070000020C4F2422001210160FEF7CFFE039050
:10208000FFE741F20000C4F2020000688007002868
:102090000CD4FFE7FEF7C2FE0399401A032804D3CD
:1020A000FFE703208DF8170019E2EAE741F200008C
:1020B000C4F20200016821F0F801049A526941EA71
:1020C000C20101601EE00020C4F242200021016034
:1020D000FEF7A4FE0390FFE741F20000C4F2020005
:1020E0000068800700280CD5FFE7FEF797FE0399EC
:1020F000401A032804D3FFE703208DF81700EEE110
:10210000EAE7FFE7FFE7FFE7049800780007002809
:1021100049D5FFE704988069002823D0FFE740F203
:102120008040C4F2422001210160FEF777FE039057
:10213000FFE741F22400C4F2020000688007002893
:102140000CD4FFE7FEF76AFE0399401A032804D374
:10215000FFE703208DF81700C1E1EAE7012002F054
:10216000D9FD1FE040F28040C4F24220002101600E
:10217000FEF754FE0390FFE741F22400C4F2020090
:102180000068800700280CD5FFE7FEF747FE03999B
:10219000401A032804D3FFE703208DF817009EE1BF
:1021A000EAE7FFE7FFE7049800784007002840F1DE
:1021B000DA80FFE700208DF8070041F21C00C4F22E
:1021C00002000068C000002813D4FFE7FFE741F2D7
:1021D0001C00C4F20200016841F0805101600068F7
:1021E00000F0805000900098FFE701208DF8070074
:1021F000FFE747F20000C4F200000068C0050028B5
:1022000022D4FFE747F20000C4F20000016841F465
:1022100080710160FEF702FE0390FFE747F20000C5
:10222000C4F200000068C00500280CD4FFE7FEF7E8
:10223000F5FD0399401A652804D3FFE703208DF8C4
:1022400017004CE1EAE7FFE7FFE70498C0680128C0
:1022500009D1FFE741F22000C4F20200016841F019
:102260000101016032E00498C06800280DD1FFE749
:1022700041F22000C4F20200016821F00101016076
:10228000016821F0040101601FE00498C06805287E
:102290000DD1FFE741F22000C4F20200016841F0D5
:1022A00004010160016841F0010101600CE041F2AC
:1022B0002000C4F20200016821F001010160016800
:1022C00021F004010160FFE7FFE7FFE7FFE7049863
:1022D000C06800281CD0FFE7FEF7A0FD0390FFE7D1
:1022E00041F22000C4F202000068800700280ED4EA
:1022F000FFE7FEF793FD0399401A41F289318842C6
:1023000004D3FFE703208DF81700E8E0E8E71BE0BF
:10231000FEF784FD0390FFE741F22000C4F20200C3
:102320000068800700280ED5FFE7FEF777FD0399C8
:10233000401A41F28931884204D3FFE703208DF827
:102340001700CCE0E8E7FFE79DF80700012809D176
:10235000FFE741F21C00C4F20200016821F0805145
:102360000160FFE7FFE70498C069002800F0B38030
:10237000FFE741F20400C4F20200006800F00C0024
:10238000082800F08280FFE70498C06902285CD129
:10239000FFE76020C4F2422000210160FEF73EFD0D
:1023A0000390FFE741F20000C4F2020000688001E0
:1023B00000280CD5FFE7FEF731FD0399401A0328EA
:1023C00004D3FFE703208DF8170088E0EAE70498BC
:1023D000006AB0F5803F0CD1FFE741F20400C4F27F
:1023E0000200016821F40031049A926811430160EF
:1023F000FFE741F20400C4F20200016821F4741105
:10240000049A136A526A1A43114301606020C4F2AD
:10241000422001210160FEF701FD0390FFE741F238
:102420000000C4F202000068800100280CD4FFE71D
:10243000FEF7F4FC0399401A032804D3FFE70320B6
:102440008DF817004BE0EAE71EE06020C4F242205E
:1024500000210160FEF7E2FC0390FFE741F200007B
:10246000C4F202000068800100280CD5FFE7FEF7E7
:10247000D5FC0399401A032804D3FFE703208DF805
:1024800017002CE0EAE7FFE724E00498C069012880
:1024900004D1FFE701208DF8170020E041F204008D
:1024A000C4F2020000680290029800F4803004999F
:1024B000096A884208D1FFE7029800F47010049975
:1024C000496A884204D0FFE701208DF8170006E032
:1024D000FFE7FFE7FFE700208DF81700FFE79DF813
:1024E000170006B080BD000081B0009001B07047B9
:1024F00081B0009001B0704785B003900291FFE772
:10250000039890F83C00012804D1FFE702208DF8E1
:1025100013005BE00398012180F83C10FFE7FFE720
:102520000398022180F83D100398006840680190EC
:102530000398006880680090019820F07000019076
:10254000029800680199084301900198039909686D
:1025500048600398006842F60041C4F201018842D5
:1025600018D0FFE703980068B0F1804F12D0FFE762
:102570000398006840F20041C4F20001884209D08B
:10258000FFE70398006840F60001C4F200018842AA
:102590000ED1FFE7009820F080000090029840687C
:1025A0000099084300900098039909688860FFE744
:1025B0000398012180F83D10FFE70398002180F87F
:1025C0003C10FFE700208DF81300FFE79DF8130093
:1025D00005B0704780B584B002900298002804D1FD
:1025E000FFE701208DF80F0043E0029890F83D00CE
:1025F000002808D1FFE70298002180F83C100298DB
:1026000000F03CF8FFE70298022180F83D100298A4
:1026100050F8041B01900846019902F019FC029839
:10262000012180F84610FFE70298012180F83E1052
:10263000029880F83F10029880F84010029880F8C5
:102640004110FFE7FFE70298012180F8421002984D
:1026500080F84310029880F84410029880F84510E2
:10266000FFE70298012180F83D1000208DF80F004F
:10267000FFE79DF80F0004B080BD000081B000901E
:1026800001B0704783B00190019890F83D00012897
:1026900004D0FFE701208DF80B0047E001980221EC
:1026A00080F83D1001980068C16841F00101C160E7
:1026B0000198006842F60041C4F20101884218D036
:1026C000FFE701980068B0F1804F12D0FFE7019852
:1026D000006840F20041C4F20001884209D0FFE7DF
:1026E0000198006840F60001C4F20001884212D14E
:1026F000FFE701980068806800F0070000900098EC
:10270000062807D0FFE701980068016841F0010141
:102710000160FFE706E001980068016841F00101EF
:102720000160FFE700208DF80B00FFE79DF80B002C
:1027300003B0704780B582B001900198007F0128F6
:102740003BD1FFE701980068406B40F28C01C2F278
:102750000001486040F2AC00C2F20000016840F2A3
:102760000C00C2F20000027845F27540C0F600008D
:1027700040F2D423C2F2000303F01AFA40F2F82127
:10278000C2F2000108600868002815D0FFE740F297
:10279000D420C2F20000006800280CD0FFE74EF6FB
:1027A0000450CEF200004FF080510160BFF34F8F14
:1027B000BFF36F8FFFE7FFE7FFE70198007F022875
:1027C0003BD1FFE701980068806B40F28C01C2F2B8
:1027D0000001C86040F2AC00C2F20000016840F2A3
:1027E0000C00C2F20000427845F27540C0F60000CD
:1027F00040F2D423C2F2000303F0DAF940F2F821E8
:10280000C2F2000108600868002815D0FFE740F216
:10281000D420C2F20000006800280CD0FFE74EF67A
:102820000450CEF200004FF080510160BFF34F8F93
:10283000BFF36F8FFFE7FFE7FFE70198007F0428F2
:102840003BD1FFE701980068C06B40F28C01C2F2F7
:102850000001486140F2AC00C2F20000016840F2A1
:102860000C00C2F20000827845F27540C0F600000C
:1028700040F2D423C2F2000303F09AF940F2F821A7
:10288000C2F2000108600868002815D0FFE740F296
:10289000D420C2F20000006800280CD0FFE74EF6FA
:1028A0000450CEF200004FF080510160BFF34F8F13
:1028B000BFF36F8FFFE7FFE7FFE70198007F08286E
:1028C0003BD1FFE701980068006C40F28C01C2F236
:1028D0000001C86140F2AC00C2F20000016840F2A1
:1028E0000C00C2F20000C27845F27540C0F600004C
:1028F00040F2D423C2F2000303F05AF940F2F82167
:10290000C2F2000108600868002815D0FFE740F215
:10291000D420C2F20000006800280CD0FFE74EF679
:102920000450CEF200004FF080510160BFF34F8F92
:10293000BFF36F8FFFE7FFE7FFE702B080BD000046
:1029400080B588B0069005910492FFE7069890F84C
:102950003C00012804D1FFE702208DF81F0087E02A
:102960000698012180F83C10FFE7FFE70498002853
:102970001AD1FFE70698006805990A684B68C9688C
:10298000039111461A46039B02F0DAFA0698006892
:10299000816921F00C0181610598806806990968B8
:1029A0008A691043886159E0049804281BD1FFE725
:1029B0000698006805990A684B68C9680291114633
:1029C0001A46029B02F022FB06980068816921F4F6
:1029D0004061816105988068069909688A6942EAC0
:1029E0000020886139E0049808281AD1FFE706988A
:1029F000006805990A684B68C968019111461A4632
:102A0000019B02F039FB06980068C16921F00C01B6
:102A1000C1610598806806990968CA691043C86150
:102A20001AE00698006805990A684B68C968009121
:102A300011461A46009B02F055FB06980068C169D2
:102A400021F44061C1610598806806990968CA69E6
:102A500042EA0020C861FFE7FFE7FFE7FFE70698CB
:102A6000002180F83C10FFE700208DF81F00FFE7F1
:102A70009DF81F0008B080BD80B584B00290029818
:102A8000002804D1FFE701208DF80F0043E00298F1
:102A900090F83D00002808D1FFE70298002180F857
:102AA0003C10029800F03CF8FFE70298022180F801
:102AB0003D10029850F8041B01900846019902F05D
:102AC000C7F90298012180F84610FFE7029801211A
:102AD00080F83E10029880F83F10029880F840106D
:102AE000029880F84110FFE7FFE70298012180F883
:102AF0004210029880F84310029880F8441002981F
:102B000080F84510FFE70298012180F83D10002071
:102B10008DF80F00FFE79DF80F0004B080BD0000A6
:102B200080B58AB009900020089007900690059023
:102B30000998006842F60041C4F20101884238D188
:102B4000FFE7FFE741F21800C4F20200016841F418
:102B500000610160006800F4006004900498FFE7E1
:102B6000FFE741F21800C4F20200016841F00401DD
:102B70000160006800F0040003900398FFE74FF441
:102B80007060059000200690079040F60001C4F2A6
:102B9000010105AA029008461146FDF78DFF1B2092
:102BA00001900299029AFEF73DFF0198FEF72EFF71
:102BB000FFE70AB080BD000080B582B001900198A7
:102BC0000068006900F002000021B1EB500F29D02D
:102BD000FFE701980068C06800F002000021B1EB37
:102BE000500F1ED0FFE7019800686FF002010161ED
:102BF0000198012101770198006880698007002809
:102C000004D0FFE70198FFF795FD06E0019800F07A
:102C100015F9019800F016F9FFE7019800210177F6
:102C2000FFE7FFE701980068006900F00400002159
:102C3000B1EB900F29D0FFE701980068C06800F061
:102C400004000021B1EB900F1ED0FFE7019800684F
:102C50006FF0040101610198022101770198006879
:102C6000806910F4407F04D0FFE70198FFF762FD10
:102C700006E0019800F0E2F8019800F0E3F8FFE7C1
:102C8000019800210177FFE7FFE7019800680069DC
:102C900000F008000021B1EBD00F29D0FFE7019828
:102CA0000068C06800F008000021B1EBD00F1ED012
:102CB000FFE7019800686FF00801016101980421A5
:102CC000017701980068C0698007002804D0FFE7F9
:102CD0000198FFF72FFD06E0019800F0AFF801988A
:102CE00000F0B0F8FFE7019800210177FFE7FFE768
:102CF00001980068006900F010000021B1EB101F7E
:102D000029D0FFE701980068C06800F0100000219A
:102D1000B1EB101F1ED0FFE7019800686FF01001A3
:102D2000016101980821017701980068C06910F4D9
:102D3000407F04D0FFE70198FFF7FCFC06E0019814
:102D400000F07CF8019800F07DF8FFE70198002181
:102D50000177FFE7FFE7019800680069C0070028D6
:102D600011D0FFE701980068C068C007002809D0AB
:102D7000FFE7019800686FF001010161019800F020
:102D800065F8FFE7FFE7019800680069C0B200211D
:102D9000B1EBD01F13D0FFE701980068C068C0B244
:102DA0000021B1EBD01F09D0FFE7019800686FF058
:102DB000800101610198FFF797FBFFE7FFE70198AA
:102DC0000068006900F040000021B1EB901F14D0B2
:102DD000FFE701980068C06800F040000021B1EBF7
:102DE000901F09D0FFE7019800686FF04001016172
:102DF000019800F039F8FFE7FFE7019800680069E3
:102E000000F020000021B1EB501F14D0FFE7019823
:102E10000068C06800F020000021B1EB501F09D00D
:102E2000FFE7019800686FF0200101610198FFF74A
:102E30005FFBFFE7FFE702B080BD000081B00090BC
:102E400001B0704781B0009001B0704780B582B08A
:102E5000019001980068B0F1804F03D1FFE7FEF7C1
:102E600021FDFFE702B080BD81B0009001B0704746
:102E700080B582B000900098002804D1FFE70120BF
:102E80008DF8070040E000988069002801D0FFE736
:102E900000E0FFE7009890F83900002808D1FFE72C
:102EA0000098002180F83810009800F031F8FFE712
:102EB0000098242180F8391000980068C16821F436
:102EC0000051C160009802F043F900980068016960
:102ED00021F49041016100980068416921F02A01C4
:102EE000416100980068C16841F40051C1600098D8
:102EF0000021C1630098202280F83920009880F8D2
:102F00003A208DF80710FFE79DF8070002B080BD5A
:102F100080B58AB00990002008900790069005902F
:102F20000998006843F60001C4F20101884248D1C3
:102F3000FFE7FFE741F21800C4F20200016841F424
:102F400080410160006800F4804004900498FFE72D
:102F5000FFE741F21800C4F20200016841F00801E5
:102F60000160006800F0080003900398FFE740202C
:102F70000590022006900320089040F60040C4F21D
:102F8000010005A901900091FDF796FD80200590B4
:102F900000200690079001980099FDF78DFDFFE74E
:102FA0000420C4F2010001680291029941F0E0613D
:102FB0000291029941F00401029102990160FFE738
:102FC000FFE70AB080BD0000FFE7FEE782B0009097
:102FD00000980068406900F480600121B1EB902FF7
:102FE0001ED1FFE7009800686FF48061416100988E
:102FF000002101630098202280F83D20009880F88D
:103000003E100098016C41F004010164FFE7009854
:10301000002180F83C10FFE701208DF8070003E055
:1030200000208DF80700FFE79DF8070002B0704709
:1030300070B58CB0DDF844C0DDF840E01C461546A4
:103040000E460A90ADF82610ADF82420ADF82230D7
:103050000A980068016841F4806101600A9800687C
:10306000016841F4807101600A98109B11996A46C9
:1030700011604FF001110022CDF818C0CDF814E016
:1030800004940395029600F0CFF9002810D0FFE7D2
:103090000A9800680068C005002805D5FFE70A986F
:1030A0004FF400710164FFE703208DF82F00BDE0AD
:1030B000BDF8260000F0FE000A99096808610A9828
:1030C000109A119B0221C0F2010100F00FFA0028B2
:1030D00004D0FFE701208DF82F00A7E0FFE70020D4
:1030E00007900A980068406907900A98006880690C
:1030F00007900798FFE70A981099119A00F0E4FAF0
:10310000002810D0FFE70A98006C042807D1FFE7D9
:103110000A980068016841F400710160FFE701202E
:103120008DF82F0082E0BDF82200012806D1FFE7CC
:103130009DF824000A990968086122E09DF825009D
:103140000A99096808610A981099119A00F0BCFA66
:10315000002810D0FFE70A98006C042807D1FFE789
:103160000A980068016841F400710160FFE70120DE
:103170008DF82F005AE09DF824000A99096808612B
:10318000FFE70A981099119A00F09EFA002810D0D3
:10319000FFE70A98006C042807D1FFE70A98006847
:1031A000016841F400710160FFE701208DF82F00F4
:1031B0003CE00A980068016841F4807101600A9857
:1031C000109B11996A4611604FF00111002200F026
:1031D0002BF9002810D0FFE70A9800680068C005A6
:1031E000002805D5FFE70A984FF400710164FFE756
:1031F00003208DF82F0019E09DF8260040F0010013
:103200000A99096808610A98109A119B0221C0F274
:10321000010100F06BF9002804D0FFE701208DF8D0
:103220002F0003E000208DF82F00FFE79DF82F000E
:103230000CB070BD70B58CB0DDF844C0DDF840E076
:103240001C4615460E460A90ADF82610ADF824200F
:10325000ADF822300A980068016841F4807101607D
:103260000A98109B11996A4611604FF001110022D3
:10327000CDF818C0CDF814E004940395029600F040
:10328000D3F8002810D0FFE70A9800680068C0054E
:10329000002805D5FFE70A984FF400710164FFE7A5
:1032A00003208DF82F006CE0BDF8260000F0FE0032
:1032B0000A99096808610A98109A119B0221C0F2C4
:1032C000010100F013F9002804D0FFE701208DF878
:1032D0002F0056E0FFE7002007900A980068406939
:1032E00007900A980068806907900798FFE70A9896
:1032F0001099119A00F0E8F9002810D0FFE70A9819
:10330000006C042807D1FFE70A980068016841F4BF
:1033100000710160FFE701208DF82F0031E0BDF85A
:103320002200012806D1FFE79DF824000A990968C8
:10333000086122E09DF825000A99096808610A9849
:103340001099119A00F0C0F9002810D0FFE70A98F0
:10335000006C042807D1FFE70A980068016841F46F
:1033600000710160FFE701208DF82F0009E09DF852
:1033700024000A9909680861FFE700208DF82F00F2
:10338000FFE79DF82F000CB070BD000080B584B041
:10339000029001910092FFE702980068406900F0F6
:1033A00004000021B1EB900F36D1FFE70298FFF740
:1033B0000DFE002804D0FFE701208DF80F002FE05C
:1033C00001980130002826D0FFE7FDF727FD00997E
:1033D000401A0199884204D8FFE70198002819D1C2
:1033E000FFE70298002101630298202280F83D2027
:1033F000029880F83E100298016C41F020010164AF
:10340000FFE70298002180F83C10FFE701208DF8CB
:103410000F0005E0FFE7BFE700208DF80F00FFE792
:103420009DF80F0004B080BD80B586B0DDF820C0E7
:103430009646049003918DF80B200193FFE79DF8C9
:103440000E0001280CD1FFE7049800684069BDF820
:103450000C100840401AB0FA80F0400900900BE0D0
:10346000049800688069BDF80C100840401AB0FA52
:1034700080F040090090FFE700989DF80B1088420B
:103480002CD1FFE701980130002826D0FFE7FDF797
:10349000C5FC0899401A0199884204D8FFE70198B1
:1034A000002819D1FFE70498002101630498202225
:1034B00080F83D20049880F83E100498016C41F09B
:1034C00020010164FFE70498002180F83C10FFE729
:1034D00001208DF8170005E0FFE7B0E700208DF828
:1034E0001700FFE79DF8170006B080BD80B586B0D5
:1034F0000490039102920193FFE79DF80E000128CA
:103500000CD1FFE7049800684069BDF80C10084032
:10351000401AB0FA80F0400900900BE0049800686F
:103520008069BDF80C100840401AB0FA80F04009DC
:103530000090FFE7009800285AD1FFE70498006840
:10354000406900F480600121B1EB902F24D1FFE7A6
:1035500004980068016841F40071016004980068F3
:103560006FF4806141610498002101630498202276
:1035700080F83D20049880F83E100498016C41F0DA
:1035800004010164FFE70498002180F83C10FFE784
:1035900001208DF817002FE002980130002826D076
:1035A000FFE7FDF73BFC0199401A0299884204D8D5
:1035B000FFE70298002819D1FFE704980021016372
:1035C0000498202280F83D20049880F83E1004984A
:1035D000016C41F020010164FFE70498002180F8AC
:1035E0003C10FFE701208DF8170005E0FFE784E7B6
:1035F00000208DF81700FFE79DF8170006B080BD8A
:1036000080B584B0029001910092FFE702980068B3
:10361000406900F040000021B1EB901F4CD1FFE762
:1036200002980068406900F010000121B1EB101F02
:103630001CD1FFE7029800686FF010014161029809
:10364000002101630298202280F83D20029880F832
:103650003E100298016C0164FFE70298002180F897
:103660003C10FFE701208DF80F0029E0FDF7D6FBA5
:103670000099401A0199884204D8FFE70198002870
:1036800019D1FFE70298002101630298202280F8F7
:103690003D20029880F83E100298016C41F0200114
:1036A0000164FFE70298002180F83C10FFE7012049
:1036B0008DF80F0004E0A9E700208DF80F00FFE768
:1036C0009DF80F0004B080BD80B584B002900191D8
:1036D0000092FFE7029800684069C0B20021B1EB98
:1036E000D01F36D1FFE70298FFF770FC002804D006
:1036F000FFE701208DF80F002FE00198013000282E
:1037000026D0FFE7FDF78AFB0099401A019988420D
:1037100004D8FFE70198002819D1FFE7029800219B
:1037200001630298202280F83D20029880F83E1024
:103730000298016C41F020010164FFE7029800212A
:1037400080F83C10FFE701208DF80F0005E0FFE74F
:10375000C0E700208DF80F00FFE79DF80F0004B0D0
:1037600080BD000080B5B8B00020ADF8D800FFE7FC
:10377000BDF8D800B0F5FA6F5DDAFFE768464FF0A4
:10378000FF318160062141600DF1D201016040F2FC
:103790001C10C2F20000D02143220123FDF7A2FC3D
:1037A0009DF8D2109DF8D32042EA012109B227905A
:1037B0000846FCF798FF33909DF8D4009DF8D5108B
:1037C00041EA002000B2FCF78EFF32909DF8D6004F
:1037D0009DF8D71041EA002000B2FCF784FF319039
:1037E000339940F21010C2F2000002682690104691
:1037F000FCF7BCFC26990860329940F21410C2F222
:103800000000026825901046FCF7B0FC259908607E
:10381000319940F21810C2F200000268249010465C
:10382000FCF7A4FC24990860FFE7BDF8D80001303C
:10383000ADF8D8009CE740F21010C2F20000016819
:103840000022C4F2FA422390084611462292FCF765
:1038500017FD2399086040F21410C2F200000268BC
:10386000219010462299FCF70BFD2199086040F247
:103870001810C2F200000268209010462299FCF74E
:10388000FFFC209908600020ADF8C200FFE7BDF8FA
:10389000C200C72800F3CA80FFE768464FF0FF3137
:1038A0008160062141602FA9016040F21C10C2F224
:1038B0000000D0213B220123FDF714FC9DF8BC1031
:1038C0009DF8BD2042EA012109B21F900846FCF78D
:1038D0000AFF2E909DF8BE009DF8BF1041EA00201F
:1038E00000B2FCF700FF2D909DF8C0009DF8C110BC
:1038F00041EA002000B2FCF7F6FE2C902D9880F0F3
:103900000040FCF747FF2E9A1E9010461D9111466D
:10391000FCF784FC2C991C900846FCF77FFC1C9952
:103920001B9008461B99FCF721FCFCF733FF02F0C3
:10393000C7FB1E9A1A9010461D9B199119461A9A98
:10394000199BFCF7F4FD02F0DDF940F20402C2F22B
:10395000000213681890184617911692FCF71AFF88
:10396000189A15901046179B14911946159A149B96
:10397000FCF76BFD2B912A902E9880F00040FCF70D
:1039800009FF2C9A139010461291FCF703FF139A2B
:1039900011901046129B10911946119A109B02F03B
:1039A000C1FA169A13680F9018460E91FCF7F2FEB2
:1039B0000F9A0D9010460E9B0C9119460D9A0C9B78
:1039C000FCF743FD299128902A9A2B9B40F278001E
:1039D000C2F2000001680B9008460A920993FCF7B6
:1039E000D9FE0A9A099BFCF789FCFCF7E6FE0B99C5
:1039F0000860289A299B40F27C00C2F20000D0F8AF
:103A000000C00890604607920693FCF7C3FE079A31
:103A1000069BFCF773FCFCF7D0FE08990860FFE7F3
:103A2000BDF8C2000130ADF8C20030E740F27800C6
:103A3000C2F2000001680022C4F248320590084634
:103A400011460492FCF71CFC0599086040F27C00CA
:103A5000C2F200000268039010460499FCF710FCC3
:103A60000399086038B080BD81B00090009841F2A1
:103A70006F21C3F683210160009849F6A631C3F691
:103A80004431416000984CF28F21C3F6F5418160CA
:103A900000980021C1600098016100984161009880
:103AA00081610098C161009801620098416201B093
:103AB00070470000B0B5F2B068464FF0FF3181604A
:103AC0000E2141600DF5DD71016040F21C10C2F263
:103AD0000000D0213B220123FDF704FB9DF8BA1121
:103AE0009DF8BB2142EA012109B263900846FCF728
:103AF00008FE40F2B002C2F20002516010609DF870
:103B0000BC019DF8BD1141EA002000B26292FCF7B1
:103B1000F8FD40F2B802C2F20002516010609DF858
:103B2000BE019DF8BF1141EA002000B26192FCF78E
:103B3000E8FD40F2C002C2F20002516010609DF840
:103B4000C2019DF8C31141EA002000B26092FCF767
:103B5000D8FD40F2E002C2F20002516010609DF810
:103B6000C4019DF8C51141EA002000B25F92FCF744
:103B7000C8FD40F2F002C2F20002516010609DF8F0
:103B8000C60140EA002000B25E92FCF7BAFD40F2A6
:103B90000012C2F200025160106040F21010C2F236
:103BA000000000685D92FCF7F5FD5F9A1368D2F89B
:103BB00004C05C9018465B9161465C9A5B9BFCF785
:103BC0003EFC5F9A5160106040F21410C2F2000097
:103BD0000068FCF7DFFD5E9A1368D2F804C05A90C3
:103BE0001846599161465A9A599BFCF728FC5E9AEF
:103BF0005160106040F21810C2F200000068FCF73B
:103C0000C9FD5D9A1368D2F804C0589018465791C0
:103C10006146589A579BFCF712FC5D9A5160106000
:103C200040F2BC20C2F20000016840F2C023C2F2A0
:103C30000003196056905593FDF7F0F8FCF75CFD12
:103C4000569908600868559A1168FCF7E1FA002156
:103C5000C4F27A41FCF714FB40F2D801C2F2000131
:103C6000086061980068619A536883F00043DDF84A
:103C700088C1DCF800E0DCF80440549070465391B1
:103C80002146724652932346FCF7DFFB609A136885
:103C9000D2F804C051901846509161461A466346C6
:103CA000FCF7D3FB519A4F901046509B4E9119460A
:103CB0004F9A4E9BFCF722FB02F002FA549A4D9069
:103CC0001046529B4C9119464D9A4C9BFCF72FFC89
:103CD00002F018F840F20402C2F2000213684B909E
:103CE00018464A914992FCF755FD4B9A4890104668
:103CF0004A9B47911946489A479BFCF7A6FB6D9152
:103D00006C906298006862994A68609BD3F800C022
:103D10005B6882F00041624602F004F9499A136838
:103D2000469018464591FCF735FD469A449010465A
:103D3000459B43911946449A439BFCF786FB6B9144
:103D40006A9040F27C00C2F200000068FCF722FD9D
:103D50006A9A6B9B4290104641911946429A419B48
:103D6000FCF76DFB6B916A9040F27800C2F20000A4
:103D70000068FCF70FFD6C9A6D9B409010463F91D8
:103D80001946409A3F9BFCF75AFB6D916C905F98E7
:103D900000685F994968002246F20003C4F260039C
:103DA0003E923D93FCF7C3FB699168905E98006872
:103DB0005E9949683E9A3D9BFCF7B9FB6791669016
:103DC0005D9800685D9949683E9A3D9BFCF7AFFBA2
:103DD0006591649068986999539A13683C90184665
:103DE0003B91FCF7D7FC3C9A3A9010463B9B3991AB
:103DF00019463A9A399BFCF728FB40F2E802C2F2D6
:103E00000002D2E9003C3890184637916146389B51
:103E100036921A46379BFCF771FA369AC2E90001CE
:103E200066986799539BD3F800C0359060463491EB
:103E3000FCF7B0FC359A33901046349B329119460A
:103E4000339A329BFCF701FB40F2F802C2F2000207
:103E5000D2E9003C3190184630916146319B2F9257
:103E60001A46309BFCF74AFA2F9AC2E9000164987F
:103E70006599539BD3F800C02E9060462D91FCF7B6
:103E800089FC2E9A2C9010462D9B2B9119462C9A2A
:103E90002B9BFCF7DAFA40F20812C2F20002D2E9D8
:103EA000003C2A901846299161462A9B28921A467E
:103EB000299BFCF723FA289AC2E90001D2E9000104
:103EC0004CF63162C8F2DF4240F24243CBF64C730B
:103ED000FCF714FA289AC2E900016C986D9948F22F
:103EE0000003CCF256033E9AFCF7E2FB00280DD10A
:103EF000FFE740F24420C2F2000000680021C4F253
:103F0000B421FCF791FB002819D1FFE76C986D995B
:103F1000002248F20003C4F25603FCF793FB00288A
:103F20002CD1FFE740F24420C2F2000000680021DB
:103F3000CCF2B421FCF76AFB00281FD1FFE76C9894
:103F40006D99FCF73AFC40F22401C2F2000127907F
:103F50000846279900F026FC6C986D99FCF72DFC1B
:103F600040F24421C2F2000108606C986D9940F261
:103F7000F802C2F20002C2E900011FE06C986D99DC
:103F8000FCF71BFC6699679A269008461146FCF7D9
:103F900014FC40F2D801C2F200010B6840F2240187
:103FA000C2F20001259008462699259A00F0FCFAF5
:103FB00040F24021C2F200010860FFE740F24420D5
:103FC000C2F200000068FCF7E5FB21F0004100228E
:103FD00048F20003C4F25603FCF734FB002805D175
:103FE000FFE7699880F000406990FFE76A986B9955
:103FF000FCF7E3FB6899699A249008461146FCF7A0
:10400000DCFB40F2D801C2F200010B6840F24C0226
:10401000C2F2000223901046249A22911146239A5C
:1040200000F0C2FA40F24421C2F20001086040F2FE
:10403000C800C2F2000001684268689BDDF8A4C1B4
:10404000DDF888E0DEF800402190204620911F92A4
:104050001E93CDF874C0FCF79DFB1E9A1C90104671
:104060001D9B1B9119461C9A1B9BFCF7EEF9209A8D
:104070001A9010461F9B199119461A9A199BFCF722
:104080003DF94FF0663246F26663C3F6EE7318925E
:104090001793FCF7DAF96A9A6B9B49F69A1CC9F6F2
:1040A000991C49F6991EC3F6A97E169010461591E3
:1040B000194662467346CDF850C0CDF84CE0FCF787
:1040C000C4F9169A12901046159B11911946129A2E
:1040D000119BFCF713F9219A5160106040F2D00057
:1040E000C2F2000001684368DDF898C1DDF89CE188
:1040F000229C2568109028460F910E93CDF834C06D
:10410000CDF830E0FCF746FB0D9A0B9010460C9B67
:104110000A9119460B9A0A9BFCF797F90F9A099096
:1041200010460E9B08911946099A089BFCF7E6F881
:10413000189A179BFCF789F96C9A6D9B07901046AB
:1041400006911946149A139BFCF77FF9079A05907C
:104150001046069B04911946059A049BFCF7CEF87D
:10416000109A5160106040F2E800C2F20000D0E9FD
:104170000001002248F20003CCF26603FCF77DFA4E
:10418000002810D1FFE740F2E800C2F20000D0E9B9
:104190000001002248F20003C4F26603FCF752FA61
:1041A00000280ED1FFE740F24020C2F20000006874
:1041B000FCF7F0FA40F2E802C2F20002C2E90001A4
:1041C000FFE740F2F800C2F20000D0E9000100224F
:1041D00048F20003CCF26603FCF74FFA002810D136
:1041E000FFE740F2F800C2F20000D0E9000100222F
:1041F00048F20003C4F26603FCF724FA00280ED14B
:10420000FFE740F24420C2F200000068FCF7C2FA67
:1042100040F2F802C2F20002C2E90001FFE740F2F8
:104220004020C2F200000068FCF77CFA40F28801EE
:10423000C2F20001088040F20810C2F20000D0E98A
:104240000001FCF788FAFCF74EFA40F24821C2F26E
:104250000001086040F2C800C2F200000168406836
:10426000039008460399FCF776FA40F27401C2F213
:104270000001088072B0B0BD80B5B2B040F2240039
:10428000C2F200002990FFF7EFFB40F24C00C2F2AF
:1042900000002890FFF7E8FB68464FF0FF3181608F
:1042A0000E2141600DF1BA01016040F21C10C2F212
:1042B0000000D0213B220123FCF714FF9DF8BA1027
:1042C0009DF8BB2042EA012109B227900846FCF77D
:1042D00018FA40F2B002C2F20002516010609DF87C
:1042E000BC009DF8BD1041EA002000B22692FCF708
:1042F00008FA40F2B802C2F20002516010609DF864
:10430000BE009DF8BF1041EA002000B22592FCF7E4
:10431000F8F940F2C002C2F20002516010609DF84C
:10432000C2009DF8C31041EA002000B22492FCF7BD
:10433000E8F940F2E002C2F20002516010609DF81C
:10434000C4009DF8C51041EA002000B22392FCF79A
:10435000D8F940F2F002C2F20002516010609DF8FC
:10436000C60040EA002000B22292FCF7CAF940F2EF
:104370000012C2F200025160106040F21010C2F24E
:10438000000000682192FCF705FA239A1368D2F81E
:1043900004C0209018461F916146209A1F9BFCF78D
:1043A0004EF8239A5160106040F21410C2F20000DF
:1043B0000068FCF7EFF9229A1368D2F804C01E9047
:1043C00018461D9161461E9A1D9BFCF738F8229AEB
:1043D0005160106040F21810C2F200000068FCF753
:1043E000D9F9219A1368D2F804C01C9018461B9181
:1043F00061461C9A1B9BFCF722F8219A51601060C1
:104400002598006825994B6883F00041269BD3F8D6
:1044100000C0D3F804E01A906046199171466246D4
:104420007346FCF712F8249A1368D2F804C0189067
:104430001846179161461A466346FCF706F8189A23
:1044400016901046179B15911946169A159BFBF767
:1044500055FF01F035FE1A9A14901046199B1391DE
:104460001946149A139BFCF762F801F04BFC40F2DA
:104470000402C2F2000213681290184611911092C1
:10448000FCF788F9129A0F901046119B0E9119466D
:104490000F9A0E9BFBF7D9FF2D912C902698006860
:1044A00026994A68249BD3F800C05B6882F00041DB
:1044B000624601F037FD109A13680D9018460C9172
:1044C000FCF768F90D9A0B9010460C9B0A9119465F
:1044D0000B9A0A9BFBF7B9FF2B912A9040F27C00C4
:1044E000C2F200000068FCF755F92A9A2B9B09904C
:1044F000104608911946099A089BFBF7A0FF2B91DB
:104500002A9040F27800C2F200000068FCF742F9FD
:104510002C9A2D9B0790104606911946079A069BE8
:10452000FBF78DFF2D912C902C982D99FCF745F9D8
:10453000299905900846059900F034F92A982B9995
:10454000FCF73BF9289904900846049900F02AF9F1
:104550002A982B9940F2E802C2F20002C2E9000157
:104560002C982D9940F2F802C2F20002C2E9000133
:104570002A982B9940F2C802C2F2000251601060E2
:104580002C982D9940F2D002C2F2000251601060C6
:10459000FCF744FCFCF7B0F840F2BC21C2F2000189
:1045A000086032B080BD000010B5AEB09C469646A3
:1045B0000C462D902C912B922A932B982D990A69B9
:1045C00023911146CDF888C0CDF884E02094FBF704
:1045D0001FFE239948612A982D9AD36851691F922A
:1045E0001E93FBF71BFE1E991D9008461D99FBF7B5
:1045F000BDFD1F99C8602A982D9A516A1C901B9284
:10460000FBF70CFE1B9909681B9A9369D2F81CC032
:10461000D2F820E01A9161461993CDF860E0FBF7DB
:10462000F7FD1899FBF7F4FD1A99FBF79FFD1C990C
:10463000179008461799FBF7F1FD1999169008464F
:104640001699FBF793FD1B9988612A982D9AD369D7
:10465000516A15921493FBF7E1FD149913900846E3
:104660001399FBF7D5FD1599C8612A982D9A136AFD
:10467000516A12921193FBF7D1FD119910900846DF
:104680001099FBF7C5FD129908622D982A99426886
:10469000436A0F9010460E93FBF7C0FD0E990D90E4
:1046A00008460D99FBF762FD0F9948622D988168C5
:1046B0008069FBF75BFD29902D9880692999FBF7AC
:1046C000DFFD27902D98006A2999FBF7D9FD2890E6
:1046D0002C982D99C968FBF79BFD26902798269961
:1046E000FBF79CFD2D99CA680C9010460C9A0B9113
:1046F0001146FBF73BFD0B99C86028982699FBF7FC
:104700008DFD2D990A690A9010460A9A0991114661
:10471000FBF72CFD099908612D98806925902D984B
:10472000C069249027982599FBF778FD2D998A690F
:1047300008901046089A07911146FBF769FD079902
:10474000886127982499FBF769FD2D99CA6906901D
:104750001046069A05911146FBF75AFD0599C86166
:1047600028982599FBF75AFD2D990A6A049010465E
:10477000049A03911146FBF74BFD039908622898B0
:104780002499FBF74BFD2D994A6A02901046029A34
:1047900001911146FBF73CFD019948622D98C068D4
:1047A0002EB010BD82B00A46019000910098019988
:1047B000C86002B07047000010B590B013468C4638
:1047C0000F908DF83B108DF83A2040F28A00C2F22B
:1047D00000000078012801D1FFE70BE10F980028C5
:1047E00001D1FFE705E100208DF839008DF8380090
:1047F0000F9840F28001C2F2000108609DF83B0072
:10480000014603280D9124D80D99DFE801F0020A32
:10481000121A40F22000C2F200004FF08D410160F8
:104820001FE040F22000C2F200004FF08C41016016
:1048300017E040F22000C2F200004FF08B4101600F
:104840000FE040F22000C2F200004FF08A41016008
:1048500007E040F22000C2F200004FF08D410160FD
:10486000FFE79DF83A00014603280C912AD80C99DD
:10487000DFE801F0020B141E40F28400C2F20000D7
:104880000021C4F20331016025E040F28400C2F24D
:1048900000000021C4F2832101601CE040F284008A
:1048A000C2F2000043F23331C4F20321016012E08E
:1048B00040F28400C2F2000043F23331C4F28311AB
:1048C000016008E040F28400C2F200000021C4F25E
:1048D00003310160FFE740F28000C2F2000000688F
:1048E00069464FF0FF328A6001224A600DF13903B8
:1048F0000B60D02175230B921A460B9BFCF7F2FB41
:104900009DF83910682973D1FFE701208DF8380030
:1049100040F28001C2F200010A686B464FF0FF3C92
:10492000C3F808C058600DF1380EC3F800E0D0237A
:104930006B240A9010460991194622460A9C089356
:104940002346CDF81CC0CDF818E0FCF741FE072146
:104950008DF8381009990A686B46DDF81CC0C3F859
:1049600008C0DDF828E0C3F804E0069C1C601923A9
:104970000590104608991A467346FCF729FE9DF8E3
:104980003B108DF8381009990A686B46DDF81CC099
:10499000C3F808C0DDF828E0C3F804E0069C1C60FA
:1049A0001C230490104608991A467346FCF710FE23
:1049B0009DF83A108DF8381009990A686B46DDF8B1
:1049C0001CC0C3F808C0DDF828E0C3F804E0069C6A
:1049D0001C601B230390104608991A467346FCF787
:1049E000F7FD40F28A01C2F200010A9A0A70FFE75D
:1049F000FFE7FFE710B010BD80B58EB000200D902E
:104A00000C900B900A90FFE741F21800C4F20200EC
:104A1000016841F010010160006800F01000099089
:104A20000998FFE7FFE741F21800C4F202000168AD
:104A300041F020010160006800F020000890089813
:104A4000FFE7FFE741F21800C4F20200016841F0FD
:104A500004010160006800F0040007900798FFE778
:104A6000FFE741F21800C4F20200016841F00801BA
:104A70000160006800F0080006900698FFE740F625
:104A80000000C4F2010070210022059004910392FD
:104A9000FCF7AAF981200A9003980B9001210C9150
:104AA0000AAA0598029111460192FCF705F8022026
:104AB0000A9003990B910C91059A00901046019968
:104AC000FBF7FAFF04980A9002990B91039A0C9253
:104AD000009B0D9305980199FBF7EEFF0EB080BD8A
:104AE00080B540F21C10C2F2000045F20041C4F251
:104AF0000001016041F68021C0F206014160002101
:104B00008160C1604FF48042026141618161C16195
:104B10000162FCF789F9002803D0FFE7FBF7C4FF27
:104B2000FFE780BD80B588B0002007900690059013
:104B300004900390029040F27011C2F2000142F61C
:104B40000042C4F201020A6047224A6088604FF6C0
:104B5000FF72CA600861486188610846FDF78CFFF2
:104B6000002803D0FFE7FBF79FFFFFE70020069038
:104B7000079040F27010C2F2000006A9FDF7BCFCDD
:104B8000002803D0FFE7FBF78FFFFFE7002002902C
:104B9000012103910490059040F27011C2F20001CE
:104BA00002AA019008461146019AFDF7C9FE0028A5
:104BB00003D0FFE7FBF778FFFFE740F27010C2F287
:104BC000000002A90422FDF7BBFE002803D0FFE786
:104BD000FBF76AFFFFE740F27010C2F2000002A983
:104BE0000822FDF7ADFE002803D0FFE7FBF75CFFCE
:104BF000FFE740F27010C2F2000002A90C22FDF79C
:104C00009FFE002803D0FFE7FBF74EFFFFE708B049
:104C100080BD000080B540F20020C2F2000043F6E3
:104C20000001C4F2010101604FF4E1314160002153
:104C30008160C16001610C2242618161C161FEF746
:104C400017F9002803D0FFE7FBF72EFFFFE780BD31
:104C5000FFE7FEE7FFE7FEE788B0079006910592C1
:104C6000079800F0070004900498C0F10700052899
:104C700003D3FFE70420019004E00498C0F107008B
:104C80000190FFE70198039004980430062803D8A8
:104C9000FFE70020009003E0049803380090FFE74E
:104CA0000098029006980399012202FA01F1013955
:104CB000084002998840059B02FA01F10139194028
:104CC000084308B07047000000000000000000002A
:104CD000EFF30980BFF36F8F0D4B1A6820E9F00FD7
:104CE00010602DE908404FF0BF0080F3118800F0FC
:104CF00061FC4FF0000080F31188BDE8084019689E
:104D00000868B0E8F00F80F30988BFF36F8F704731
:104D10004C02002082B00190019840F20801C2F2DA
:104D200000010968C90844F6D352C1F26202A1FB2E
:104D30000212920950430090FFE700BFFFE700987E
:104D4000411E00910028F8D1FFE702B07047000033
:104D5000074B19680868B0E8F00F80F30988BFF3C3
:104D60006F8F4FF0000080F311884EF00D0E7047EA
:104D70004C02002080B582B04FF0BF0080F3118854
:104D8000BFF36F8FBFF34F8F009000F037FD002807
:104D900008D0FFE74EF60450CEF200004FF08051ED
:104DA0000160FFE700200190019880F3118802B0B4
:104DB00080BD000080B592B008A828210290FBF7C2
:104DC000CAF90020079006900590049003900121F5
:104DD00008914FF4803209920A900C9102200F90B2
:104DE00010924FF4E01011900298FDF737F8002868
:104DF00003D0FFE7FBF758FEFFE70F2003900220E8
:104E00000490002105914FF480620692079103A956
:104E1000019008460199FCF72DFE002803D0FFE71A
:104E2000FBF742FEFFE712B080BD000070470000B4
:104E300080B540F27010C2F20000FDF7BDFE80BDEB
:104E400080B540F2B810C2F20000FDF7B5FE80BD9B
:104E500083B002900191029800680090029842F697
:104E60000041C4F20101884215D0FFE70298B0F179
:104E7000804F10D0FFE7029840F20041C4F20001D9
:104E8000884208D0FFE7029840F60001C4F2000112
:104E900088420AD1FFE7009820F070000090019846
:104EA0004068009908430090FFE7029842F60041ED
:104EB000C4F20101884215D0FFE70298B0F1804F9B
:104EC00010D0FFE7029840F20041C4F2000188428E
:104ED00008D0FFE7029840F60001C4F200018842C2
:104EE0000AD1FFE7009820F4407000900198C06854
:104EF000009908430090FFE7009820F08000019996
:104F000049690843009000980299086001988068F8
:104F10000299C8620198006802998862029842F674
:104F20000041C4F20101884205D1FFE70198006900
:104F300002990863FFE702980121416103B07047BD
:104F400087B006900591049203930698016A21F0B8
:104F5000010101620698806902900698006A01903A
:104F60000698012142F60042C4F2010290420091EB
:104F70001CD0FFE706980121B0F1804F009115D0B9
:104F8000FFE70698012140F20042C4F2000290427D
:104F900000910BD0FFE706984FF60001CBF6FF71AA
:104FA0000844B0FA80F040090090FFE70098C0077D
:104FB000002809D0FFE7029820F00300029004982F
:104FC00002990843029004E0029840F00100029028
:104FD000FFE7029820F0F000029003980001C0B2B1
:104FE000029908430290019820F00A000190059868
:104FF00000F00A000199084301900298069988611F
:1050000001980699086207B07047000086B00590C5
:105010000491039202930598016A21F01001016244
:105020000598806901900598006A0090019820F425
:10503000407001900398019941EA00200190019885
:1050400020F4704001900298000380B20199084357
:105050000190009820F0A0000090049800F00A0051
:10506000009941EA00100090019805998861009824
:105070000599086206B0704786B0059004910392C6
:1050800002930598016A21F4807101620598C06954
:1050900001900598006A0090019820F003000190AB
:1050A0000398019908430190019820F0F0000190C5
:1050B00002980001C0B2019908430190009820F4C1
:1050C00000700090049800F00200009941EA00206E
:1050D000009001980599C86100980599086206B08A
:1050E0007047000086B005900491039202930598E2
:1050F000016A21F4805101620598C0690190059808
:10510000006A0090019820F4407001900398019982
:1051100041EA00200190019820F47040019002982B
:10512000000380B2019908430190009820F40050D8
:105130000090049800F00200009941EA00300090CD
:1051400001980599C86100980599086206B07047F2
:1051500080B584B0039003980068006920F4405043
:1051600003990A68C9680843106103988168026955
:10517000406911430843029003980068C06841F2F7
:105180000C6188430299084303990968C860039831
:105190000068406920F4407003990A6889690843EF
:1051A00050610398006843F60001C4F2010188428F
:1051B00004D1FFE7FCF7CCFD019003E0FCF7B6FD5E
:1051C0000190FFE701981921484303990A6849684B
:1051D0008900B0FBF1F048F21F51C5F2EB11A0FBC2
:1051E000013C4FEA5C1C4FF0640E0CFB1E004FF0BC
:1051F000320E0EEB0010A0FB01014FF0F00E0EEA94
:10520000511E0EEB0C1CC1F343116144916004B0BC
:1052100080BD0000FFE7FEE781B001468DF8030086
:105220009DF9030000280FD4FFE79DF9030000F06B
:105230001F01012202FA01F140094EF20012CEF2E2
:10524000000242F82010FFE701B070474EF60C5004
:10525000CEF200000068C0F30220704782B0024620
:105260008DF8070000919DF9070000280AD4FFE798
:10527000009800019DF907104EF20042CEF20002A4
:1052800088540BE0009800019DF8071001F00F0111
:105290004EF61452CEF200028854FFE702B0704777
:1052A00083B00290029800F0070000904EF60C5078
:1052B000CEF200000168019101994FF6FF02114002
:1052C00001910199009A41EA02210022C0F2FA52AA
:1052D000114301910199016003B0704780B584B01A
:1052E000002003900290FCF7EBFA0190FFF762FDBB
:1052F000FFF782FBFFF78EFCFFF714FCFFF7F0FBD4
:1053000040F21C10C2F200000299029AFFF754FA10
:10531000FEF728FAFEF7B0FFFFE7FEF7CBFBFCE74E
:1053200080B588B0079006910592002004900798F8
:10533000806B03900798006C002801D1FFE749E0DB
:10534000059800281AD1FFE7079806994268006C73
:1053500002901046029AFAF7E5FE07994A680B6C2C
:105360001A444A6007994A6889688A4204D3FFE769
:1053700007980168416000E0FFE72AE00798069976
:10538000C268006C01901046019AFAF7CBFE0799AB
:10539000CA680B6CD21ACA6007990A68C968914238
:1053A00006D2FFE707988168026C891AC16000E0A5
:1053B000FFE7059802280AD1FFE70398002804D0E8
:1053C000FFE703980138039000E0FFE700E0FFE704
:1053D000FFE7FFE70398013007998863049808B056
:1053E00080BD000081B040F25020C2F20000006891
:1053F0000068002808D1FFE740F2D820C2F2000080
:105400004FF0FF3101600FE040F25020C2F2000087
:105410000068C068C06800900098406840F2D821D9
:10542000C2F200010860FFE701B0704782B001904E
:10543000019800690090019841688068886001982F
:10544000416880684160009840680199884205D1B0
:10545000FFE7019880680099486000E0FFE7019845
:10546000002101610098016801390160009800681D
:1054700002B0704780B582B0019000910198009908
:1054800000F0E2F802B080BD83B002900191029872
:1054900040680090009801994860009880680199E0
:1054A000886001980099896848600198009988602F
:1054B000029801990861029801680131016003B006
:1054C0007047000081B04FF0BF0080F31188BFF338
:1054D0006F8FBFF34F8F009040F21800C2F20000B0
:1054E0000168013101600068012801D1FFE7FFE791
:1054F00001B0704781B040F21800C2F200000168AC
:10550000013901600068002806D1FFE70020009003
:10551000009880F31188FFE701B0704780B586B02E
:1055200005900491049840F00040059908600598A2
:10553000C06803900598FFF779FF03990431029042
:105540000846FFF773FF0399C96A012202FA01F1C5
:1055500040F2D022C2F2000213681943116003998D
:10556000CA6A02EB820240F25823C2F2000303EB44
:105570008202043101901046FFF786FF0398C06A4B
:1055800040F24C21C2F200010968C96A884207D979
:10559000FFE740F20430C2F2000001210160FFE7A2
:1055A00006B080BD40F2CC20C2F20000016801319B
:1055B0000160704784B040F2CC20C2F20000006865
:1055C000002807D0FFE740F20430C2F200000121BA
:1055D000016037E040F20430C2F2000000210160B7
:1055E00040F2D020C2F20000006803900398B0FAA5
:1055F00080F08DF80B009DF80B00C0F11F000190AA
:10560000019800EB800040F25821C2F2000101EB4A
:1056100080000090009841684968416000984168A6
:105620000830814205D1FFE7009841684968416030
:10563000FFE700984068C06840F24C21C2F20001C8
:105640000860FFE704B0704780B58CB00B900A91FA
:10565000002005900B990291019002980430069069
:10566000069808300790FFF79DFF0698C0680990DC
:105670000A9802990A6810430860FFE70998079999
:10568000884248D0FFE70998406808900998006868
:105690000490002001909DF81300000603900498E8
:1056A00020F07F4004909DF80F00400700280BD4A5
:1056B000FFE7049802990968084203D0FFE7012038
:1056C000019000E0FFE70BE00498029909680140AF
:1056D000814203D1FFE70120019000E0FFE7FFE7EF
:1056E0000198002814D0FFE79DF80F00C00700289C
:1056F00005D0FFE7049805990843059000E0FFE70F
:1057000009980299096841F00071FFF707FFFFE768
:1057100008980990B2E7059802990A6822EA000001
:10572000086000F091F902990968009008460CB0F1
:1057300080BD000080B58CB008900791069205935B
:1057400008980290EFF311804FF0BF0181F31188A8
:10575000BFF36F8FBFF34F8F0A9009910A980390A0
:105760000298806B0299C96B884204D3FFE70598C1
:10577000022837D1FFE7029890F845008DF807001E
:105780000298806B009002980799059AFFF7C8FD70
:105790009DF90710013100291AD1FFE70298406AEC
:1057A000002813D0FFE70298243000F0F7F8002813
:1057B0000AD0FFE70698002804D0FFE706980121E9
:1057C000016000E0FFE700E0FFE700E0FFE706E040
:1057D0009DF807000130029981F84500FFE701209C
:1057E000049002E000200490FFE703980B900B98D0
:1057F00080F3118804980CB080BD000080B586B09D
:105800000020039040F2CC20C2F200000068002883
:1058100040F0B980FFE740F2FC20C2F200000168CE
:1058200001310291029901600298002818D1FFE726
:1058300040F25020C2F200000168019140F2542170
:10584000C2F200010A6802600198086040F2DC20A0
:10585000C2F20000016801310160FFF7C3FD00E002
:10586000FFE7029840F2D821C2F20001096888429D
:1058700067D3FFE7FFE740F25020C2F20000006864
:105880000068002808D1FFE740F2D820C2F20000EB
:105890004FF0FF31016053E040F25020C2F20000AF
:1058A0000068C068C0680590059840680490029838
:1058B0000499884207D2FFE7049840F2D821C2F247
:1058C000000108603CE0FFE705980430FFF7AEFDFB
:1058D0000599896A002905D0FFE705981830FFF778
:1058E000A5FD00E0FFE70598C06A012101FA00F07C
:1058F00040F2D021C2F200010A6810430860059806
:10590000C16A01EB810140F25822C2F2000202EBAF
:1059100081010430009008460099FFF7B5FD059815
:10592000C06A40F24C21C2F200010968C96A88428B
:1059300003D3FFE70120039000E0FFE7FFE79AE7CA
:10594000FFE740F24C20C2F200000068C06A00EBA2
:10595000800040F25821C2F2000151F820000228D4
:1059600003D3FFE70120039000E0FFE740F204309B
:10597000C2F200000068002803D0FFE70120039076
:1059800000E0FFE707E040F2E020C2F2000001681B
:1059900001310160FFE7039806B080BD80B584B097
:1059A00003900398C068C068029002981830FFF70F
:1059B0003DFD40F2CC21C2F200010968002920D14E
:1059C000FFE702980430FFF731FD0299C96A01220E
:1059D00002FA01F140F2D022C2F200021368194328
:1059E00011600299CA6A02EB820240F25823C2F2A5
:1059F000000303EB8202043100901046FFF744FDE0
:105A000009E0029800F1180140F2E420C2F200001F
:105A1000FFF73AFDFFE70298C06A40F24C21C2F25C
:105A200000010968C96A884208D9FFE7012001908E
:105A300040F20431C2F20001086002E0002001904F
:105A4000FFE7019804B080BD80B586B000200590C6
:105A50000490FFF737FD40F2CC20C2F2000001684D
:105A6000013901600068002840F09B80FFE740F2A8
:105A7000C820C2F200000068002800F09180FFE713
:105A8000FFE740F2E420C2F200000068002840D0A6
:105A9000FFE740F2E420C2F20000C068C068059051
:105AA00005981830FFF7C2FC0599043102900846AA
:105AB000FFF7BCFC0599C96A012202FA01F140F224
:105AC000D022C2F200021368194311600599CA6A14
:105AD00002EB820240F25823C2F2000303EB82027F
